{
	"data": {
		"bytecode": {
			"linkReferences": {},
			"object": "608060405234801561001057600080fd5b50613bf2806100206000396000f3fe608060405234801561001057600080fd5b50600436106101165760003560e01c80638074590a116100a2578063abfd231d11610071578063abfd231d146101cc578063e1c7392a14610378578063ebbb215814610382578063f3250fe2146103b7578063f732f1c91461020157610116565b80638074590a146102a857806394491fab146102dd5780639d11410814610236578063a11aa1b41461031a57610116565b806348d73fed116100e957806348d73fed1461016257806349f9b0f71461020157806365098bb31461023657806376cf0b561461027357806379c1b4501461023657610116565b80631da6bbfb1461011b57806329a00e7c146101625780632f55bdb51461019757806335b49af4146101cc575b600080fd5b6101506004803603608081101561013157600080fd5b5080359060208101359063ffffffff60408201351690606001356103ec565b60408051918252519081900360200190f35b6101506004803603608081101561017857600080fd5b5080359060208101359063ffffffff6040820135169060600135610405565b610150600480360360808110156101ad57600080fd5b5080359060208101359063ffffffff6040820135169060600135610413565b610150600480360360808110156101e257600080fd5b5080359060208101359063ffffffff604082013516906060013561058b565b6101506004803603608081101561021757600080fd5b5080359060208101359063ffffffff6040820135169060600135610599565b610150600480360360a081101561024c57600080fd5b5080359063ffffffff602082013581169160408101359160608201351690608001356105a7565b6101506004803603608081101561028957600080fd5b5080359060208101359063ffffffff60408201351690606001356105c2565b610150600480360360808110156102be57600080fd5b5080359060208101359063ffffffff6040820135169060600135610788565b610150600480360360a08110156102f357600080fd5b5080359063ffffffff60208201358116916040810135916060820135169060800135610904565b61034f600480360360a081101561033057600080fd5b5080359060208101359060408101359060608101359060800135610a70565b604051808363ffffffff1681526020018263ffffffff1681526020019250505060405180910390f35b610380610bf8565b005b6101506004803603608081101561039857600080fd5b5080359060208101359063ffffffff6040820135169060600135610c0a565b610150600480360360808110156103cd57600080fd5b5080359060208101359063ffffffff6040820135169060600135610d8f565b60006103fa85858585610c0a565b90505b949350505050565b60006103fa85858585610d8f565b600080851161045e576040805162461bcd60e51b81526020600482015260126024820152714552525f494e56414c49445f535550504c5960701b604482015290519081900360640190fd5b600084116104a1576040805162461bcd60e51b815260206004820152601b6024820152600080516020613b9d833981519152604482015290519081900360640190fd5b60018363ffffffff161180156104c05750621e848063ffffffff841611155b61050d576040805162461bcd60e51b81526020600482015260196024820152784552525f494e56414c49445f524553455256455f524154494f60381b604482015290519081900360640190fd5b8161051a575060006103fd565b63ffffffff8316620f4240141561054557836105368387610ec1565b8161053d57fe5b0490506103fd565b600080806105538786610f28565b9050610564818888620f4240610f71565b9093509150600060ff83166105798a86610ec1565b901c9890980398975050505050505050565b60006103fa85858585610788565b60006103fa858585856105c2565b60006105b68686868686610904565b90505b95945050505050565b600080851161060d576040805162461bcd60e51b81526020600482015260126024820152714552525f494e56414c49445f535550504c5960701b604482015290519081900360640190fd5b60008411610650576040805162461bcd60e51b815260206004820152601b6024820152600080516020613b9d833981519152604482015290519081900360640190fd5b60008363ffffffff1611801561066f5750620f424063ffffffff841611155b6106bd576040805162461bcd60e51b815260206004820152601a60248201527911549497d253959053125117d49154d154959157d5d15251d21560321b604482015290519081900360640190fd5b84821115610707576040805162461bcd60e51b815260206004820152601260248201527111549497d253959053125117d05353d5539560721b604482015290519081900360640190fd5b81610714575060006103fd565b848214156107235750826103fd565b63ffffffff8316620f4240141561073f57846105368584610ec1565b6000808387036107548882620f424089610f71565b909350915060006107658885610ec1565b905060ff831688901b848183038161077957fe5b049a9950505050505050505050565b60008085116107d3576040805162461bcd60e51b81526020600482015260126024820152714552525f494e56414c49445f535550504c5960701b604482015290519081900360640190fd5b60008411610816576040805162461bcd60e51b815260206004820152601b6024820152600080516020613b9d833981519152604482015290519081900360640190fd5b60018363ffffffff161180156108355750621e848063ffffffff841611155b610882576040805162461bcd60e51b81526020600482015260196024820152784552525f494e56414c49445f524553455256455f524154494f60381b604482015290519081900360640190fd5b848211156108cc576040805162461bcd60e51b815260206004820152601260248201527111549497d253959053125117d05353d5539560721b604482015290519081900360640190fd5b816108d9575060006103fd565b848214156108e85750826103fd565b63ffffffff8316620f4240141561073f57846105368386610ec1565b600080861180156109155750600084115b610954576040805162461bcd60e51b815260206004820152601b6024820152600080516020613b9d833981519152604482015290519081900360640190fd5b60008563ffffffff161180156109735750620f424063ffffffff861611155b8015610985575060008363ffffffff16115b801561099a5750620f424063ffffffff841611155b6109e8576040805162461bcd60e51b815260206004820152601a60248201527911549497d253959053125117d49154d154959157d5d15251d21560321b604482015290519081900360640190fd5b8263ffffffff168563ffffffff161415610a1f57610a068683610f28565b610a108584610ec1565b81610a1757fe5b0490506105b9565b60008080610a2d8986610f28565b9050610a3b818a8a89610f71565b90935091506000610a4c8885610ec1565b905060ff831688901b8481830381610a6057fe5b049b9a5050505050505050505050565b60008085871415610ace576000871180610a8a5750600085115b610ac9576040805162461bcd60e51b815260206004820152601b6024820152600080516020613b9d833981519152604482015290519081900360640190fd5b610b29565b600087118015610ade5750600086115b8015610aea5750600085115b610b29576040805162461bcd60e51b815260206004820152601b6024820152600080516020613b9d833981519152604482015290519081900360640190fd5b600084118015610b395750600083115b610b8a576040805162461bcd60e51b815260206004820152601860248201527f4552525f494e56414c49445f524553455256455f524154450000000000000000604482015290519081900360640190fd5b6000610b968886610ec1565b90506000610ba48786610ec1565b905087891015610bc757610bbc888a84846001611043565b935093505050610bee565b87891115610bdd57610bbc898984846000611043565b610be7828261110c565b9350935050505b9550959350505050565b610c00611144565b610c0861191a565b565b6000808511610c55576040805162461bcd60e51b81526020600482015260126024820152714552525f494e56414c49445f535550504c5960701b604482015290519081900360640190fd5b60008411610c98576040805162461bcd60e51b815260206004820152601b6024820152600080516020613b9d833981519152604482015290519081900360640190fd5b60018363ffffffff16118015610cb75750621e848063ffffffff841611155b610d04576040805162461bcd60e51b81526020600482015260196024820152784552525f494e56414c49445f524553455256455f524154494f60381b604482015290519081900360640190fd5b81610d11575060006103fd565b63ffffffff8316620f42401415610d4257846001610d2f8487610ec1565b0381610d3757fe5b0460010190506103fd565b60008080610d508886610f28565b9050610d618189620f424089610f71565b9093509150600060ff83166001610d788a87610ec1565b03901c889003600101945050505050949350505050565b6000808511610dda576040805162461bcd60e51b81526020600482015260126024820152714552525f494e56414c49445f535550504c5960701b604482015290519081900360640190fd5b60008411610e1d576040805162461bcd60e51b815260206004820152601b6024820152600080516020613b9d833981519152604482015290519081900360640190fd5b60008363ffffffff16118015610e3c5750620f424063ffffffff841611155b610e8a576040805162461bcd60e51b815260206004820152601a60248201527911549497d253959053125117d49154d154959157d5d15251d21560321b604482015290519081900360640190fd5b81610e97575060006103fd565b63ffffffff8316620f42401415610eb357836105368684610ec1565b600080806105538588610f28565b600082610ed057506000610f22565b82820282848281610edd57fe5b0414610f1f576040805162461bcd60e51b815260206004820152600c60248201526b4552525f4f564552464c4f5760a01b604482015290519081900360640190fd5b90505b92915050565b600082820183811015610f1f576040805162461bcd60e51b815260206004820152600c60248201526b4552525f4f564552464c4f5760a01b604482015290519081900360640190fd5b600080600160811b8610610f8457600080fd5b600080866001607f1b890281610f9657fe5b04905070015bf0a8b1457695355fb8ac404e7a79e3811015610fc257610fbb81612321565b9150610fce565b610fcb81612705565b91505b60008563ffffffff168763ffffffff16840281610fe757fe5b049050600160831b81101561100d57610fff816127b0565b607f9450945050505061103a565b600061101882612b54565b905061102d81607f0360ff1683901c82612be4565b9550935061103a92505050565b94509492505050565b6000806110508585612f7e565b9095509350600086611066896001607f1b610ec1565b8161106d57fe5b049050600070015bf0a8b1457695355fb8ac404e7a79e382106110985761109382612705565b6110a1565b6110a182612321565b90506000866110b0838a610ec1565b816110b757fe5b0490506000866110cf576110ca82613031565b6110d8565b6110d88261306e565b90506110fa6110e7828b610ec1565b6110f58a6001607f1b610ec1565b61110c565b95509550505050509550959350505050565b6000808284116111295761112084846130d2565b9150915061113d565b60008061113685876130d2565b9450925050505b9250929050565b701c35fedd14ffffffffffffffffffffffff602055701b0ce43b323fffffffffffffffffffffff6021557019f0028ec1ffffffffffffffffffffffff6022557018ded91f0e7fffffffffffffffffffffff6023557017d8ec7f0417ffffffffffffffffffffff6024557016ddc6556cdbffffffffffffffffffffff6025557015ecf52776a1ffffffffffffffffffffff6026557015060c256cb2ffffffffffffffffffffff602755701428a2f98d72ffffffffffffffffffffff6028557013545598e5c23fffffffffffffffffffff602955701288c4161ce1dfffffffffffffffffffff602a557011c592761c666fffffffffffffffffffff602b5570110a688680a757ffffffffffffffffffff602c55701056f1b5bedf77ffffffffffffffffffff602d55700faadceceeff8bffffffffffffffffffff602e55700f05dc6b27edadffffffffffffffffffff602f55700e67a5a25da4107fffffffffffffffffff603055700dcff115b14eedffffffffffffffffffff603155700d3e7a392431239fffffffffffffffffff603255700cb2ff529eb71e4fffffffffffffffffff603355700c2d415c3db974afffffffffffffffffff603455700bad03e7d883f69bffffffffffffffffff603555700b320d03b2c343d5ffffffffffffffffff603655700abc25204e02828dffffffffffffffffff603755700a4b16f74ee4bb207fffffffffffffffff6038557009deaf736ac1f569ffffffffffffffffff603955700976bd9952c7aa957fffffffffffffffff603a557009131271922eaa606fffffffffffffffff603b557008b380f3558668c46fffffffffffffffff603c55700857ddf0117efa215bffffffffffffffff603d557007ffffffffffffffffffffffffffffffff603e557007abbf6f6abb9d087fffffffffffffffff603f5570075af62cbac95f7dfa7fffffffffffffff60405570070d7fb7452e187ac13fffffffffffffff6041557006c3390ecc8af379295fffffffffffffff60425570067c00a3b07ffc01fd6fffffffffffffff604355700637b647c39cbb9d3d27ffffffffffffff6044557005f63b1fc104dbd39587ffffffffffffff6045557005b771955b36e12f7235ffffffffffffff60465570057b3d49dda84556d6f6ffffffffffffff60475570054183095b2c8ececf30ffffffffffffff60485570050a28be635ca2b888f77fffffffffffff6049557004d5156639708c9db33c3fffffffffffff604a557004a23105873875bd52dfdfffffffffffff604b55700471649d87199aa990756fffffffffffff604c557004429a21a029d4c1457cfbffffffffffff604d55700415bc6d6fb7dd71af2cb3ffffffffffff604e557003eab73b3bbfe282243ce1ffffffffffff604f557003c1771ac9fb6b4c18e229ffffffffffff605055700399e96897690418f785257fffffffffff605155700373fc456c53bb779bf0ea9fffffffffff60525570034f9e8e490c48e67e6ab8bfffffffffff60535570032cbfd4a7adc790560b3337ffffffffff60545570030b50570f6e5d2acca94613ffffffffff6055557002eb40f9f620fda6b56c2861ffffffffff6056557002cc8340ecb0d0f520a6af58ffffffffff6057557002af09481380a0a35cf1ba02ffffffffff605855700292c5bdd3b92ec810287b1b3fffffffff605955700277abdcdab07d5a77ac6d6b9fffffffff605a5570025daf6654b1eaa55fd64df5efffffffff605b55700244c49c648baa98192dce88b7ffffffff605c5570022ce03cd5619a311b2471268bffffffff605d55700215f77c045fbe885654a44a0fffffffff605e557001ffffffffffffffffffffffffffffffff605f557001eaefdbdaaee7421fc4d3ede5ffffffff6060557001d6bd8b2eb257df7e8ca57b09bfffffff6061557001c35fedd14b861eb0443f7f133fffffff6062557001b0ce43b322bcde4a56e8ada5afffffff60635570019f0028ec1fff007f5a195a39dfffffff60645570018ded91f0e72ee74f49b15ba527ffffff60655570017d8ec7f04136f4e5615fd41a63ffffff60665570016ddc6556cdb84bdc8d12d22e6fffffff60675570015ecf52776a1155b5bd8395814f7fffff60685570015060c256cb23b3b3cc3754cf40ffffff6069557001428a2f98d728ae223ddab715be3fffff606a5570013545598e5c23276ccf0ede68034fffff606b557001288c4161ce1d6f54b7f61081194fffff606c5570011c592761c666aa641d5a01a40f17ffff606d55700110a688680a7530515f3e6e6cfdcdffff606e557001056f1b5bedf75c6bcb2ce8aed428ffff606f556ffaadceceeff8a0890f3875f008277fff6070556ff05dc6b27edad306388a600f6ba0bfff6071556fe67a5a25da41063de1495d5b18cdbfff6072556fdcff115b14eedde6fc3aa5353f2e4fff6073556fd3e7a3924312399f9aae2e0f868f8fff6074556fcb2ff529eb71e41582cccd5a1ee26fff6075556fc2d415c3db974ab32a51840c0b67edff6076556fbad03e7d883f69ad5b0a186184e06bff6077556fb320d03b2c343d4829abd6075f0cc5ff6078556fabc25204e02828d73c6e80bcdb1a95bf6079556fa4b16f74ee4bb2040a1ec6c15fbbf2df607a556f9deaf736ac1f569deb1b5ae3f36c130f607b556f976bd9952c7aa957f5937d790ef65037607c556f9131271922eaa6064b73a22d0bd4f2bf607d556f8b380f3558668c46c91c49a2f8e967b9607e556f857ddf0117efa215952912839f6473e66000607f5b0155565b6f60e393c68d20b1bd09deaabc0373b9c560809081556f5f8f46e4854120989ed94719fb4c20116081556f5e479ebb9129fb1b7e72a648f992b6066082556f5d0bd23fe42dfedde2e9586be12b85fe6083556f5bdb29ddee979308ddfca81aeeb8095a6084556f5ab4fd8a260d2c7e2c0d2afcf0009dad6085556f5998b31359a55d48724c65cf090012216086556f5885bcad2b322dfc43e8860f9c018cf56087556f577b97aa1fe222bb452fdf111b1f0be26088556f5679cb5e3575632e5baa27e2b949f7046089556f557fe8241b3a31c83c732f1cdff4a1c5608a556f548d868026504875d6e59bbe95fc2a6b608b556f53a2465ce347cf34d05a867c17dd3088608c556f52bdce5dcd4faed59c7f5511cf8f8acc608d556f51dfcb453c07f8da817606e7885f7c3e608e556f5107ef6b0a5a2be8f8ff15590daa3cce608f556f5035f241d6eae0cd7bacba119993de7b6090556f4f698fe90d5b53d532171e1210164c666091556f4ea288ca297a0e6a09a0eee240e16c856092556f4de0a13fdcf5d4213fc398ba6e3becde6093556f4d23a145eef91fec06b06140804c48086094556f4c6b5430d4c1ee5526473db4ae0f11de6095556f4bb7886c240562eba11f4963a53b42406096556f4b080f3f1cb491d2d521e0ea4583521e6097556f4a5cbc96a05589cb4d86be1db31683646098556f49b566d40243517658d78c33162d6ece6099556f4911e6a02e5507a30f947383fd9a3276609a556f487216c2b31be4adc41db8a8d5cc0c88609b556f47d5d3fc4a7a1b188cd3d788b5c5e9fc609c556f473cfce4871a2c40bc4f9e1c32b955d0609d556f46a771ca578ab878485810e285e31c67609e556f4615149718aed4c258c373dc676aa72d609f556f4585c8b3f8fe489c6e1833ca4787138460a0556f44f972f174e41e5efb7e9d63c29ce73560a1556f446ff970ba86d8b00beb05ecebf3c4dc60a2556f43e9438ec88971812d6f198b5ccaad9660a3556f436539d11ff7bea657aeddb394e809ef60a4556f42e3c5d3e5a913401d86f66db5d81c2c60a5556f4264d2395303070ea726cbe98df6217460a6556f41e84a9a593bb7194c3a6349ecae4eea60a7556f416e1b785d13eba07a08f3f18876a5ab60a8556f40f6322ff389d423ba9dd7e7e7b7e80960a9556f40807cec8a466880ecf4184545d240a460aa556f400cea9ce88a8d3ae668e8ea0d9bf07f60ab556f3f9b6ae8772d4c55091e0ed7dfea0ac160ac556f3f2bee253fd84594f54bcaafac383a1360ad556f3ebe654e95208bb9210c575c081c595860ae556f3e52c1fc5665635b78ce1f05ad53c08660af556f3de8f65ac388101ddf718a6f5c1eff6560b0556f3d80f522d59bd0b328ca012df4cd2d4960b1556f3d1ab193129ea72b23648a161163a85a60b2556f3cb61f68d32576c135b95cfb53f76d7560b3556f3c5332d9f1aae851a3619e77e4cc847360b4556f3bf1e08edbe2aa109e1525f65759ef7360b5556f3b921d9cff13fa2c197746a3dfc4918f60b6556f3b33df818910bfc1a5aefb8f63ae2ac460b7556f3ad71c1c77e34fa32a9f184967eccbf660b8556f3a7bc9abf2c5bb53e2f7384a8a16521a60b9556f3a21dec7e76369783a68a0c6385a1c5760ba556f39c9525de6c9cdf7c1c157ca4a7a6ee360bb556f39721bad3dc85d1240ff0190e0adaac360bc556f391c324344d3248f0469eb28dd3d77e060bd556f38c78df7e3c796279fb4ff84394ab3da60be556f387426ea4638ae9aae08049d3554c20a60bf556f3821f57dbd2763256c1a99bbd205137860c0556f37d0f256cb46a8c92ff62fbbef28969860c1556f37811658591ffc7abdd1feaf3cef9b7360c2556f37325aa10e9e82f7df0f380f7997154b60c3556f36e4b888cfb408d873b9a80d439311c660c4556f3698299e59f4bb9de645fc9b08c64cca60c5556f364ca7a5012cb603023b57dd3ebfd50d60c6556f36022c928915b778ab1b06aaee7e61d460c7556f35b8b28d1a73dc27500ffe35559cc02860c8556f357033e951fe250ec5eb4e60955132d760c9556f3528ab2867934e3a21b5412e4c4f888160ca556f34e212f66c55057f9676c80094a61d5960cb556f349c66289e5b3c4b540c24f42fa4b9bb60cc556f34579fbbd0c733a9c8d6af6b0f7d00f760cd556f3413bad2e712288b924b5882b5b369bf60ce556f33d0b2b56286510ef730e213f71f12e960cf556f338e82ce00e2496262c64457535ba1a160d0556f334d26a96b373bb7c2f8ea1827f27a9260d1556f330c99f4f4211469e00b3e18c31475ea60d2556f32ccd87d6486094999c7d5e6f33237d860d3556f328dde2dd617b6665a2e8556f250c1af60d4556f324fa70e9adc270f8262755af5a99af960d5556f32122f443110611ca51040f41fa6e1e360d6556f31d5730e42c0831482f0f1485c4263d860d7556f31996ec6b07b4a83421b5ebc4ab4e1f160d8556f315e1ee0a68ff46bb43ec2b85032e87660d9556f31237fe7bc4deacf6775b9efa1a145f860da556f30e98e7f1cc5a356e44627a6972ea2ff60db556f30b04760b8917ec74205a3002650ec0560dc556f3077a75c803468e9132ce0cf3224241d60dd556f303fab57a6a275c36f19cda9bace667a60de556f3008504beb8dcbd2cf3bc1f6d5a064f060df556f2fd19346ed17dac61219ce0c2c5ac4b060e0556f2f9b7169808c324b5852fd3d54ba971460e1556f2f65e7e711cf4b064eea9c08cbdad57460e2556f2f30f405093042ddff8a251b6bf6d10360e3556f2efc931a3750f2e8bfe323edfe03757460e4556f2ec8c28e46dbe56d98685278339400cb60e5556f2e957fd933c3926d8a599b602379b85160e6556f2e62c882c7c9ed4473412702f08ba0e560e7556f2e309a221c12ba361e3ed695167feee260e8556f2dfef25d1f865ae18dd07cfea4bcea1060e9556f2dcdcee821cdc80decc02c44344aeb3160ea556f2d9d2d8562b34944d0b201bb87260c8360eb556f2d6d0c04a5b62a2c42636308669b729a60ec556f2d3d6842c9a235517fc5a0332691528f60ed556f2d0e402963fe1ea2834abc408c437c1060ee556f2cdf91ae602647908aff975e4d6a2a8c60ef556f2cb15ad3a1eb65f6d74a75da09a1b6c560f0556f2c8399a6ab8e9774d6fcff373d21072760f1556f2c564c4046f64edba6883ca06bbc453560f2556f2c2970c431f952641e05cb493e23eed360f3556f2bfd0560cd9eb14563bc7c0732856c1860f4556f2bd1084ed0332f7ff4150f9d0ef41a2c60f5556f2ba577d0fa1628b76d040b12a82492fb60f6556f2b7a5233cd21581e855e89dc2f1e8a9260f7556f2b4f95cd46904d05d72bdcde337d9cc760f8556f2b2540fc9b4d9abba3faca669191467560f9556f2afb5229f68d0830d8be8adb0a0db70f60fa556f2ad1c7c63a9b294c5bc73a3ba3ab7a2b60fb556f2aa8a04ac3cbe1ee1c9c86361465dbb860fc556f2a7fda392d725a44a2c8aeb9ab35430d60fd556f2a57741b18cde618717792b4faa216db60fe556f2a2f6c81f5d84dd950a35626d6d5503a90607f611916565b6000808080806fd3094c70f034de4b96ff7d5b6f99fcd8861061236a576001607e1b840193506fd3094c70f034de4b96ff7d5b6f99fcd86001607f1b87028161236657fe5b0495505b6fa45af1e1f40c333b3de1db4dd55f29a786106123ad576001607d1b840193506fa45af1e1f40c333b3de1db4dd55f29a76001607f1b8702816123a957fe5b0495505b6f910b022db7ae67ce76b441c27035c6a186106123f0576001607c1b840193506f910b022db7ae67ce76b441c27035c6a16001607f1b8702816123ec57fe5b0495505b6f88415abbe9a76bead8d00cf112e4d4a88610612433576001607b1b840193506f88415abbe9a76bead8d00cf112e4d4a86001607f1b87028161242f57fe5b0495505b6f84102b00893f64c705e841d5d4064bd38610612476576001607a1b840193506f84102b00893f64c705e841d5d4064bd36001607f1b87028161247257fe5b0495505b6f8204055aaef1c8bd5c3259f4822735a286106124b957600160791b840193506f8204055aaef1c8bd5c3259f4822735a26001607f1b8702816124b557fe5b0495505b6f810100ab00222d861931c15e39b44e9986106124fc57600160781b840193506f810100ab00222d861931c15e39b44e996001607f1b8702816124f857fe5b0495505b6f808040155aabbbe9451521693554f733861061253f57600160771b840193506f808040155aabbbe9451521693554f7336001607f1b87028161253b57fe5b0495505b6f7fffffffffffffffffffffffffffffff19860192508291506001607f1b828002049050600160801b838103830204840193506001607f1b8183028161258157fe5b049150600160811b836faaaaaaaaaaaaaaaaaaaaaaaaaaaaaaaa038302816125a557fe5b04840193506001607f1b818302816125b957fe5b049150600360801b836f99999999999999999999999999999999038302816125dd57fe5b04840193506001607f1b818302816125f157fe5b049150600160821b836f924924924924924924924924924924920383028161261557fe5b04840193506001607f1b8183028161262957fe5b049150600560801b836f8e38e38e38e38e38e38e38e38e38e38e0383028161264d57fe5b04840193506001607f1b8183028161266157fe5b049150600360811b836f8ba2e8ba2e8ba2e8ba2e8ba2e8ba2e8b0383028161268557fe5b04840193506001607f1b8183028161269957fe5b049150600760801b836f89d89d89d89d89d89d89d89d89d89d89038302816126bd57fe5b04840193506001607f1b818302816126d157fe5b049150600160831b836f88888888888888888888888888888888038302816126f557fe5b049390930193505050505b919050565b600080600160801b83106127365760006127256001607f1b855b04613164565b60ff1693841c936001607f1b029150505b6001607f1b83111561278457607f5b60ff811615612782576001607f1b848002049350600160801b841061277957600193841c9360ff6000198301161b91909101905b60001901612745565b505b6f05b9de1d10bf4103d647b0955897ba806f03f80fe03f80fe03f80fe03f80fe03f88202049392505050565b6000670168244fdac780006001607f1b6f0fffffffffffffffffffffffffffffff84168080028290048082028390048083028490049485026710e1b3be415a00009092026705a0913f6b1e000091909102010192909181830204905080664807432bc1800002830192506001607f1b8282028161282957fe5b04905080660c0135dca0400002830192506001607f1b8282028161284957fe5b049050806601b707b1cdc00002830192506001607f1b8282028161286957fe5b049050806536e0f639b80002830192506001607f1b8282028161288857fe5b04905080650618fee9f80002830192506001607f1b828202816128a757fe5b04905080649c197dcc0002830192506001607f1b828202816128c557fe5b04905080640e30dce40002830192506001607f1b828202816128e357fe5b0490508064012ebd130002830192506001607f1b8282028161290157fe5b049050806317499f0002830192506001607f1b8282028161291e57fe5b049050806301a9d48002830192506001607f1b8282028161293b57fe5b04905080621c638002830192506001607f1b8282028161295757fe5b049050806201c63802830192506001607f1b8282028161297357fe5b04905080611ab802830192506001607f1b8282028161298e57fe5b0490508061017c02830192506001607f1b828202816129a957fe5b04905080601402830192506001607f1b828202816129c357fe5b6721c3677c82b400009190049384010482016001607f1b019290506001607c1b851615612a145770018ebef9eac820ae8682b9793ac6d1e7767001c3d6a24ed82218787d624d3e5eba95f984020492505b6001607d1b851615612a4a577001368b2fc6f9609fe7aceb46aa619baed470018ebef9eac820ae8682b9793ac6d1e77884020492505b6001607e1b851615612a7f576fbc5ab1b16779be3575bd8f0520a9f21f7001368b2fc6f9609fe7aceb46aa619baed584020492505b6001607f1b851615612ab3576f454aaa8efe072e7f6ddbab84b40a55c96fbc5ab1b16779be3575bd8f0520a9f21e84020492505b600160801b851615612ae7576f0960aadc109e7a3bf4578099615711ea6f454aaa8efe072e7f6ddbab84b40a55c584020492505b600160811b851615612b1a576e2bf84208204f5977f9a8cf01fdce3d6f0960aadc109e7a3bf4578099615711d784020492505b600160821b851615612b4b576d03c6ab775dd0b95b4cbee7e65d116e2bf84208204f5977f9a8cf01fdc30784020492505b50909392505050565b60006020607f5b8060ff168260010160ff161015612ba3576000600260ff848401160490508460008260ff1660808110612b8a57fe5b015410612b9957809250612b9d565b8091505b50612b5b565b8360008260ff1660808110612bb457fe5b015410612bc45791506127009050565b8360008360ff1660808110612bd557fe5b01541061011657509050612700565b60008083905060008360ff16858302901c9150816f03442c4e6074a82f1797f72ac000000002810190508360ff16858302901c9150816f0116b96f757c380fb287fd0e4000000002810190508360ff16858302901c9150816e45ae5bdd5f0e03eca1ff439000000002810190508360ff16858302901c9150816e0defabf91302cd95b9ffda5000000002810190508360ff16858302901c9150816e02529ca9832b22439efff9b800000002810190508360ff16858302901c9150816d54f1cf12bd04e516b6da8800000002810190508360ff16858302901c9150816d0a9e39e257a09ca2d6db5100000002810190508360ff16858302901c9150816d012e066e7b839fa050c30900000002810190508360ff16858302901c9150816c1e33d7d926c329a1ad1a80000002810190508360ff16858302901c9150816c02bee513bdb4a6b19b5f80000002810190508360ff16858302901c9150816b3a9316fa79b88eccf2a0000002810190508360ff16858302901c9150816b048177ebe1fa81237520000002810190508360ff16858302901c9150816a5263fe90242dcbacf0000002810190508360ff16858302901c9150816a057e22099c030d9410000002810190508360ff16858302901c9150816957e22099c030d941000002810190508360ff16858302901c91508169052b6b5456997631000002810190508360ff16858302901c915081684985f67696bf74800002810190508360ff16858302901c9150816803dea12ea99e49800002810190508360ff16858302901c9150816731880f2214b6e00002810190508360ff16858302901c91508167025bcff56eb3600002810190508360ff16858302901c915081661b722e10ab100002810190508360ff16858302901c9150816601317c7007700002810190508360ff16858302901c915081650cba84aafa0002810190508360ff16858302901c9150816482573a0a0002810190508360ff16858302901c9150816405035ad90002810190508360ff16858302901c915081632f881b0002810190508360ff16858302901c9150816301b2934002810190508360ff16858302901c915081620efc4002810190508360ff16858302901c915081617fe002810190508360ff16858302901c91508161042002810190508360ff16858302901c915081602102810190508360ff16858302901c915081600102810190508360ff166001901b856f0688589cc0e9505e2f2fee55800000008381612f7257fe5b04010195945050505050565b600080600160801b8411158015612f995750600160801b8311155b15612fa857508290508161113d565b600160801b841015612fd25782600160801b850281612fc357fe5b04600160801b9150915061113d565b600160801b831015612ffc57600160801b84600160801b850281612ff257fe5b049150915061113d565b600083851161300b578361300d565b845b9050600061301f6001607f1b8361271f565b60ff1695861c969490951c9450505050565b60006f2f16ac6c59de6f8d5d6f63c1482a7c86821161305a57613053826131c5565b9050612700565b81600160fe1b8161306757fe5b0492915050565b60006f2f16ac6c59de6f8d5d6f63c1482a7c8682116130905761305382613607565b7001af16ac6c59de6f8d5d6f63c1482a7c8082116130b15761305382613a67565b706b22d43e72c326539cceeef8bb48f255ff82116101165761305382613ae7565b6000807d10c6f7a0b5ed8d36b4c7f34938583621fafc8b0079a2834d26fa3fcc9ea98411156131395760017d10c6f7a0b5ed8d36b4c7f34938583621fafc8b0079a2834d26fa3fcc9eaa85040180858161312857fe5b04945080848161313457fe5b049350505b6000613153620f4240860261314e8787610f28565b613b70565b95620f424087900395509350505050565b60008061010083101561318c575b600183111561318757600192831c9201613172565b610f22565b60805b60ff8116156131be57600160ff82161b84106131b35760ff81169390931c92908117905b60011c607f1661318f565b5092915050565b600081816001607f1b82800204915070014d29a73a6e7b02c3668c7b08800000008202016001607f1b8483020491507002504a0cd9a7f7215b60f9be48000000008202016001607f1b848302049150700484d0a1191c0ead267967c7a4a00000008202016001607f1b84830204915070095ec580d7e8427a4baf26a90a000000008202016001607f1b848302049150701440b0be1615a47dba6e5b3b1f100000008202016001607f1b848302049150702d207601f46a99b41124184000000000008202016001607f1b8483020491507066ebaac4c37c622dd8288a7eb1b20000008202016001607f1b84830204915070ef17240135f7dbd43a1ba10cf2000000008202016001607f1b848302049150710233c33c676a5eb2416094a87b36570000008202016001607f1b848302049150710541cde48bc0254bed49a9f87000000000008202016001607f1b848302049150710cae1fad2cdd4d4cb8d73abca0d19a4000008202016001607f1b848302049150711edb2aa2f760d15c41ceedba9564000000008202016001607f1b848302049150714ba8d20d2dabd386c9529659841a2e2000008202016001607f1b8483020491506805d6042a35c33e6d51604d1b8202016001607f1b8483020491507201cfa8e70c03625b9db76c8ebf5bbf248200008202016001607f1b8483020491507204851d99f82060df265f3309b26f82000000008202016001607f1b848302049150720b550d19b129d270c44f6f55f027723cbb00008202016001607f1b848302049150721c877dadc761dc272deb65d4b00000000000008202016001607f1b8483020491507248178ece97479f33a77f2ad22a81b64406c0008202016001607f1b84830204915072b6ca8268b9d810fedf6695ef2f8a6c000000008202016001607f1b8483020491507301d0e76631a5b05d007b8cb72a7c7f11ec36e0008202016001607f1b84830204915069094386f7b3f0bfb38d8f604f1b8202016001607f1b848302049150730bd8369f1b702bf491e2ebfcee08250313b654008202016001607f1b848302049150731e5c7c32a9f6c70ab2cb59d9225764d4000000008202016001607f1b848302049150734dff5820e165e910f95120a708e742496221e6008202016001607f1b8483020491506c064647b36d8fe769bc7728729b603d1b8202016001607f1b848302049150740205db8dffff45bfa2938f128f599dbf16eb11d8808202016001607f1b84830204915074053a044ebd984351493e1786af38d39a08000000008202016001607f1b848302049150740d86dae2a4cc0f47633a544479735869b487b59c408202016001607f1b848302049150610231609c1b8202016001607f1b848302049150745b0485a76f6646c2039db1507cdd51b086496808228202016001607f1b84830204915074ec983c46c49545bc17efa6b5b0055e2422000000008202016001607f1b846fde1bc4d19efcac82445da75b0000000083040101949350505050565b6000816001607f1b8181036fde1bc4d19efcac82445da75b00000000029082800204915070014d29a73a6e7b02c3668c7b08800000008202016001607f1b8483020491507002504a0cd9a7f7215b60f9be4800000000820290036001607f1b848302049150700484d0a1191c0ead267967c7a4a00000008202016001607f1b84830204915070095ec580d7e8427a4baf26a90a00000000820290036001607f1b848302049150701440b0be1615a47dba6e5b3b1f100000008202016001607f1b848302049150702d207601f46a99b4112418400000000000820290036001607f1b8483020491507066ebaac4c37c622dd8288a7eb1b20000008202016001607f1b84830204915070ef17240135f7dbd43a1ba10cf200000000820290036001607f1b848302049150710233c33c676a5eb2416094a87b36570000008202016001607f1b848302049150710541cde48bc0254bed49a9f8700000000000820290036001607f1b848302049150710cae1fad2cdd4d4cb8d73abca0d19a4000008202016001607f1b848302049150711edb2aa2f760d15c41ceedba956400000000820290036001607f1b848302049150714ba8d20d2dabd386c9529659841a2e2000008202016001607f1b8483020491506805d6042a35c33e6d51604d1b820290036001607f1b8483020491507201cfa8e70c03625b9db76c8ebf5bbf248200008202016001607f1b8483020491507204851d99f82060df265f3309b26f8200000000820290036001607f1b848302049150720b550d19b129d270c44f6f55f027723cbb00008202016001607f1b848302049150721c877dadc761dc272deb65d4b0000000000000820290036001607f1b8483020491507248178ece97479f33a77f2ad22a81b64406c0008202016001607f1b84830204915072b6ca8268b9d810fedf6695ef2f8a6c00000000820290036001607f1b8483020491507301d0e76631a5b05d007b8cb72a7c7f11ec36e0008202016001607f1b84830204915069094386f7b3f0bfb38d8f604f1b820290036001607f1b848302049150730bd8369f1b702bf491e2ebfcee08250313b654008202016001607f1b848302049150731e5c7c32a9f6c70ab2cb59d9225764d400000000820290036001607f1b848302049150734dff5820e165e910f95120a708e742496221e6008202016001607f1b8483020491506c064647b36d8fe769bc7728729b603d1b820290036001607f1b848302049150740205db8dffff45bfa2938f128f599dbf16eb11d8808202016001607f1b84830204915074053a044ebd984351493e1786af38d39a0800000000820290036001607f1b848302049150740d86dae2a4cc0f47633a544479735869b487b59c408202016001607f1b848302049150610231609c1b820290036001607f1b848302049150745b0485a76f6646c2039db1507cdd51b086496808228202016001607f1b84830204915074ec983c46c49545bc17efa6b5b0055e242200000000820290036fde1bc4d19efcac82445da75b00000000815b04949350505050565b60006f2f16ac6c59de6f8d5d6f63c1482a7c861982016f03060c183060c183060c183060c183068082049081810290600183010284608084818110613aa857fe5b01549050600060808560010160808110613abe57fe5b01546f03060c183060c183060c183060c183069487030295909203029390930104949350505050565b60008070015bf0a8b1457695355fb8ac404e7a79e38310613b1057613b0b83612705565b613b19565b613b1983612321565b9050600070015bf0a8b1457695355fb8ac404e7a79e38210613b4357613b3e82612705565b613b4c565b613b4c82612321565b9050836001607f1b836001607f1b840281613b6357fe5b04838503010281613a5e57fe5b6000600282048203828481613b8157fe5b0681613b8957fe5b04828481613b9357fe5b0401939250505056fe4552525f494e56414c49445f524553455256455f42414c414e43450000000000a26469706673582212204997c89308a029ba1af2d0a3b3e1ac01b153544c2ea2e68be373e5d7b39dbad564736f6c634300060c0033",
			"opcodes": "PUSH1 0x80 PUSH1 0x40 MSTORE CALLVALUE DUP1 ISZERO PUSH2 0x10 JUMPI PUSH1 0x0 DUP1 REVERT JUMPDEST POP PUSH2 0x3BF2 DUP1 PUSH2 0x20 PUSH1 0x0 CODECOPY PUSH1 0x0 RETURN INVALID PUSH1 0x80 PUSH1 0x40 MSTORE CALLVALUE DUP1 ISZERO PUSH2 0x10 JUMPI PUSH1 0x0 DUP1 REVERT JUMPDEST POP PUSH1 0x4 CALLDATASIZE LT PUSH2 0x116 JUMPI PUSH1 0x0 CALLDATALOAD PUSH1 0xE0 SHR DUP1 PUSH4 0x8074590A GT PUSH2 0xA2 JUMPI DUP1 PUSH4 0xABFD231D GT PUSH2 0x71 JUMPI DUP1 PUSH4 0xABFD231D EQ PUSH2 0x1CC JUMPI DUP1 PUSH4 0xE1C7392A EQ PUSH2 0x378 JUMPI DUP1 PUSH4 0xEBBB2158 EQ PUSH2 0x382 JUMPI DUP1 PUSH4 0xF3250FE2 EQ PUSH2 0x3B7 JUMPI DUP1 PUSH4 0xF732F1C9 EQ PUSH2 0x201 JUMPI PUSH2 0x116 JUMP JUMPDEST DUP1 PUSH4 0x8074590A EQ PUSH2 0x2A8 JUMPI DUP1 PUSH4 0x94491FAB EQ PUSH2 0x2DD JUMPI DUP1 PUSH4 0x9D114108 EQ PUSH2 0x236 JUMPI DUP1 PUSH4 0xA11AA1B4 EQ PUSH2 0x31A JUMPI PUSH2 0x116 JUMP JUMPDEST DUP1 PUSH4 0x48D73FED GT PUSH2 0xE9 JUMPI DUP1 PUSH4 0x48D73FED EQ PUSH2 0x162 JUMPI DUP1 PUSH4 0x49F9B0F7 EQ PUSH2 0x201 JUMPI DUP1 PUSH4 0x65098BB3 EQ PUSH2 0x236 JUMPI DUP1 PUSH4 0x76CF0B56 EQ PUSH2 0x273 JUMPI DUP1 PUSH4 0x79C1B450 EQ PUSH2 0x236 JUMPI PUSH2 0x116 JUMP JUMPDEST DUP1 PUSH4 0x1DA6BBFB EQ PUSH2 0x11B JUMPI DUP1 PUSH4 0x29A00E7C EQ PUSH2 0x162 JUMPI DUP1 PUSH4 0x2F55BDB5 EQ PUSH2 0x197 JUMPI DUP1 PUSH4 0x35B49AF4 EQ PUSH2 0x1CC JUMPI JUMPDEST PUSH1 0x0 DUP1 REVERT JUMPDEST PUSH2 0x150 PUSH1 0x4 DUP1 CALLDATASIZE SUB PUSH1 0x80 DUP2 LT ISZERO PUSH2 0x131 JUMPI PUSH1 0x0 DUP1 REVERT JUMPDEST POP DUP1 CALLDATALOAD SWAP1 PUSH1 0x20 DUP2 ADD CALLDATALOAD SWAP1 PUSH4 0xFFFFFFFF PUSH1 0x40 DUP3 ADD CALLDATALOAD AND SWAP1 PUSH1 0x60 ADD CALLDATALOAD PUSH2 0x3EC JUMP JUMPDEST PUSH1 0x40 DUP1 MLOAD SWAP2 DUP3 MSTORE MLOAD SWAP1 DUP2 SWAP1 SUB PUSH1 0x20 ADD SWAP1 RETURN JUMPDEST PUSH2 0x150 PUSH1 0x4 DUP1 CALLDATASIZE SUB PUSH1 0x80 DUP2 LT ISZERO PUSH2 0x178 JUMPI PUSH1 0x0 DUP1 REVERT JUMPDEST POP DUP1 CALLDATALOAD SWAP1 PUSH1 0x20 DUP2 ADD CALLDATALOAD SWAP1 PUSH4 0xFFFFFFFF PUSH1 0x40 DUP3 ADD CALLDATALOAD AND SWAP1 PUSH1 0x60 ADD CALLDATALOAD PUSH2 0x405 JUMP JUMPDEST PUSH2 0x150 PUSH1 0x4 DUP1 CALLDATASIZE SUB PUSH1 0x80 DUP2 LT ISZERO PUSH2 0x1AD JUMPI PUSH1 0x0 DUP1 REVERT JUMPDEST POP DUP1 CALLDATALOAD SWAP1 PUSH1 0x20 DUP2 ADD CALLDATALOAD SWAP1 PUSH4 0xFFFFFFFF PUSH1 0x40 DUP3 ADD CALLDATALOAD AND SWAP1 PUSH1 0x60 ADD CALLDATALOAD PUSH2 0x413 JUMP JUMPDEST PUSH2 0x150 PUSH1 0x4 DUP1 CALLDATASIZE SUB PUSH1 0x80 DUP2 LT ISZERO PUSH2 0x1E2 JUMPI PUSH1 0x0 DUP1 REVERT JUMPDEST POP DUP1 CALLDATALOAD SWAP1 PUSH1 0x20 DUP2 ADD CALLDATALOAD SWAP1 PUSH4 0xFFFFFFFF PUSH1 0x40 DUP3 ADD CALLDATALOAD AND SWAP1 PUSH1 0x60 ADD CALLDATALOAD PUSH2 0x58B JUMP JUMPDEST PUSH2 0x150 PUSH1 0x4 DUP1 CALLDATASIZE SUB PUSH1 0x80 DUP2 LT ISZERO PUSH2 0x217 JUMPI PUSH1 0x0 DUP1 REVERT JUMPDEST POP DUP1 CALLDATALOAD SWAP1 PUSH1 0x20 DUP2 ADD CALLDATALOAD SWAP1 PUSH4 0xFFFFFFFF PUSH1 0x40 DUP3 ADD CALLDATALOAD AND SWAP1 PUSH1 0x60 ADD CALLDATALOAD PUSH2 0x599 JUMP JUMPDEST PUSH2 0x150 PUSH1 0x4 DUP1 CALLDATASIZE SUB PUSH1 0xA0 DUP2 LT ISZERO PUSH2 0x24C JUMPI PUSH1 0x0 DUP1 REVERT JUMPDEST POP DUP1 CALLDATALOAD SWAP1 PUSH4 0xFFFFFFFF PUSH1 0x20 DUP3 ADD CALLDATALOAD DUP2 AND SWAP2 PUSH1 0x40 DUP2 ADD CALLDATALOAD SWAP2 PUSH1 0x60 DUP3 ADD CALLDATALOAD AND SWAP1 PUSH1 0x80 ADD CALLDATALOAD PUSH2 0x5A7 JUMP JUMPDEST PUSH2 0x150 PUSH1 0x4 DUP1 CALLDATASIZE SUB PUSH1 0x80 DUP2 LT ISZERO PUSH2 0x289 JUMPI PUSH1 0x0 DUP1 REVERT JUMPDEST POP DUP1 CALLDATALOAD SWAP1 PUSH1 0x20 DUP2 ADD CALLDATALOAD SWAP1 PUSH4 0xFFFFFFFF PUSH1 0x40 DUP3 ADD CALLDATALOAD AND SWAP1 PUSH1 0x60 ADD CALLDATALOAD PUSH2 0x5C2 JUMP JUMPDEST PUSH2 0x150 PUSH1 0x4 DUP1 CALLDATASIZE SUB PUSH1 0x80 DUP2 LT ISZERO PUSH2 0x2BE JUMPI PUSH1 0x0 DUP1 REVERT JUMPDEST POP DUP1 CALLDATALOAD SWAP1 PUSH1 0x20 DUP2 ADD CALLDATALOAD SWAP1 PUSH4 0xFFFFFFFF PUSH1 0x40 DUP3 ADD CALLDATALOAD AND SWAP1 PUSH1 0x60 ADD CALLDATALOAD PUSH2 0x788 JUMP JUMPDEST PUSH2 0x150 PUSH1 0x4 DUP1 CALLDATASIZE SUB PUSH1 0xA0 DUP2 LT ISZERO PUSH2 0x2F3 JUMPI PUSH1 0x0 DUP1 REVERT JUMPDEST POP DUP1 CALLDATALOAD SWAP1 PUSH4 0xFFFFFFFF PUSH1 0x20 DUP3 ADD CALLDATALOAD DUP2 AND SWAP2 PUSH1 0x40 DUP2 ADD CALLDATALOAD SWAP2 PUSH1 0x60 DUP3 ADD CALLDATALOAD AND SWAP1 PUSH1 0x80 ADD CALLDATALOAD PUSH2 0x904 JUMP JUMPDEST PUSH2 0x34F PUSH1 0x4 DUP1 CALLDATASIZE SUB PUSH1 0xA0 DUP2 LT ISZERO PUSH2 0x330 JUMPI PUSH1 0x0 DUP1 REVERT JUMPDEST POP DUP1 CALLDATALOAD SWAP1 PUSH1 0x20 DUP2 ADD CALLDATALOAD SWAP1 PUSH1 0x40 DUP2 ADD CALLDATALOAD SWAP1 PUSH1 0x60 DUP2 ADD CALLDATALOAD SWAP1 PUSH1 0x80 ADD CALLDATALOAD PUSH2 0xA70 JUMP JUMPDEST PUSH1 0x40 MLOAD DUP1 DUP4 PUSH4 0xFFFFFFFF AND DUP2 MSTORE PUSH1 0x20 ADD DUP3 PUSH4 0xFFFFFFFF AND DUP2 MSTORE PUSH1 0x20 ADD SWAP3 POP POP POP PUSH1 0x40 MLOAD DUP1 SWAP2 SUB SWAP1 RETURN JUMPDEST PUSH2 0x380 PUSH2 0xBF8 JUMP JUMPDEST STOP JUMPDEST PUSH2 0x150 PUSH1 0x4 DUP1 CALLDATASIZE SUB PUSH1 0x80 DUP2 LT ISZERO PUSH2 0x398 JUMPI PUSH1 0x0 DUP1 REVERT JUMPDEST POP DUP1 CALLDATALOAD SWAP1 PUSH1 0x20 DUP2 ADD CALLDATALOAD SWAP1 PUSH4 0xFFFFFFFF PUSH1 0x40 DUP3 ADD CALLDATALOAD AND SWAP1 PUSH1 0x60 ADD CALLDATALOAD PUSH2 0xC0A JUMP JUMPDEST PUSH2 0x150 PUSH1 0x4 DUP1 CALLDATASIZE SUB PUSH1 0x80 DUP2 LT ISZERO PUSH2 0x3CD JUMPI PUSH1 0x0 DUP1 REVERT JUMPDEST POP DUP1 CALLDATALOAD SWAP1 PUSH1 0x20 DUP2 ADD CALLDATALOAD SWAP1 PUSH4 0xFFFFFFFF PUSH1 0x40 DUP3 ADD CALLDATALOAD AND SWAP1 PUSH1 0x60 ADD CALLDATALOAD PUSH2 0xD8F JUMP JUMPDEST PUSH1 0x0 PUSH2 0x3FA DUP6 DUP6 DUP6 DUP6 PUSH2 0xC0A JUMP JUMPDEST SWAP1 POP JUMPDEST SWAP5 SWAP4 POP POP POP POP JUMP JUMPDEST PUSH1 0x0 PUSH2 0x3FA DUP6 DUP6 DUP6 DUP6 PUSH2 0xD8F JUMP JUMPDEST PUSH1 0x0 DUP1 DUP6 GT PUSH2 0x45E JUMPI PUSH1 0x40 DUP1 MLOAD PUSH3 0x461BCD PUSH1 0xE5 SHL DUP2 MSTORE PUSH1 0x20 PUSH1 0x4 DUP3 ADD MSTORE PUSH1 0x12 PUSH1 0x24 DUP3 ADD MSTORE PUSH18 0x4552525F494E56414C49445F535550504C59 PUSH1 0x70 SHL PUSH1 0x44 DUP3 ADD MSTORE SWAP1 MLOAD SWAP1 DUP2 SWAP1 SUB PUSH1 0x64 ADD SWAP1 REVERT JUMPDEST PUSH1 0x0 DUP5 GT PUSH2 0x4A1 JUMPI PUSH1 0x40 DUP1 MLOAD PUSH3 0x461BCD PUSH1 0xE5 SHL DUP2 MSTORE PUSH1 0x20 PUSH1 0x4 DUP3 ADD MSTORE PUSH1 0x1B PUSH1 0x24 DUP3 ADD MSTORE PUSH1 0x0 DUP1 MLOAD PUSH1 0x20 PUSH2 0x3B9D DUP4 CODECOPY DUP2 MLOAD SWAP2 MSTORE PUSH1 0x44 DUP3 ADD MSTORE SWAP1 MLOAD SWAP1 DUP2 SWAP1 SUB PUSH1 0x64 ADD SWAP1 REVERT JUMPDEST PUSH1 0x1 DUP4 PUSH4 0xFFFFFFFF AND GT DUP1 ISZERO PUSH2 0x4C0 JUMPI POP PUSH3 0x1E8480 PUSH4 0xFFFFFFFF DUP5 AND GT ISZERO JUMPDEST PUSH2 0x50D JUMPI PUSH1 0x40 DUP1 MLOAD PUSH3 0x461BCD PUSH1 0xE5 SHL DUP2 MSTORE PUSH1 0x20 PUSH1 0x4 DUP3 ADD MSTORE PUSH1 0x19 PUSH1 0x24 DUP3 ADD MSTORE PUSH25 0x4552525F494E56414C49445F524553455256455F524154494F PUSH1 0x38 SHL PUSH1 0x44 DUP3 ADD MSTORE SWAP1 MLOAD SWAP1 DUP2 SWAP1 SUB PUSH1 0x64 ADD SWAP1 REVERT JUMPDEST DUP2 PUSH2 0x51A JUMPI POP PUSH1 0x0 PUSH2 0x3FD JUMP JUMPDEST PUSH4 0xFFFFFFFF DUP4 AND PUSH3 0xF4240 EQ ISZERO PUSH2 0x545 JUMPI DUP4 PUSH2 0x536 DUP4 DUP8 PUSH2 0xEC1 JUMP JUMPDEST DUP2 PUSH2 0x53D JUMPI INVALID JUMPDEST DIV SWAP1 POP PUSH2 0x3FD JUMP JUMPDEST PUSH1 0x0 DUP1 DUP1 PUSH2 0x553 DUP8 DUP7 PUSH2 0xF28 JUMP JUMPDEST SWAP1 POP PUSH2 0x564 DUP2 DUP9 DUP9 PUSH3 0xF4240 PUSH2 0xF71 JUMP JUMPDEST SWAP1 SWAP4 POP SWAP2 POP PUSH1 0x0 PUSH1 0xFF DUP4 AND PUSH2 0x579 DUP11 DUP7 PUSH2 0xEC1 JUMP JUMPDEST SWAP1 SHR SWAP9 SWAP1 SWAP9 SUB SWAP9 SWAP8 POP POP POP POP POP POP POP POP JUMP JUMPDEST PUSH1 0x0 PUSH2 0x3FA DUP6 DUP6 DUP6 DUP6 PUSH2 0x788 JUMP JUMPDEST PUSH1 0x0 PUSH2 0x3FA DUP6 DUP6 DUP6 DUP6 PUSH2 0x5C2 JUMP JUMPDEST PUSH1 0x0 PUSH2 0x5B6 DUP7 DUP7 DUP7 DUP7 DUP7 PUSH2 0x904 JUMP JUMPDEST SWAP1 POP JUMPDEST SWAP6 SWAP5 POP POP POP POP POP JUMP JUMPDEST PUSH1 0x0 DUP1 DUP6 GT PUSH2 0x60D JUMPI PUSH1 0x40 DUP1 MLOAD PUSH3 0x461BCD PUSH1 0xE5 SHL DUP2 MSTORE PUSH1 0x20 PUSH1 0x4 DUP3 ADD MSTORE PUSH1 0x12 PUSH1 0x24 DUP3 ADD MSTORE PUSH18 0x4552525F494E56414C49445F535550504C59 PUSH1 0x70 SHL PUSH1 0x44 DUP3 ADD MSTORE SWAP1 MLOAD SWAP1 DUP2 SWAP1 SUB PUSH1 0x64 ADD SWAP1 REVERT JUMPDEST PUSH1 0x0 DUP5 GT PUSH2 0x650 JUMPI PUSH1 0x40 DUP1 MLOAD PUSH3 0x461BCD PUSH1 0xE5 SHL DUP2 MSTORE PUSH1 0x20 PUSH1 0x4 DUP3 ADD MSTORE PUSH1 0x1B PUSH1 0x24 DUP3 ADD MSTORE PUSH1 0x0 DUP1 MLOAD PUSH1 0x20 PUSH2 0x3B9D DUP4 CODECOPY DUP2 MLOAD SWAP2 MSTORE PUSH1 0x44 DUP3 ADD MSTORE SWAP1 MLOAD SWAP1 DUP2 SWAP1 SUB PUSH1 0x64 ADD SWAP1 REVERT JUMPDEST PUSH1 0x0 DUP4 PUSH4 0xFFFFFFFF AND GT DUP1 ISZERO PUSH2 0x66F JUMPI POP PUSH3 0xF4240 PUSH4 0xFFFFFFFF DUP5 AND GT ISZERO JUMPDEST PUSH2 0x6BD JUMPI PUSH1 0x40 DUP1 MLOAD PUSH3 0x461BCD PUSH1 0xE5 SHL DUP2 MSTORE PUSH1 0x20 PUSH1 0x4 DUP3 ADD MSTORE PUSH1 0x1A PUSH1 0x24 DUP3 ADD MSTORE PUSH26 0x11549497D253959053125117D49154D154959157D5D15251D215 PUSH1 0x32 SHL PUSH1 0x44 DUP3 ADD MSTORE SWAP1 MLOAD SWAP1 DUP2 SWAP1 SUB PUSH1 0x64 ADD SWAP1 REVERT JUMPDEST DUP5 DUP3 GT ISZERO PUSH2 0x707 JUMPI PUSH1 0x40 DUP1 MLOAD PUSH3 0x461BCD PUSH1 0xE5 SHL DUP2 MSTORE PUSH1 0x20 PUSH1 0x4 DUP3 ADD MSTORE PUSH1 0x12 PUSH1 0x24 DUP3 ADD MSTORE PUSH18 0x11549497D253959053125117D05353D55395 PUSH1 0x72 SHL PUSH1 0x44 DUP3 ADD MSTORE SWAP1 MLOAD SWAP1 DUP2 SWAP1 SUB PUSH1 0x64 ADD SWAP1 REVERT JUMPDEST DUP2 PUSH2 0x714 JUMPI POP PUSH1 0x0 PUSH2 0x3FD JUMP JUMPDEST DUP5 DUP3 EQ ISZERO PUSH2 0x723 JUMPI POP DUP3 PUSH2 0x3FD JUMP JUMPDEST PUSH4 0xFFFFFFFF DUP4 AND PUSH3 0xF4240 EQ ISZERO PUSH2 0x73F JUMPI DUP5 PUSH2 0x536 DUP6 DUP5 PUSH2 0xEC1 JUMP JUMPDEST PUSH1 0x0 DUP1 DUP4 DUP8 SUB PUSH2 0x754 DUP9 DUP3 PUSH3 0xF4240 DUP10 PUSH2 0xF71 JUMP JUMPDEST SWAP1 SWAP4 POP SWAP2 POP PUSH1 0x0 PUSH2 0x765 DUP9 DUP6 PUSH2 0xEC1 JUMP JUMPDEST SWAP1 POP PUSH1 0xFF DUP4 AND DUP9 SWAP1 SHL DUP5 DUP2 DUP4 SUB DUP2 PUSH2 0x779 JUMPI INVALID JUMPDEST DIV SWAP11 SWAP10 POP POP POP POP POP POP POP POP POP POP JUMP JUMPDEST PUSH1 0x0 DUP1 DUP6 GT PUSH2 0x7D3 JUMPI PUSH1 0x40 DUP1 MLOAD PUSH3 0x461BCD PUSH1 0xE5 SHL DUP2 MSTORE PUSH1 0x20 PUSH1 0x4 DUP3 ADD MSTORE PUSH1 0x12 PUSH1 0x24 DUP3 ADD MSTORE PUSH18 0x4552525F494E56414C49445F535550504C59 PUSH1 0x70 SHL PUSH1 0x44 DUP3 ADD MSTORE SWAP1 MLOAD SWAP1 DUP2 SWAP1 SUB PUSH1 0x64 ADD SWAP1 REVERT JUMPDEST PUSH1 0x0 DUP5 GT PUSH2 0x816 JUMPI PUSH1 0x40 DUP1 MLOAD PUSH3 0x461BCD PUSH1 0xE5 SHL DUP2 MSTORE PUSH1 0x20 PUSH1 0x4 DUP3 ADD MSTORE PUSH1 0x1B PUSH1 0x24 DUP3 ADD MSTORE PUSH1 0x0 DUP1 MLOAD PUSH1 0x20 PUSH2 0x3B9D DUP4 CODECOPY DUP2 MLOAD SWAP2 MSTORE PUSH1 0x44 DUP3 ADD MSTORE SWAP1 MLOAD SWAP1 DUP2 SWAP1 SUB PUSH1 0x64 ADD SWAP1 REVERT JUMPDEST PUSH1 0x1 DUP4 PUSH4 0xFFFFFFFF AND GT DUP1 ISZERO PUSH2 0x835 JUMPI POP PUSH3 0x1E8480 PUSH4 0xFFFFFFFF DUP5 AND GT ISZERO JUMPDEST PUSH2 0x882 JUMPI PUSH1 0x40 DUP1 MLOAD PUSH3 0x461BCD PUSH1 0xE5 SHL DUP2 MSTORE PUSH1 0x20 PUSH1 0x4 DUP3 ADD MSTORE PUSH1 0x19 PUSH1 0x24 DUP3 ADD MSTORE PUSH25 0x4552525F494E56414C49445F524553455256455F524154494F PUSH1 0x38 SHL PUSH1 0x44 DUP3 ADD MSTORE SWAP1 MLOAD SWAP1 DUP2 SWAP1 SUB PUSH1 0x64 ADD SWAP1 REVERT JUMPDEST DUP5 DUP3 GT ISZERO PUSH2 0x8CC JUMPI PUSH1 0x40 DUP1 MLOAD PUSH3 0x461BCD PUSH1 0xE5 SHL DUP2 MSTORE PUSH1 0x20 PUSH1 0x4 DUP3 ADD MSTORE PUSH1 0x12 PUSH1 0x24 DUP3 ADD MSTORE PUSH18 0x11549497D253959053125117D05353D55395 PUSH1 0x72 SHL PUSH1 0x44 DUP3 ADD MSTORE SWAP1 MLOAD SWAP1 DUP2 SWAP1 SUB PUSH1 0x64 ADD SWAP1 REVERT JUMPDEST DUP2 PUSH2 0x8D9 JUMPI POP PUSH1 0x0 PUSH2 0x3FD JUMP JUMPDEST DUP5 DUP3 EQ ISZERO PUSH2 0x8E8 JUMPI POP DUP3 PUSH2 0x3FD JUMP JUMPDEST PUSH4 0xFFFFFFFF DUP4 AND PUSH3 0xF4240 EQ ISZERO PUSH2 0x73F JUMPI DUP5 PUSH2 0x536 DUP4 DUP7 PUSH2 0xEC1 JUMP JUMPDEST PUSH1 0x0 DUP1 DUP7 GT DUP1 ISZERO PUSH2 0x915 JUMPI POP PUSH1 0x0 DUP5 GT JUMPDEST PUSH2 0x954 JUMPI PUSH1 0x40 DUP1 MLOAD PUSH3 0x461BCD PUSH1 0xE5 SHL DUP2 MSTORE PUSH1 0x20 PUSH1 0x4 DUP3 ADD MSTORE PUSH1 0x1B PUSH1 0x24 DUP3 ADD MSTORE PUSH1 0x0 DUP1 MLOAD PUSH1 0x20 PUSH2 0x3B9D DUP4 CODECOPY DUP2 MLOAD SWAP2 MSTORE PUSH1 0x44 DUP3 ADD MSTORE SWAP1 MLOAD SWAP1 DUP2 SWAP1 SUB PUSH1 0x64 ADD SWAP1 REVERT JUMPDEST PUSH1 0x0 DUP6 PUSH4 0xFFFFFFFF AND GT DUP1 ISZERO PUSH2 0x973 JUMPI POP PUSH3 0xF4240 PUSH4 0xFFFFFFFF DUP7 AND GT ISZERO JUMPDEST DUP1 ISZERO PUSH2 0x985 JUMPI POP PUSH1 0x0 DUP4 PUSH4 0xFFFFFFFF AND GT JUMPDEST DUP1 ISZERO PUSH2 0x99A JUMPI POP PUSH3 0xF4240 PUSH4 0xFFFFFFFF DUP5 AND GT ISZERO JUMPDEST PUSH2 0x9E8 JUMPI PUSH1 0x40 DUP1 MLOAD PUSH3 0x461BCD PUSH1 0xE5 SHL DUP2 MSTORE PUSH1 0x20 PUSH1 0x4 DUP3 ADD MSTORE PUSH1 0x1A PUSH1 0x24 DUP3 ADD MSTORE PUSH26 0x11549497D253959053125117D49154D154959157D5D15251D215 PUSH1 0x32 SHL PUSH1 0x44 DUP3 ADD MSTORE SWAP1 MLOAD SWAP1 DUP2 SWAP1 SUB PUSH1 0x64 ADD SWAP1 REVERT JUMPDEST DUP3 PUSH4 0xFFFFFFFF AND DUP6 PUSH4 0xFFFFFFFF AND EQ ISZERO PUSH2 0xA1F JUMPI PUSH2 0xA06 DUP7 DUP4 PUSH2 0xF28 JUMP JUMPDEST PUSH2 0xA10 DUP6 DUP5 PUSH2 0xEC1 JUMP JUMPDEST DUP2 PUSH2 0xA17 JUMPI INVALID JUMPDEST DIV SWAP1 POP PUSH2 0x5B9 JUMP JUMPDEST PUSH1 0x0 DUP1 DUP1 PUSH2 0xA2D DUP10 DUP7 PUSH2 0xF28 JUMP JUMPDEST SWAP1 POP PUSH2 0xA3B DUP2 DUP11 DUP11 DUP10 PUSH2 0xF71 JUMP JUMPDEST SWAP1 SWAP4 POP SWAP2 POP PUSH1 0x0 PUSH2 0xA4C DUP9 DUP6 PUSH2 0xEC1 JUMP JUMPDEST SWAP1 POP PUSH1 0xFF DUP4 AND DUP9 SWAP1 SHL DUP5 DUP2 DUP4 SUB DUP2 PUSH2 0xA60 JUMPI INVALID JUMPDEST DIV SWAP12 SWAP11 POP POP POP POP POP POP POP POP POP POP POP JUMP JUMPDEST PUSH1 0x0 DUP1 DUP6 DUP8 EQ ISZERO PUSH2 0xACE JUMPI PUSH1 0x0 DUP8 GT DUP1 PUSH2 0xA8A JUMPI POP PUSH1 0x0 DUP6 GT JUMPDEST PUSH2 0xAC9 JUMPI PUSH1 0x40 DUP1 MLOAD PUSH3 0x461BCD PUSH1 0xE5 SHL DUP2 MSTORE PUSH1 0x20 PUSH1 0x4 DUP3 ADD MSTORE PUSH1 0x1B PUSH1 0x24 DUP3 ADD MSTORE PUSH1 0x0 DUP1 MLOAD PUSH1 0x20 PUSH2 0x3B9D DUP4 CODECOPY DUP2 MLOAD SWAP2 MSTORE PUSH1 0x44 DUP3 ADD MSTORE SWAP1 MLOAD SWAP1 DUP2 SWAP1 SUB PUSH1 0x64 ADD SWAP1 REVERT JUMPDEST PUSH2 0xB29 JUMP JUMPDEST PUSH1 0x0 DUP8 GT DUP1 ISZERO PUSH2 0xADE JUMPI POP PUSH1 0x0 DUP7 GT JUMPDEST DUP1 ISZERO PUSH2 0xAEA JUMPI POP PUSH1 0x0 DUP6 GT JUMPDEST PUSH2 0xB29 JUMPI PUSH1 0x40 DUP1 MLOAD PUSH3 0x461BCD PUSH1 0xE5 SHL DUP2 MSTORE PUSH1 0x20 PUSH1 0x4 DUP3 ADD MSTORE PUSH1 0x1B PUSH1 0x24 DUP3 ADD MSTORE PUSH1 0x0 DUP1 MLOAD PUSH1 0x20 PUSH2 0x3B9D DUP4 CODECOPY DUP2 MLOAD SWAP2 MSTORE PUSH1 0x44 DUP3 ADD MSTORE SWAP1 MLOAD SWAP1 DUP2 SWAP1 SUB PUSH1 0x64 ADD SWAP1 REVERT JUMPDEST PUSH1 0x0 DUP5 GT DUP1 ISZERO PUSH2 0xB39 JUMPI POP PUSH1 0x0 DUP4 GT JUMPDEST PUSH2 0xB8A JUMPI PUSH1 0x40 DUP1 MLOAD PUSH3 0x461BCD PUSH1 0xE5 SHL DUP2 MSTORE PUSH1 0x20 PUSH1 0x4 DUP3 ADD MSTORE PUSH1 0x18 PUSH1 0x24 DUP3 ADD MSTORE PUSH32 0x4552525F494E56414C49445F524553455256455F524154450000000000000000 PUSH1 0x44 DUP3 ADD MSTORE SWAP1 MLOAD SWAP1 DUP2 SWAP1 SUB PUSH1 0x64 ADD SWAP1 REVERT JUMPDEST PUSH1 0x0 PUSH2 0xB96 DUP9 DUP7 PUSH2 0xEC1 JUMP JUMPDEST SWAP1 POP PUSH1 0x0 PUSH2 0xBA4 DUP8 DUP7 PUSH2 0xEC1 JUMP JUMPDEST SWAP1 POP DUP8 DUP10 LT ISZERO PUSH2 0xBC7 JUMPI PUSH2 0xBBC DUP9 DUP11 DUP5 DUP5 PUSH1 0x1 PUSH2 0x1043 JUMP JUMPDEST SWAP4 POP SWAP4 POP POP POP PUSH2 0xBEE JUMP JUMPDEST DUP8 DUP10 GT ISZERO PUSH2 0xBDD JUMPI PUSH2 0xBBC DUP10 DUP10 DUP5 DUP5 PUSH1 0x0 PUSH2 0x1043 JUMP JUMPDEST PUSH2 0xBE7 DUP3 DUP3 PUSH2 0x110C JUMP JUMPDEST SWAP4 POP SWAP4 POP POP POP JUMPDEST SWAP6 POP SWAP6 SWAP4 POP POP POP POP JUMP JUMPDEST PUSH2 0xC00 PUSH2 0x1144 JUMP JUMPDEST PUSH2 0xC08 PUSH2 0x191A JUMP JUMPDEST JUMP JUMPDEST PUSH1 0x0 DUP1 DUP6 GT PUSH2 0xC55 JUMPI PUSH1 0x40 DUP1 MLOAD PUSH3 0x461BCD PUSH1 0xE5 SHL DUP2 MSTORE PUSH1 0x20 PUSH1 0x4 DUP3 ADD MSTORE PUSH1 0x12 PUSH1 0x24 DUP3 ADD MSTORE PUSH18 0x4552525F494E56414C49445F535550504C59 PUSH1 0x70 SHL PUSH1 0x44 DUP3 ADD MSTORE SWAP1 MLOAD SWAP1 DUP2 SWAP1 SUB PUSH1 0x64 ADD SWAP1 REVERT JUMPDEST PUSH1 0x0 DUP5 GT PUSH2 0xC98 JUMPI PUSH1 0x40 DUP1 MLOAD PUSH3 0x461BCD PUSH1 0xE5 SHL DUP2 MSTORE PUSH1 0x20 PUSH1 0x4 DUP3 ADD MSTORE PUSH1 0x1B PUSH1 0x24 DUP3 ADD MSTORE PUSH1 0x0 DUP1 MLOAD PUSH1 0x20 PUSH2 0x3B9D DUP4 CODECOPY DUP2 MLOAD SWAP2 MSTORE PUSH1 0x44 DUP3 ADD MSTORE SWAP1 MLOAD SWAP1 DUP2 SWAP1 SUB PUSH1 0x64 ADD SWAP1 REVERT JUMPDEST PUSH1 0x1 DUP4 PUSH4 0xFFFFFFFF AND GT DUP1 ISZERO PUSH2 0xCB7 JUMPI POP PUSH3 0x1E8480 PUSH4 0xFFFFFFFF DUP5 AND GT ISZERO JUMPDEST PUSH2 0xD04 JUMPI PUSH1 0x40 DUP1 MLOAD PUSH3 0x461BCD PUSH1 0xE5 SHL DUP2 MSTORE PUSH1 0x20 PUSH1 0x4 DUP3 ADD MSTORE PUSH1 0x19 PUSH1 0x24 DUP3 ADD MSTORE PUSH25 0x4552525F494E56414C49445F524553455256455F524154494F PUSH1 0x38 SHL PUSH1 0x44 DUP3 ADD MSTORE SWAP1 MLOAD SWAP1 DUP2 SWAP1 SUB PUSH1 0x64 ADD SWAP1 REVERT JUMPDEST DUP2 PUSH2 0xD11 JUMPI POP PUSH1 0x0 PUSH2 0x3FD JUMP JUMPDEST PUSH4 0xFFFFFFFF DUP4 AND PUSH3 0xF4240 EQ ISZERO PUSH2 0xD42 JUMPI DUP5 PUSH1 0x1 PUSH2 0xD2F DUP5 DUP8 PUSH2 0xEC1 JUMP JUMPDEST SUB DUP2 PUSH2 0xD37 JUMPI INVALID JUMPDEST DIV PUSH1 0x1 ADD SWAP1 POP PUSH2 0x3FD JUMP JUMPDEST PUSH1 0x0 DUP1 DUP1 PUSH2 0xD50 DUP9 DUP7 PUSH2 0xF28 JUMP JUMPDEST SWAP1 POP PUSH2 0xD61 DUP2 DUP10 PUSH3 0xF4240 DUP10 PUSH2 0xF71 JUMP JUMPDEST SWAP1 SWAP4 POP SWAP2 POP PUSH1 0x0 PUSH1 0xFF DUP4 AND PUSH1 0x1 PUSH2 0xD78 DUP11 DUP8 PUSH2 0xEC1 JUMP JUMPDEST SUB SWAP1 SHR DUP9 SWAP1 SUB PUSH1 0x1 ADD SWAP5 POP POP POP POP POP SWAP5 SWAP4 POP POP POP POP JUMP JUMPDEST PUSH1 0x0 DUP1 DUP6 GT PUSH2 0xDDA JUMPI PUSH1 0x40 DUP1 MLOAD PUSH3 0x461BCD PUSH1 0xE5 SHL DUP2 MSTORE PUSH1 0x20 PUSH1 0x4 DUP3 ADD MSTORE PUSH1 0x12 PUSH1 0x24 DUP3 ADD MSTORE PUSH18 0x4552525F494E56414C49445F535550504C59 PUSH1 0x70 SHL PUSH1 0x44 DUP3 ADD MSTORE SWAP1 MLOAD SWAP1 DUP2 SWAP1 SUB PUSH1 0x64 ADD SWAP1 REVERT JUMPDEST PUSH1 0x0 DUP5 GT PUSH2 0xE1D JUMPI PUSH1 0x40 DUP1 MLOAD PUSH3 0x461BCD PUSH1 0xE5 SHL DUP2 MSTORE PUSH1 0x20 PUSH1 0x4 DUP3 ADD MSTORE PUSH1 0x1B PUSH1 0x24 DUP3 ADD MSTORE PUSH1 0x0 DUP1 MLOAD PUSH1 0x20 PUSH2 0x3B9D DUP4 CODECOPY DUP2 MLOAD SWAP2 MSTORE PUSH1 0x44 DUP3 ADD MSTORE SWAP1 MLOAD SWAP1 DUP2 SWAP1 SUB PUSH1 0x64 ADD SWAP1 REVERT JUMPDEST PUSH1 0x0 DUP4 PUSH4 0xFFFFFFFF AND GT DUP1 ISZERO PUSH2 0xE3C JUMPI POP PUSH3 0xF4240 PUSH4 0xFFFFFFFF DUP5 AND GT ISZERO JUMPDEST PUSH2 0xE8A JUMPI PUSH1 0x40 DUP1 MLOAD PUSH3 0x461BCD PUSH1 0xE5 SHL DUP2 MSTORE PUSH1 0x20 PUSH1 0x4 DUP3 ADD MSTORE PUSH1 0x1A PUSH1 0x24 DUP3 ADD MSTORE PUSH26 0x11549497D253959053125117D49154D154959157D5D15251D215 PUSH1 0x32 SHL PUSH1 0x44 DUP3 ADD MSTORE SWAP1 MLOAD SWAP1 DUP2 SWAP1 SUB PUSH1 0x64 ADD SWAP1 REVERT JUMPDEST DUP2 PUSH2 0xE97 JUMPI POP PUSH1 0x0 PUSH2 0x3FD JUMP JUMPDEST PUSH4 0xFFFFFFFF DUP4 AND PUSH3 0xF4240 EQ ISZERO PUSH2 0xEB3 JUMPI DUP4 PUSH2 0x536 DUP7 DUP5 PUSH2 0xEC1 JUMP JUMPDEST PUSH1 0x0 DUP1 DUP1 PUSH2 0x553 DUP6 DUP9 PUSH2 0xF28 JUMP JUMPDEST PUSH1 0x0 DUP3 PUSH2 0xED0 JUMPI POP PUSH1 0x0 PUSH2 0xF22 JUMP JUMPDEST DUP3 DUP3 MUL DUP3 DUP5 DUP3 DUP2 PUSH2 0xEDD JUMPI INVALID JUMPDEST DIV EQ PUSH2 0xF1F JUMPI PUSH1 0x40 DUP1 MLOAD PUSH3 0x461BCD PUSH1 0xE5 SHL DUP2 MSTORE PUSH1 0x20 PUSH1 0x4 DUP3 ADD MSTORE PUSH1 0xC PUSH1 0x24 DUP3 ADD MSTORE PUSH12 0x4552525F4F564552464C4F57 PUSH1 0xA0 SHL PUSH1 0x44 DUP3 ADD MSTORE SWAP1 MLOAD SWAP1 DUP2 SWAP1 SUB PUSH1 0x64 ADD SWAP1 REVERT JUMPDEST SWAP1 POP JUMPDEST SWAP3 SWAP2 POP POP JUMP JUMPDEST PUSH1 0x0 DUP3 DUP3 ADD DUP4 DUP2 LT ISZERO PUSH2 0xF1F JUMPI PUSH1 0x40 DUP1 MLOAD PUSH3 0x461BCD PUSH1 0xE5 SHL DUP2 MSTORE PUSH1 0x20 PUSH1 0x4 DUP3 ADD MSTORE PUSH1 0xC PUSH1 0x24 DUP3 ADD MSTORE PUSH12 0x4552525F4F564552464C4F57 PUSH1 0xA0 SHL PUSH1 0x44 DUP3 ADD MSTORE SWAP1 MLOAD SWAP1 DUP2 SWAP1 SUB PUSH1 0x64 ADD SWAP1 REVERT JUMPDEST PUSH1 0x0 DUP1 PUSH1 0x1 PUSH1 0x81 SHL DUP7 LT PUSH2 0xF84 JUMPI PUSH1 0x0 DUP1 REVERT JUMPDEST PUSH1 0x0 DUP1 DUP7 PUSH1 0x1 PUSH1 0x7F SHL DUP10 MUL DUP2 PUSH2 0xF96 JUMPI INVALID JUMPDEST DIV SWAP1 POP PUSH17 0x15BF0A8B1457695355FB8AC404E7A79E3 DUP2 LT ISZERO PUSH2 0xFC2 JUMPI PUSH2 0xFBB DUP2 PUSH2 0x2321 JUMP JUMPDEST SWAP2 POP PUSH2 0xFCE JUMP JUMPDEST PUSH2 0xFCB DUP2 PUSH2 0x2705 JUMP JUMPDEST SWAP2 POP JUMPDEST PUSH1 0x0 DUP6 PUSH4 0xFFFFFFFF AND DUP8 PUSH4 0xFFFFFFFF AND DUP5 MUL DUP2 PUSH2 0xFE7 JUMPI INVALID JUMPDEST DIV SWAP1 POP PUSH1 0x1 PUSH1 0x83 SHL DUP2 LT ISZERO PUSH2 0x100D JUMPI PUSH2 0xFFF DUP2 PUSH2 0x27B0 JUMP JUMPDEST PUSH1 0x7F SWAP5 POP SWAP5 POP POP POP POP PUSH2 0x103A JUMP JUMPDEST PUSH1 0x0 PUSH2 0x1018 DUP3 PUSH2 0x2B54 JUMP JUMPDEST SWAP1 POP PUSH2 0x102D DUP2 PUSH1 0x7F SUB PUSH1 0xFF AND DUP4 SWAP1 SHR DUP3 PUSH2 0x2BE4 JUMP JUMPDEST SWAP6 POP SWAP4 POP PUSH2 0x103A SWAP3 POP POP POP JUMP JUMPDEST SWAP5 POP SWAP5 SWAP3 POP POP POP JUMP JUMPDEST PUSH1 0x0 DUP1 PUSH2 0x1050 DUP6 DUP6 PUSH2 0x2F7E JUMP JUMPDEST SWAP1 SWAP6 POP SWAP4 POP PUSH1 0x0 DUP7 PUSH2 0x1066 DUP10 PUSH1 0x1 PUSH1 0x7F SHL PUSH2 0xEC1 JUMP JUMPDEST DUP2 PUSH2 0x106D JUMPI INVALID JUMPDEST DIV SWAP1 POP PUSH1 0x0 PUSH17 0x15BF0A8B1457695355FB8AC404E7A79E3 DUP3 LT PUSH2 0x1098 JUMPI PUSH2 0x1093 DUP3 PUSH2 0x2705 JUMP JUMPDEST PUSH2 0x10A1 JUMP JUMPDEST PUSH2 0x10A1 DUP3 PUSH2 0x2321 JUMP JUMPDEST SWAP1 POP PUSH1 0x0 DUP7 PUSH2 0x10B0 DUP4 DUP11 PUSH2 0xEC1 JUMP JUMPDEST DUP2 PUSH2 0x10B7 JUMPI INVALID JUMPDEST DIV SWAP1 POP PUSH1 0x0 DUP7 PUSH2 0x10CF JUMPI PUSH2 0x10CA DUP3 PUSH2 0x3031 JUMP JUMPDEST PUSH2 0x10D8 JUMP JUMPDEST PUSH2 0x10D8 DUP3 PUSH2 0x306E JUMP JUMPDEST SWAP1 POP PUSH2 0x10FA PUSH2 0x10E7 DUP3 DUP12 PUSH2 0xEC1 JUMP JUMPDEST PUSH2 0x10F5 DUP11 PUSH1 0x1 PUSH1 0x7F SHL PUSH2 0xEC1 JUMP JUMPDEST PUSH2 0x110C JUMP JUMPDEST SWAP6 POP SWAP6 POP POP POP POP POP SWAP6 POP SWAP6 SWAP4 POP POP POP POP JUMP JUMPDEST PUSH1 0x0 DUP1 DUP3 DUP5 GT PUSH2 0x1129 JUMPI PUSH2 0x1120 DUP5 DUP5 PUSH2 0x30D2 JUMP JUMPDEST SWAP2 POP SWAP2 POP PUSH2 0x113D JUMP JUMPDEST PUSH1 0x0 DUP1 PUSH2 0x1136 DUP6 DUP8 PUSH2 0x30D2 JUMP JUMPDEST SWAP5 POP SWAP3 POP POP POP JUMPDEST SWAP3 POP SWAP3 SWAP1 POP JUMP JUMPDEST PUSH17 0x1C35FEDD14FFFFFFFFFFFFFFFFFFFFFFFF PUSH1 0x20 SSTORE PUSH17 0x1B0CE43B323FFFFFFFFFFFFFFFFFFFFFFF PUSH1 0x21 SSTORE PUSH17 0x19F0028EC1FFFFFFFFFFFFFFFFFFFFFFFF PUSH1 0x22 SSTORE PUSH17 0x18DED91F0E7FFFFFFFFFFFFFFFFFFFFFFF PUSH1 0x23 SSTORE PUSH17 0x17D8EC7F0417FFFFFFFFFFFFFFFFFFFFFF PUSH1 0x24 SSTORE PUSH17 0x16DDC6556CDBFFFFFFFFFFFFFFFFFFFFFF PUSH1 0x25 SSTORE PUSH17 0x15ECF52776A1FFFFFFFFFFFFFFFFFFFFFF PUSH1 0x26 SSTORE PUSH17 0x15060C256CB2FFFFFFFFFFFFFFFFFFFFFF PUSH1 0x27 SSTORE PUSH17 0x1428A2F98D72FFFFFFFFFFFFFFFFFFFFFF PUSH1 0x28 SSTORE PUSH17 0x13545598E5C23FFFFFFFFFFFFFFFFFFFFF PUSH1 0x29 SSTORE PUSH17 0x1288C4161CE1DFFFFFFFFFFFFFFFFFFFFF PUSH1 0x2A SSTORE PUSH17 0x11C592761C666FFFFFFFFFFFFFFFFFFFFF PUSH1 0x2B SSTORE PUSH17 0x110A688680A757FFFFFFFFFFFFFFFFFFFF PUSH1 0x2C SSTORE PUSH17 0x1056F1B5BEDF77FFFFFFFFFFFFFFFFFFFF PUSH1 0x2D SSTORE PUSH17 0xFAADCECEEFF8BFFFFFFFFFFFFFFFFFFFF PUSH1 0x2E SSTORE PUSH17 0xF05DC6B27EDADFFFFFFFFFFFFFFFFFFFF PUSH1 0x2F SSTORE PUSH17 0xE67A5A25DA4107FFFFFFFFFFFFFFFFFFF PUSH1 0x30 SSTORE PUSH17 0xDCFF115B14EEDFFFFFFFFFFFFFFFFFFFF PUSH1 0x31 SSTORE PUSH17 0xD3E7A392431239FFFFFFFFFFFFFFFFFFF PUSH1 0x32 SSTORE PUSH17 0xCB2FF529EB71E4FFFFFFFFFFFFFFFFFFF PUSH1 0x33 SSTORE PUSH17 0xC2D415C3DB974AFFFFFFFFFFFFFFFFFFF PUSH1 0x34 SSTORE PUSH17 0xBAD03E7D883F69BFFFFFFFFFFFFFFFFFF PUSH1 0x35 SSTORE PUSH17 0xB320D03B2C343D5FFFFFFFFFFFFFFFFFF PUSH1 0x36 SSTORE PUSH17 0xABC25204E02828DFFFFFFFFFFFFFFFFFF PUSH1 0x37 SSTORE PUSH17 0xA4B16F74EE4BB207FFFFFFFFFFFFFFFFF PUSH1 0x38 SSTORE PUSH17 0x9DEAF736AC1F569FFFFFFFFFFFFFFFFFF PUSH1 0x39 SSTORE PUSH17 0x976BD9952C7AA957FFFFFFFFFFFFFFFFF PUSH1 0x3A SSTORE PUSH17 0x9131271922EAA606FFFFFFFFFFFFFFFFF PUSH1 0x3B SSTORE PUSH17 0x8B380F3558668C46FFFFFFFFFFFFFFFFF PUSH1 0x3C SSTORE PUSH17 0x857DDF0117EFA215BFFFFFFFFFFFFFFFF PUSH1 0x3D SSTORE PUSH17 0x7FFFFFFFFFFFFFFFFFFFFFFFFFFFFFFFF PUSH1 0x3E SSTORE PUSH17 0x7ABBF6F6ABB9D087FFFFFFFFFFFFFFFFF PUSH1 0x3F SSTORE PUSH17 0x75AF62CBAC95F7DFA7FFFFFFFFFFFFFFF PUSH1 0x40 SSTORE PUSH17 0x70D7FB7452E187AC13FFFFFFFFFFFFFFF PUSH1 0x41 SSTORE PUSH17 0x6C3390ECC8AF379295FFFFFFFFFFFFFFF PUSH1 0x42 SSTORE PUSH17 0x67C00A3B07FFC01FD6FFFFFFFFFFFFFFF PUSH1 0x43 SSTORE PUSH17 0x637B647C39CBB9D3D27FFFFFFFFFFFFFF PUSH1 0x44 SSTORE PUSH17 0x5F63B1FC104DBD39587FFFFFFFFFFFFFF PUSH1 0x45 SSTORE PUSH17 0x5B771955B36E12F7235FFFFFFFFFFFFFF PUSH1 0x46 SSTORE PUSH17 0x57B3D49DDA84556D6F6FFFFFFFFFFFFFF PUSH1 0x47 SSTORE PUSH17 0x54183095B2C8ECECF30FFFFFFFFFFFFFF PUSH1 0x48 SSTORE PUSH17 0x50A28BE635CA2B888F77FFFFFFFFFFFFF PUSH1 0x49 SSTORE PUSH17 0x4D5156639708C9DB33C3FFFFFFFFFFFFF PUSH1 0x4A SSTORE PUSH17 0x4A23105873875BD52DFDFFFFFFFFFFFFF PUSH1 0x4B SSTORE PUSH17 0x471649D87199AA990756FFFFFFFFFFFFF PUSH1 0x4C SSTORE PUSH17 0x4429A21A029D4C1457CFBFFFFFFFFFFFF PUSH1 0x4D SSTORE PUSH17 0x415BC6D6FB7DD71AF2CB3FFFFFFFFFFFF PUSH1 0x4E SSTORE PUSH17 0x3EAB73B3BBFE282243CE1FFFFFFFFFFFF PUSH1 0x4F SSTORE PUSH17 0x3C1771AC9FB6B4C18E229FFFFFFFFFFFF PUSH1 0x50 SSTORE PUSH17 0x399E96897690418F785257FFFFFFFFFFF PUSH1 0x51 SSTORE PUSH17 0x373FC456C53BB779BF0EA9FFFFFFFFFFF PUSH1 0x52 SSTORE PUSH17 0x34F9E8E490C48E67E6AB8BFFFFFFFFFFF PUSH1 0x53 SSTORE PUSH17 0x32CBFD4A7ADC790560B3337FFFFFFFFFF PUSH1 0x54 SSTORE PUSH17 0x30B50570F6E5D2ACCA94613FFFFFFFFFF PUSH1 0x55 SSTORE PUSH17 0x2EB40F9F620FDA6B56C2861FFFFFFFFFF PUSH1 0x56 SSTORE PUSH17 0x2CC8340ECB0D0F520A6AF58FFFFFFFFFF PUSH1 0x57 SSTORE PUSH17 0x2AF09481380A0A35CF1BA02FFFFFFFFFF PUSH1 0x58 SSTORE PUSH17 0x292C5BDD3B92EC810287B1B3FFFFFFFFF PUSH1 0x59 SSTORE PUSH17 0x277ABDCDAB07D5A77AC6D6B9FFFFFFFFF PUSH1 0x5A SSTORE PUSH17 0x25DAF6654B1EAA55FD64DF5EFFFFFFFFF PUSH1 0x5B SSTORE PUSH17 0x244C49C648BAA98192DCE88B7FFFFFFFF PUSH1 0x5C SSTORE PUSH17 0x22CE03CD5619A311B2471268BFFFFFFFF PUSH1 0x5D SSTORE PUSH17 0x215F77C045FBE885654A44A0FFFFFFFFF PUSH1 0x5E SSTORE PUSH17 0x1FFFFFFFFFFFFFFFFFFFFFFFFFFFFFFFF PUSH1 0x5F SSTORE PUSH17 0x1EAEFDBDAAEE7421FC4D3EDE5FFFFFFFF PUSH1 0x60 SSTORE PUSH17 0x1D6BD8B2EB257DF7E8CA57B09BFFFFFFF PUSH1 0x61 SSTORE PUSH17 0x1C35FEDD14B861EB0443F7F133FFFFFFF PUSH1 0x62 SSTORE PUSH17 0x1B0CE43B322BCDE4A56E8ADA5AFFFFFFF PUSH1 0x63 SSTORE PUSH17 0x19F0028EC1FFF007F5A195A39DFFFFFFF PUSH1 0x64 SSTORE PUSH17 0x18DED91F0E72EE74F49B15BA527FFFFFF PUSH1 0x65 SSTORE PUSH17 0x17D8EC7F04136F4E5615FD41A63FFFFFF PUSH1 0x66 SSTORE PUSH17 0x16DDC6556CDB84BDC8D12D22E6FFFFFFF PUSH1 0x67 SSTORE PUSH17 0x15ECF52776A1155B5BD8395814F7FFFFF PUSH1 0x68 SSTORE PUSH17 0x15060C256CB23B3B3CC3754CF40FFFFFF PUSH1 0x69 SSTORE PUSH17 0x1428A2F98D728AE223DDAB715BE3FFFFF PUSH1 0x6A SSTORE PUSH17 0x13545598E5C23276CCF0EDE68034FFFFF PUSH1 0x6B SSTORE PUSH17 0x1288C4161CE1D6F54B7F61081194FFFFF PUSH1 0x6C SSTORE PUSH17 0x11C592761C666AA641D5A01A40F17FFFF PUSH1 0x6D SSTORE PUSH17 0x110A688680A7530515F3E6E6CFDCDFFFF PUSH1 0x6E SSTORE PUSH17 0x1056F1B5BEDF75C6BCB2CE8AED428FFFF PUSH1 0x6F SSTORE PUSH16 0xFAADCECEEFF8A0890F3875F008277FFF PUSH1 0x70 SSTORE PUSH16 0xF05DC6B27EDAD306388A600F6BA0BFFF PUSH1 0x71 SSTORE PUSH16 0xE67A5A25DA41063DE1495D5B18CDBFFF PUSH1 0x72 SSTORE PUSH16 0xDCFF115B14EEDDE6FC3AA5353F2E4FFF PUSH1 0x73 SSTORE PUSH16 0xD3E7A3924312399F9AAE2E0F868F8FFF PUSH1 0x74 SSTORE PUSH16 0xCB2FF529EB71E41582CCCD5A1EE26FFF PUSH1 0x75 SSTORE PUSH16 0xC2D415C3DB974AB32A51840C0B67EDFF PUSH1 0x76 SSTORE PUSH16 0xBAD03E7D883F69AD5B0A186184E06BFF PUSH1 0x77 SSTORE PUSH16 0xB320D03B2C343D4829ABD6075F0CC5FF PUSH1 0x78 SSTORE PUSH16 0xABC25204E02828D73C6E80BCDB1A95BF PUSH1 0x79 SSTORE PUSH16 0xA4B16F74EE4BB2040A1EC6C15FBBF2DF PUSH1 0x7A SSTORE PUSH16 0x9DEAF736AC1F569DEB1B5AE3F36C130F PUSH1 0x7B SSTORE PUSH16 0x976BD9952C7AA957F5937D790EF65037 PUSH1 0x7C SSTORE PUSH16 0x9131271922EAA6064B73A22D0BD4F2BF PUSH1 0x7D SSTORE PUSH16 0x8B380F3558668C46C91C49A2F8E967B9 PUSH1 0x7E SSTORE PUSH16 0x857DDF0117EFA215952912839F6473E6 PUSH1 0x0 PUSH1 0x7F JUMPDEST ADD SSTORE JUMP JUMPDEST PUSH16 0x60E393C68D20B1BD09DEAABC0373B9C5 PUSH1 0x80 SWAP1 DUP2 SSTORE PUSH16 0x5F8F46E4854120989ED94719FB4C2011 PUSH1 0x81 SSTORE PUSH16 0x5E479EBB9129FB1B7E72A648F992B606 PUSH1 0x82 SSTORE PUSH16 0x5D0BD23FE42DFEDDE2E9586BE12B85FE PUSH1 0x83 SSTORE PUSH16 0x5BDB29DDEE979308DDFCA81AEEB8095A PUSH1 0x84 SSTORE PUSH16 0x5AB4FD8A260D2C7E2C0D2AFCF0009DAD PUSH1 0x85 SSTORE PUSH16 0x5998B31359A55D48724C65CF09001221 PUSH1 0x86 SSTORE PUSH16 0x5885BCAD2B322DFC43E8860F9C018CF5 PUSH1 0x87 SSTORE PUSH16 0x577B97AA1FE222BB452FDF111B1F0BE2 PUSH1 0x88 SSTORE PUSH16 0x5679CB5E3575632E5BAA27E2B949F704 PUSH1 0x89 SSTORE PUSH16 0x557FE8241B3A31C83C732F1CDFF4A1C5 PUSH1 0x8A SSTORE PUSH16 0x548D868026504875D6E59BBE95FC2A6B PUSH1 0x8B SSTORE PUSH16 0x53A2465CE347CF34D05A867C17DD3088 PUSH1 0x8C SSTORE PUSH16 0x52BDCE5DCD4FAED59C7F5511CF8F8ACC PUSH1 0x8D SSTORE PUSH16 0x51DFCB453C07F8DA817606E7885F7C3E PUSH1 0x8E SSTORE PUSH16 0x5107EF6B0A5A2BE8F8FF15590DAA3CCE PUSH1 0x8F SSTORE PUSH16 0x5035F241D6EAE0CD7BACBA119993DE7B PUSH1 0x90 SSTORE PUSH16 0x4F698FE90D5B53D532171E1210164C66 PUSH1 0x91 SSTORE PUSH16 0x4EA288CA297A0E6A09A0EEE240E16C85 PUSH1 0x92 SSTORE PUSH16 0x4DE0A13FDCF5D4213FC398BA6E3BECDE PUSH1 0x93 SSTORE PUSH16 0x4D23A145EEF91FEC06B06140804C4808 PUSH1 0x94 SSTORE PUSH16 0x4C6B5430D4C1EE5526473DB4AE0F11DE PUSH1 0x95 SSTORE PUSH16 0x4BB7886C240562EBA11F4963A53B4240 PUSH1 0x96 SSTORE PUSH16 0x4B080F3F1CB491D2D521E0EA4583521E PUSH1 0x97 SSTORE PUSH16 0x4A5CBC96A05589CB4D86BE1DB3168364 PUSH1 0x98 SSTORE PUSH16 0x49B566D40243517658D78C33162D6ECE PUSH1 0x99 SSTORE PUSH16 0x4911E6A02E5507A30F947383FD9A3276 PUSH1 0x9A SSTORE PUSH16 0x487216C2B31BE4ADC41DB8A8D5CC0C88 PUSH1 0x9B SSTORE PUSH16 0x47D5D3FC4A7A1B188CD3D788B5C5E9FC PUSH1 0x9C SSTORE PUSH16 0x473CFCE4871A2C40BC4F9E1C32B955D0 PUSH1 0x9D SSTORE PUSH16 0x46A771CA578AB878485810E285E31C67 PUSH1 0x9E SSTORE PUSH16 0x4615149718AED4C258C373DC676AA72D PUSH1 0x9F SSTORE PUSH16 0x4585C8B3F8FE489C6E1833CA47871384 PUSH1 0xA0 SSTORE PUSH16 0x44F972F174E41E5EFB7E9D63C29CE735 PUSH1 0xA1 SSTORE PUSH16 0x446FF970BA86D8B00BEB05ECEBF3C4DC PUSH1 0xA2 SSTORE PUSH16 0x43E9438EC88971812D6F198B5CCAAD96 PUSH1 0xA3 SSTORE PUSH16 0x436539D11FF7BEA657AEDDB394E809EF PUSH1 0xA4 SSTORE PUSH16 0x42E3C5D3E5A913401D86F66DB5D81C2C PUSH1 0xA5 SSTORE PUSH16 0x4264D2395303070EA726CBE98DF62174 PUSH1 0xA6 SSTORE PUSH16 0x41E84A9A593BB7194C3A6349ECAE4EEA PUSH1 0xA7 SSTORE PUSH16 0x416E1B785D13EBA07A08F3F18876A5AB PUSH1 0xA8 SSTORE PUSH16 0x40F6322FF389D423BA9DD7E7E7B7E809 PUSH1 0xA9 SSTORE PUSH16 0x40807CEC8A466880ECF4184545D240A4 PUSH1 0xAA SSTORE PUSH16 0x400CEA9CE88A8D3AE668E8EA0D9BF07F PUSH1 0xAB SSTORE PUSH16 0x3F9B6AE8772D4C55091E0ED7DFEA0AC1 PUSH1 0xAC SSTORE PUSH16 0x3F2BEE253FD84594F54BCAAFAC383A13 PUSH1 0xAD SSTORE PUSH16 0x3EBE654E95208BB9210C575C081C5958 PUSH1 0xAE SSTORE PUSH16 0x3E52C1FC5665635B78CE1F05AD53C086 PUSH1 0xAF SSTORE PUSH16 0x3DE8F65AC388101DDF718A6F5C1EFF65 PUSH1 0xB0 SSTORE PUSH16 0x3D80F522D59BD0B328CA012DF4CD2D49 PUSH1 0xB1 SSTORE PUSH16 0x3D1AB193129EA72B23648A161163A85A PUSH1 0xB2 SSTORE PUSH16 0x3CB61F68D32576C135B95CFB53F76D75 PUSH1 0xB3 SSTORE PUSH16 0x3C5332D9F1AAE851A3619E77E4CC8473 PUSH1 0xB4 SSTORE PUSH16 0x3BF1E08EDBE2AA109E1525F65759EF73 PUSH1 0xB5 SSTORE PUSH16 0x3B921D9CFF13FA2C197746A3DFC4918F PUSH1 0xB6 SSTORE PUSH16 0x3B33DF818910BFC1A5AEFB8F63AE2AC4 PUSH1 0xB7 SSTORE PUSH16 0x3AD71C1C77E34FA32A9F184967ECCBF6 PUSH1 0xB8 SSTORE PUSH16 0x3A7BC9ABF2C5BB53E2F7384A8A16521A PUSH1 0xB9 SSTORE PUSH16 0x3A21DEC7E76369783A68A0C6385A1C57 PUSH1 0xBA SSTORE PUSH16 0x39C9525DE6C9CDF7C1C157CA4A7A6EE3 PUSH1 0xBB SSTORE PUSH16 0x39721BAD3DC85D1240FF0190E0ADAAC3 PUSH1 0xBC SSTORE PUSH16 0x391C324344D3248F0469EB28DD3D77E0 PUSH1 0xBD SSTORE PUSH16 0x38C78DF7E3C796279FB4FF84394AB3DA PUSH1 0xBE SSTORE PUSH16 0x387426EA4638AE9AAE08049D3554C20A PUSH1 0xBF SSTORE PUSH16 0x3821F57DBD2763256C1A99BBD2051378 PUSH1 0xC0 SSTORE PUSH16 0x37D0F256CB46A8C92FF62FBBEF289698 PUSH1 0xC1 SSTORE PUSH16 0x37811658591FFC7ABDD1FEAF3CEF9B73 PUSH1 0xC2 SSTORE PUSH16 0x37325AA10E9E82F7DF0F380F7997154B PUSH1 0xC3 SSTORE PUSH16 0x36E4B888CFB408D873B9A80D439311C6 PUSH1 0xC4 SSTORE PUSH16 0x3698299E59F4BB9DE645FC9B08C64CCA PUSH1 0xC5 SSTORE PUSH16 0x364CA7A5012CB603023B57DD3EBFD50D PUSH1 0xC6 SSTORE PUSH16 0x36022C928915B778AB1B06AAEE7E61D4 PUSH1 0xC7 SSTORE PUSH16 0x35B8B28D1A73DC27500FFE35559CC028 PUSH1 0xC8 SSTORE PUSH16 0x357033E951FE250EC5EB4E60955132D7 PUSH1 0xC9 SSTORE PUSH16 0x3528AB2867934E3A21B5412E4C4F8881 PUSH1 0xCA SSTORE PUSH16 0x34E212F66C55057F9676C80094A61D59 PUSH1 0xCB SSTORE PUSH16 0x349C66289E5B3C4B540C24F42FA4B9BB PUSH1 0xCC SSTORE PUSH16 0x34579FBBD0C733A9C8D6AF6B0F7D00F7 PUSH1 0xCD SSTORE PUSH16 0x3413BAD2E712288B924B5882B5B369BF PUSH1 0xCE SSTORE PUSH16 0x33D0B2B56286510EF730E213F71F12E9 PUSH1 0xCF SSTORE PUSH16 0x338E82CE00E2496262C64457535BA1A1 PUSH1 0xD0 SSTORE PUSH16 0x334D26A96B373BB7C2F8EA1827F27A92 PUSH1 0xD1 SSTORE PUSH16 0x330C99F4F4211469E00B3E18C31475EA PUSH1 0xD2 SSTORE PUSH16 0x32CCD87D6486094999C7D5E6F33237D8 PUSH1 0xD3 SSTORE PUSH16 0x328DDE2DD617B6665A2E8556F250C1AF PUSH1 0xD4 SSTORE PUSH16 0x324FA70E9ADC270F8262755AF5A99AF9 PUSH1 0xD5 SSTORE PUSH16 0x32122F443110611CA51040F41FA6E1E3 PUSH1 0xD6 SSTORE PUSH16 0x31D5730E42C0831482F0F1485C4263D8 PUSH1 0xD7 SSTORE PUSH16 0x31996EC6B07B4A83421B5EBC4AB4E1F1 PUSH1 0xD8 SSTORE PUSH16 0x315E1EE0A68FF46BB43EC2B85032E876 PUSH1 0xD9 SSTORE PUSH16 0x31237FE7BC4DEACF6775B9EFA1A145F8 PUSH1 0xDA SSTORE PUSH16 0x30E98E7F1CC5A356E44627A6972EA2FF PUSH1 0xDB SSTORE PUSH16 0x30B04760B8917EC74205A3002650EC05 PUSH1 0xDC SSTORE PUSH16 0x3077A75C803468E9132CE0CF3224241D PUSH1 0xDD SSTORE PUSH16 0x303FAB57A6A275C36F19CDA9BACE667A PUSH1 0xDE SSTORE PUSH16 0x3008504BEB8DCBD2CF3BC1F6D5A064F0 PUSH1 0xDF SSTORE PUSH16 0x2FD19346ED17DAC61219CE0C2C5AC4B0 PUSH1 0xE0 SSTORE PUSH16 0x2F9B7169808C324B5852FD3D54BA9714 PUSH1 0xE1 SSTORE PUSH16 0x2F65E7E711CF4B064EEA9C08CBDAD574 PUSH1 0xE2 SSTORE PUSH16 0x2F30F405093042DDFF8A251B6BF6D103 PUSH1 0xE3 SSTORE PUSH16 0x2EFC931A3750F2E8BFE323EDFE037574 PUSH1 0xE4 SSTORE PUSH16 0x2EC8C28E46DBE56D98685278339400CB PUSH1 0xE5 SSTORE PUSH16 0x2E957FD933C3926D8A599B602379B851 PUSH1 0xE6 SSTORE PUSH16 0x2E62C882C7C9ED4473412702F08BA0E5 PUSH1 0xE7 SSTORE PUSH16 0x2E309A221C12BA361E3ED695167FEEE2 PUSH1 0xE8 SSTORE PUSH16 0x2DFEF25D1F865AE18DD07CFEA4BCEA10 PUSH1 0xE9 SSTORE PUSH16 0x2DCDCEE821CDC80DECC02C44344AEB31 PUSH1 0xEA SSTORE PUSH16 0x2D9D2D8562B34944D0B201BB87260C83 PUSH1 0xEB SSTORE PUSH16 0x2D6D0C04A5B62A2C42636308669B729A PUSH1 0xEC SSTORE PUSH16 0x2D3D6842C9A235517FC5A0332691528F PUSH1 0xED SSTORE PUSH16 0x2D0E402963FE1EA2834ABC408C437C10 PUSH1 0xEE SSTORE PUSH16 0x2CDF91AE602647908AFF975E4D6A2A8C PUSH1 0xEF SSTORE PUSH16 0x2CB15AD3A1EB65F6D74A75DA09A1B6C5 PUSH1 0xF0 SSTORE PUSH16 0x2C8399A6AB8E9774D6FCFF373D210727 PUSH1 0xF1 SSTORE PUSH16 0x2C564C4046F64EDBA6883CA06BBC4535 PUSH1 0xF2 SSTORE PUSH16 0x2C2970C431F952641E05CB493E23EED3 PUSH1 0xF3 SSTORE PUSH16 0x2BFD0560CD9EB14563BC7C0732856C18 PUSH1 0xF4 SSTORE PUSH16 0x2BD1084ED0332F7FF4150F9D0EF41A2C PUSH1 0xF5 SSTORE PUSH16 0x2BA577D0FA1628B76D040B12A82492FB PUSH1 0xF6 SSTORE PUSH16 0x2B7A5233CD21581E855E89DC2F1E8A92 PUSH1 0xF7 SSTORE PUSH16 0x2B4F95CD46904D05D72BDCDE337D9CC7 PUSH1 0xF8 SSTORE PUSH16 0x2B2540FC9B4D9ABBA3FACA6691914675 PUSH1 0xF9 SSTORE PUSH16 0x2AFB5229F68D0830D8BE8ADB0A0DB70F PUSH1 0xFA SSTORE PUSH16 0x2AD1C7C63A9B294C5BC73A3BA3AB7A2B PUSH1 0xFB SSTORE PUSH16 0x2AA8A04AC3CBE1EE1C9C86361465DBB8 PUSH1 0xFC SSTORE PUSH16 0x2A7FDA392D725A44A2C8AEB9AB35430D PUSH1 0xFD SSTORE PUSH16 0x2A57741B18CDE618717792B4FAA216DB PUSH1 0xFE SSTORE PUSH16 0x2A2F6C81F5D84DD950A35626D6D5503A SWAP1 PUSH1 0x7F PUSH2 0x1916 JUMP JUMPDEST PUSH1 0x0 DUP1 DUP1 DUP1 DUP1 PUSH16 0xD3094C70F034DE4B96FF7D5B6F99FCD8 DUP7 LT PUSH2 0x236A JUMPI PUSH1 0x1 PUSH1 0x7E SHL DUP5 ADD SWAP4 POP PUSH16 0xD3094C70F034DE4B96FF7D5B6F99FCD8 PUSH1 0x1 PUSH1 0x7F SHL DUP8 MUL DUP2 PUSH2 0x2366 JUMPI INVALID JUMPDEST DIV SWAP6 POP JUMPDEST PUSH16 0xA45AF1E1F40C333B3DE1DB4DD55F29A7 DUP7 LT PUSH2 0x23AD JUMPI PUSH1 0x1 PUSH1 0x7D SHL DUP5 ADD SWAP4 POP PUSH16 0xA45AF1E1F40C333B3DE1DB4DD55F29A7 PUSH1 0x1 PUSH1 0x7F SHL DUP8 MUL DUP2 PUSH2 0x23A9 JUMPI INVALID JUMPDEST DIV SWAP6 POP JUMPDEST PUSH16 0x910B022DB7AE67CE76B441C27035C6A1 DUP7 LT PUSH2 0x23F0 JUMPI PUSH1 0x1 PUSH1 0x7C SHL DUP5 ADD SWAP4 POP PUSH16 0x910B022DB7AE67CE76B441C27035C6A1 PUSH1 0x1 PUSH1 0x7F SHL DUP8 MUL DUP2 PUSH2 0x23EC JUMPI INVALID JUMPDEST DIV SWAP6 POP JUMPDEST PUSH16 0x88415ABBE9A76BEAD8D00CF112E4D4A8 DUP7 LT PUSH2 0x2433 JUMPI PUSH1 0x1 PUSH1 0x7B SHL DUP5 ADD SWAP4 POP PUSH16 0x88415ABBE9A76BEAD8D00CF112E4D4A8 PUSH1 0x1 PUSH1 0x7F SHL DUP8 MUL DUP2 PUSH2 0x242F JUMPI INVALID JUMPDEST DIV SWAP6 POP JUMPDEST PUSH16 0x84102B00893F64C705E841D5D4064BD3 DUP7 LT PUSH2 0x2476 JUMPI PUSH1 0x1 PUSH1 0x7A SHL DUP5 ADD SWAP4 POP PUSH16 0x84102B00893F64C705E841D5D4064BD3 PUSH1 0x1 PUSH1 0x7F SHL DUP8 MUL DUP2 PUSH2 0x2472 JUMPI INVALID JUMPDEST DIV SWAP6 POP JUMPDEST PUSH16 0x8204055AAEF1C8BD5C3259F4822735A2 DUP7 LT PUSH2 0x24B9 JUMPI PUSH1 0x1 PUSH1 0x79 SHL DUP5 ADD SWAP4 POP PUSH16 0x8204055AAEF1C8BD5C3259F4822735A2 PUSH1 0x1 PUSH1 0x7F SHL DUP8 MUL DUP2 PUSH2 0x24B5 JUMPI INVALID JUMPDEST DIV SWAP6 POP JUMPDEST PUSH16 0x810100AB00222D861931C15E39B44E99 DUP7 LT PUSH2 0x24FC JUMPI PUSH1 0x1 PUSH1 0x78 SHL DUP5 ADD SWAP4 POP PUSH16 0x810100AB00222D861931C15E39B44E99 PUSH1 0x1 PUSH1 0x7F SHL DUP8 MUL DUP2 PUSH2 0x24F8 JUMPI INVALID JUMPDEST DIV SWAP6 POP JUMPDEST PUSH16 0x808040155AABBBE9451521693554F733 DUP7 LT PUSH2 0x253F JUMPI PUSH1 0x1 PUSH1 0x77 SHL DUP5 ADD SWAP4 POP PUSH16 0x808040155AABBBE9451521693554F733 PUSH1 0x1 PUSH1 0x7F SHL DUP8 MUL DUP2 PUSH2 0x253B JUMPI INVALID JUMPDEST DIV SWAP6 POP JUMPDEST PUSH16 0x7FFFFFFFFFFFFFFFFFFFFFFFFFFFFFFF NOT DUP7 ADD SWAP3 POP DUP3 SWAP2 POP PUSH1 0x1 PUSH1 0x7F SHL DUP3 DUP1 MUL DIV SWAP1 POP PUSH1 0x1 PUSH1 0x80 SHL DUP4 DUP2 SUB DUP4 MUL DIV DUP5 ADD SWAP4 POP PUSH1 0x1 PUSH1 0x7F SHL DUP2 DUP4 MUL DUP2 PUSH2 0x2581 JUMPI INVALID JUMPDEST DIV SWAP2 POP PUSH1 0x1 PUSH1 0x81 SHL DUP4 PUSH16 0xAAAAAAAAAAAAAAAAAAAAAAAAAAAAAAAA SUB DUP4 MUL DUP2 PUSH2 0x25A5 JUMPI INVALID JUMPDEST DIV DUP5 ADD SWAP4 POP PUSH1 0x1 PUSH1 0x7F SHL DUP2 DUP4 MUL DUP2 PUSH2 0x25B9 JUMPI INVALID JUMPDEST DIV SWAP2 POP PUSH1 0x3 PUSH1 0x80 SHL DUP4 PUSH16 0x99999999999999999999999999999999 SUB DUP4 MUL DUP2 PUSH2 0x25DD JUMPI INVALID JUMPDEST DIV DUP5 ADD SWAP4 POP PUSH1 0x1 PUSH1 0x7F SHL DUP2 DUP4 MUL DUP2 PUSH2 0x25F1 JUMPI INVALID JUMPDEST DIV SWAP2 POP PUSH1 0x1 PUSH1 0x82 SHL DUP4 PUSH16 0x92492492492492492492492492492492 SUB DUP4 MUL DUP2 PUSH2 0x2615 JUMPI INVALID JUMPDEST DIV DUP5 ADD SWAP4 POP PUSH1 0x1 PUSH1 0x7F SHL DUP2 DUP4 MUL DUP2 PUSH2 0x2629 JUMPI INVALID JUMPDEST DIV SWAP2 POP PUSH1 0x5 PUSH1 0x80 SHL DUP4 PUSH16 0x8E38E38E38E38E38E38E38E38E38E38E SUB DUP4 MUL DUP2 PUSH2 0x264D JUMPI INVALID JUMPDEST DIV DUP5 ADD SWAP4 POP PUSH1 0x1 PUSH1 0x7F SHL DUP2 DUP4 MUL DUP2 PUSH2 0x2661 JUMPI INVALID JUMPDEST DIV SWAP2 POP PUSH1 0x3 PUSH1 0x81 SHL DUP4 PUSH16 0x8BA2E8BA2E8BA2E8BA2E8BA2E8BA2E8B SUB DUP4 MUL DUP2 PUSH2 0x2685 JUMPI INVALID JUMPDEST DIV DUP5 ADD SWAP4 POP PUSH1 0x1 PUSH1 0x7F SHL DUP2 DUP4 MUL DUP2 PUSH2 0x2699 JUMPI INVALID JUMPDEST DIV SWAP2 POP PUSH1 0x7 PUSH1 0x80 SHL DUP4 PUSH16 0x89D89D89D89D89D89D89D89D89D89D89 SUB DUP4 MUL DUP2 PUSH2 0x26BD JUMPI INVALID JUMPDEST DIV DUP5 ADD SWAP4 POP PUSH1 0x1 PUSH1 0x7F SHL DUP2 DUP4 MUL DUP2 PUSH2 0x26D1 JUMPI INVALID JUMPDEST DIV SWAP2 POP PUSH1 0x1 PUSH1 0x83 SHL DUP4 PUSH16 0x88888888888888888888888888888888 SUB DUP4 MUL DUP2 PUSH2 0x26F5 JUMPI INVALID JUMPDEST DIV SWAP4 SWAP1 SWAP4 ADD SWAP4 POP POP POP POP JUMPDEST SWAP2 SWAP1 POP JUMP JUMPDEST PUSH1 0x0 DUP1 PUSH1 0x1 PUSH1 0x80 SHL DUP4 LT PUSH2 0x2736 JUMPI PUSH1 0x0 PUSH2 0x2725 PUSH1 0x1 PUSH1 0x7F SHL DUP6 JUMPDEST DIV PUSH2 0x3164 JUMP JUMPDEST PUSH1 0xFF AND SWAP4 DUP5 SHR SWAP4 PUSH1 0x1 PUSH1 0x7F SHL MUL SWAP2 POP POP JUMPDEST PUSH1 0x1 PUSH1 0x7F SHL DUP4 GT ISZERO PUSH2 0x2784 JUMPI PUSH1 0x7F JUMPDEST PUSH1 0xFF DUP2 AND ISZERO PUSH2 0x2782 JUMPI PUSH1 0x1 PUSH1 0x7F SHL DUP5 DUP1 MUL DIV SWAP4 POP PUSH1 0x1 PUSH1 0x80 SHL DUP5 LT PUSH2 0x2779 JUMPI PUSH1 0x1 SWAP4 DUP5 SHR SWAP4 PUSH1 0xFF PUSH1 0x0 NOT DUP4 ADD AND SHL SWAP2 SWAP1 SWAP2 ADD SWAP1 JUMPDEST PUSH1 0x0 NOT ADD PUSH2 0x2745 JUMP JUMPDEST POP JUMPDEST PUSH16 0x5B9DE1D10BF4103D647B0955897BA80 PUSH16 0x3F80FE03F80FE03F80FE03F80FE03F8 DUP3 MUL DIV SWAP4 SWAP3 POP POP POP JUMP JUMPDEST PUSH1 0x0 PUSH8 0x168244FDAC78000 PUSH1 0x1 PUSH1 0x7F SHL PUSH16 0xFFFFFFFFFFFFFFFFFFFFFFFFFFFFFFF DUP5 AND DUP1 DUP1 MUL DUP3 SWAP1 DIV DUP1 DUP3 MUL DUP4 SWAP1 DIV DUP1 DUP4 MUL DUP5 SWAP1 DIV SWAP5 DUP6 MUL PUSH8 0x10E1B3BE415A0000 SWAP1 SWAP3 MUL PUSH8 0x5A0913F6B1E0000 SWAP2 SWAP1 SWAP2 MUL ADD ADD SWAP3 SWAP1 SWAP2 DUP2 DUP4 MUL DIV SWAP1 POP DUP1 PUSH7 0x4807432BC18000 MUL DUP4 ADD SWAP3 POP PUSH1 0x1 PUSH1 0x7F SHL DUP3 DUP3 MUL DUP2 PUSH2 0x2829 JUMPI INVALID JUMPDEST DIV SWAP1 POP DUP1 PUSH7 0xC0135DCA04000 MUL DUP4 ADD SWAP3 POP PUSH1 0x1 PUSH1 0x7F SHL DUP3 DUP3 MUL DUP2 PUSH2 0x2849 JUMPI INVALID JUMPDEST DIV SWAP1 POP DUP1 PUSH7 0x1B707B1CDC000 MUL DUP4 ADD SWAP3 POP PUSH1 0x1 PUSH1 0x7F SHL DUP3 DUP3 MUL DUP2 PUSH2 0x2869 JUMPI INVALID JUMPDEST DIV SWAP1 POP DUP1 PUSH6 0x36E0F639B800 MUL DUP4 ADD SWAP3 POP PUSH1 0x1 PUSH1 0x7F SHL DUP3 DUP3 MUL DUP2 PUSH2 0x2888 JUMPI INVALID JUMPDEST DIV SWAP1 POP DUP1 PUSH6 0x618FEE9F800 MUL DUP4 ADD SWAP3 POP PUSH1 0x1 PUSH1 0x7F SHL DUP3 DUP3 MUL DUP2 PUSH2 0x28A7 JUMPI INVALID JUMPDEST DIV SWAP1 POP DUP1 PUSH5 0x9C197DCC00 MUL DUP4 ADD SWAP3 POP PUSH1 0x1 PUSH1 0x7F SHL DUP3 DUP3 MUL DUP2 PUSH2 0x28C5 JUMPI INVALID JUMPDEST DIV SWAP1 POP DUP1 PUSH5 0xE30DCE400 MUL DUP4 ADD SWAP3 POP PUSH1 0x1 PUSH1 0x7F SHL DUP3 DUP3 MUL DUP2 PUSH2 0x28E3 JUMPI INVALID JUMPDEST DIV SWAP1 POP DUP1 PUSH5 0x12EBD1300 MUL DUP4 ADD SWAP3 POP PUSH1 0x1 PUSH1 0x7F SHL DUP3 DUP3 MUL DUP2 PUSH2 0x2901 JUMPI INVALID JUMPDEST DIV SWAP1 POP DUP1 PUSH4 0x17499F00 MUL DUP4 ADD SWAP3 POP PUSH1 0x1 PUSH1 0x7F SHL DUP3 DUP3 MUL DUP2 PUSH2 0x291E JUMPI INVALID JUMPDEST DIV SWAP1 POP DUP1 PUSH4 0x1A9D480 MUL DUP4 ADD SWAP3 POP PUSH1 0x1 PUSH1 0x7F SHL DUP3 DUP3 MUL DUP2 PUSH2 0x293B JUMPI INVALID JUMPDEST DIV SWAP1 POP DUP1 PUSH3 0x1C6380 MUL DUP4 ADD SWAP3 POP PUSH1 0x1 PUSH1 0x7F SHL DUP3 DUP3 MUL DUP2 PUSH2 0x2957 JUMPI INVALID JUMPDEST DIV SWAP1 POP DUP1 PUSH3 0x1C638 MUL DUP4 ADD SWAP3 POP PUSH1 0x1 PUSH1 0x7F SHL DUP3 DUP3 MUL DUP2 PUSH2 0x2973 JUMPI INVALID JUMPDEST DIV SWAP1 POP DUP1 PUSH2 0x1AB8 MUL DUP4 ADD SWAP3 POP PUSH1 0x1 PUSH1 0x7F SHL DUP3 DUP3 MUL DUP2 PUSH2 0x298E JUMPI INVALID JUMPDEST DIV SWAP1 POP DUP1 PUSH2 0x17C MUL DUP4 ADD SWAP3 POP PUSH1 0x1 PUSH1 0x7F SHL DUP3 DUP3 MUL DUP2 PUSH2 0x29A9 JUMPI INVALID JUMPDEST DIV SWAP1 POP DUP1 PUSH1 0x14 MUL DUP4 ADD SWAP3 POP PUSH1 0x1 PUSH1 0x7F SHL DUP3 DUP3 MUL DUP2 PUSH2 0x29C3 JUMPI INVALID JUMPDEST PUSH8 0x21C3677C82B40000 SWAP2 SWAP1 DIV SWAP4 DUP5 ADD DIV DUP3 ADD PUSH1 0x1 PUSH1 0x7F SHL ADD SWAP3 SWAP1 POP PUSH1 0x1 PUSH1 0x7C SHL DUP6 AND ISZERO PUSH2 0x2A14 JUMPI PUSH17 0x18EBEF9EAC820AE8682B9793AC6D1E776 PUSH17 0x1C3D6A24ED82218787D624D3E5EBA95F9 DUP5 MUL DIV SWAP3 POP JUMPDEST PUSH1 0x1 PUSH1 0x7D SHL DUP6 AND ISZERO PUSH2 0x2A4A JUMPI PUSH17 0x1368B2FC6F9609FE7ACEB46AA619BAED4 PUSH17 0x18EBEF9EAC820AE8682B9793AC6D1E778 DUP5 MUL DIV SWAP3 POP JUMPDEST PUSH1 0x1 PUSH1 0x7E SHL DUP6 AND ISZERO PUSH2 0x2A7F JUMPI PUSH16 0xBC5AB1B16779BE3575BD8F0520A9F21F PUSH17 0x1368B2FC6F9609FE7ACEB46AA619BAED5 DUP5 MUL DIV SWAP3 POP JUMPDEST PUSH1 0x1 PUSH1 0x7F SHL DUP6 AND ISZERO PUSH2 0x2AB3 JUMPI PUSH16 0x454AAA8EFE072E7F6DDBAB84B40A55C9 PUSH16 0xBC5AB1B16779BE3575BD8F0520A9F21E DUP5 MUL DIV SWAP3 POP JUMPDEST PUSH1 0x1 PUSH1 0x80 SHL DUP6 AND ISZERO PUSH2 0x2AE7 JUMPI PUSH16 0x960AADC109E7A3BF4578099615711EA PUSH16 0x454AAA8EFE072E7F6DDBAB84B40A55C5 DUP5 MUL DIV SWAP3 POP JUMPDEST PUSH1 0x1 PUSH1 0x81 SHL DUP6 AND ISZERO PUSH2 0x2B1A JUMPI PUSH15 0x2BF84208204F5977F9A8CF01FDCE3D PUSH16 0x960AADC109E7A3BF4578099615711D7 DUP5 MUL DIV SWAP3 POP JUMPDEST PUSH1 0x1 PUSH1 0x82 SHL DUP6 AND ISZERO PUSH2 0x2B4B JUMPI PUSH14 0x3C6AB775DD0B95B4CBEE7E65D11 PUSH15 0x2BF84208204F5977F9A8CF01FDC307 DUP5 MUL DIV SWAP3 POP JUMPDEST POP SWAP1 SWAP4 SWAP3 POP POP POP JUMP JUMPDEST PUSH1 0x0 PUSH1 0x20 PUSH1 0x7F JUMPDEST DUP1 PUSH1 0xFF AND DUP3 PUSH1 0x1 ADD PUSH1 0xFF AND LT ISZERO PUSH2 0x2BA3 JUMPI PUSH1 0x0 PUSH1 0x2 PUSH1 0xFF DUP5 DUP5 ADD AND DIV SWAP1 POP DUP5 PUSH1 0x0 DUP3 PUSH1 0xFF AND PUSH1 0x80 DUP2 LT PUSH2 0x2B8A JUMPI INVALID JUMPDEST ADD SLOAD LT PUSH2 0x2B99 JUMPI DUP1 SWAP3 POP PUSH2 0x2B9D JUMP JUMPDEST DUP1 SWAP2 POP JUMPDEST POP PUSH2 0x2B5B JUMP JUMPDEST DUP4 PUSH1 0x0 DUP3 PUSH1 0xFF AND PUSH1 0x80 DUP2 LT PUSH2 0x2BB4 JUMPI INVALID JUMPDEST ADD SLOAD LT PUSH2 0x2BC4 JUMPI SWAP2 POP PUSH2 0x2700 SWAP1 POP JUMP JUMPDEST DUP4 PUSH1 0x0 DUP4 PUSH1 0xFF AND PUSH1 0x80 DUP2 LT PUSH2 0x2BD5 JUMPI INVALID JUMPDEST ADD SLOAD LT PUSH2 0x116 JUMPI POP SWAP1 POP PUSH2 0x2700 JUMP JUMPDEST PUSH1 0x0 DUP1 DUP4 SWAP1 POP PUSH1 0x0 DUP4 PUSH1 0xFF AND DUP6 DUP4 MUL SWAP1 SHR SWAP2 POP DUP2 PUSH16 0x3442C4E6074A82F1797F72AC0000000 MUL DUP2 ADD SWAP1 POP DUP4 PUSH1 0xFF AND DUP6 DUP4 MUL SWAP1 SHR SWAP2 POP DUP2 PUSH16 0x116B96F757C380FB287FD0E40000000 MUL DUP2 ADD SWAP1 POP DUP4 PUSH1 0xFF AND DUP6 DUP4 MUL SWAP1 SHR SWAP2 POP DUP2 PUSH15 0x45AE5BDD5F0E03ECA1FF4390000000 MUL DUP2 ADD SWAP1 POP DUP4 PUSH1 0xFF AND DUP6 DUP4 MUL SWAP1 SHR SWAP2 POP DUP2 PUSH15 0xDEFABF91302CD95B9FFDA50000000 MUL DUP2 ADD SWAP1 POP DUP4 PUSH1 0xFF AND DUP6 DUP4 MUL SWAP1 SHR SWAP2 POP DUP2 PUSH15 0x2529CA9832B22439EFFF9B8000000 MUL DUP2 ADD SWAP1 POP DUP4 PUSH1 0xFF AND DUP6 DUP4 MUL SWAP1 SHR SWAP2 POP DUP2 PUSH14 0x54F1CF12BD04E516B6DA88000000 MUL DUP2 ADD SWAP1 POP DUP4 PUSH1 0xFF AND DUP6 DUP4 MUL SWAP1 SHR SWAP2 POP DUP2 PUSH14 0xA9E39E257A09CA2D6DB51000000 MUL DUP2 ADD SWAP1 POP DUP4 PUSH1 0xFF AND DUP6 DUP4 MUL SWAP1 SHR SWAP2 POP DUP2 PUSH14 0x12E066E7B839FA050C309000000 MUL DUP2 ADD SWAP1 POP DUP4 PUSH1 0xFF AND DUP6 DUP4 MUL SWAP1 SHR SWAP2 POP DUP2 PUSH13 0x1E33D7D926C329A1AD1A800000 MUL DUP2 ADD SWAP1 POP DUP4 PUSH1 0xFF AND DUP6 DUP4 MUL SWAP1 SHR SWAP2 POP DUP2 PUSH13 0x2BEE513BDB4A6B19B5F800000 MUL DUP2 ADD SWAP1 POP DUP4 PUSH1 0xFF AND DUP6 DUP4 MUL SWAP1 SHR SWAP2 POP DUP2 PUSH12 0x3A9316FA79B88ECCF2A00000 MUL DUP2 ADD SWAP1 POP DUP4 PUSH1 0xFF AND DUP6 DUP4 MUL SWAP1 SHR SWAP2 POP DUP2 PUSH12 0x48177EBE1FA812375200000 MUL DUP2 ADD SWAP1 POP DUP4 PUSH1 0xFF AND DUP6 DUP4 MUL SWAP1 SHR SWAP2 POP DUP2 PUSH11 0x5263FE90242DCBACF00000 MUL DUP2 ADD SWAP1 POP DUP4 PUSH1 0xFF AND DUP6 DUP4 MUL SWAP1 SHR SWAP2 POP DUP2 PUSH11 0x57E22099C030D94100000 MUL DUP2 ADD SWAP1 POP DUP4 PUSH1 0xFF AND DUP6 DUP4 MUL SWAP1 SHR SWAP2 POP DUP2 PUSH10 0x57E22099C030D9410000 MUL DUP2 ADD SWAP1 POP DUP4 PUSH1 0xFF AND DUP6 DUP4 MUL SWAP1 SHR SWAP2 POP DUP2 PUSH10 0x52B6B54569976310000 MUL DUP2 ADD SWAP1 POP DUP4 PUSH1 0xFF AND DUP6 DUP4 MUL SWAP1 SHR SWAP2 POP DUP2 PUSH9 0x4985F67696BF748000 MUL DUP2 ADD SWAP1 POP DUP4 PUSH1 0xFF AND DUP6 DUP4 MUL SWAP1 SHR SWAP2 POP DUP2 PUSH9 0x3DEA12EA99E498000 MUL DUP2 ADD SWAP1 POP DUP4 PUSH1 0xFF AND DUP6 DUP4 MUL SWAP1 SHR SWAP2 POP DUP2 PUSH8 0x31880F2214B6E000 MUL DUP2 ADD SWAP1 POP DUP4 PUSH1 0xFF AND DUP6 DUP4 MUL SWAP1 SHR SWAP2 POP DUP2 PUSH8 0x25BCFF56EB36000 MUL DUP2 ADD SWAP1 POP DUP4 PUSH1 0xFF AND DUP6 DUP4 MUL SWAP1 SHR SWAP2 POP DUP2 PUSH7 0x1B722E10AB1000 MUL DUP2 ADD SWAP1 POP DUP4 PUSH1 0xFF AND DUP6 DUP4 MUL SWAP1 SHR SWAP2 POP DUP2 PUSH7 0x1317C70077000 MUL DUP2 ADD SWAP1 POP DUP4 PUSH1 0xFF AND DUP6 DUP4 MUL SWAP1 SHR SWAP2 POP DUP2 PUSH6 0xCBA84AAFA00 MUL DUP2 ADD SWAP1 POP DUP4 PUSH1 0xFF AND DUP6 DUP4 MUL SWAP1 SHR SWAP2 POP DUP2 PUSH5 0x82573A0A00 MUL DUP2 ADD SWAP1 POP DUP4 PUSH1 0xFF AND DUP6 DUP4 MUL SWAP1 SHR SWAP2 POP DUP2 PUSH5 0x5035AD900 MUL DUP2 ADD SWAP1 POP DUP4 PUSH1 0xFF AND DUP6 DUP4 MUL SWAP1 SHR SWAP2 POP DUP2 PUSH4 0x2F881B00 MUL DUP2 ADD SWAP1 POP DUP4 PUSH1 0xFF AND DUP6 DUP4 MUL SWAP1 SHR SWAP2 POP DUP2 PUSH4 0x1B29340 MUL DUP2 ADD SWAP1 POP DUP4 PUSH1 0xFF AND DUP6 DUP4 MUL SWAP1 SHR SWAP2 POP DUP2 PUSH3 0xEFC40 MUL DUP2 ADD SWAP1 POP DUP4 PUSH1 0xFF AND DUP6 DUP4 MUL SWAP1 SHR SWAP2 POP DUP2 PUSH2 0x7FE0 MUL DUP2 ADD SWAP1 POP DUP4 PUSH1 0xFF AND DUP6 DUP4 MUL SWAP1 SHR SWAP2 POP DUP2 PUSH2 0x420 MUL DUP2 ADD SWAP1 POP DUP4 PUSH1 0xFF AND DUP6 DUP4 MUL SWAP1 SHR SWAP2 POP DUP2 PUSH1 0x21 MUL DUP2 ADD SWAP1 POP DUP4 PUSH1 0xFF AND DUP6 DUP4 MUL SWAP1 SHR SWAP2 POP DUP2 PUSH1 0x1 MUL DUP2 ADD SWAP1 POP DUP4 PUSH1 0xFF AND PUSH1 0x1 SWAP1 SHL DUP6 PUSH16 0x688589CC0E9505E2F2FEE5580000000 DUP4 DUP2 PUSH2 0x2F72 JUMPI INVALID JUMPDEST DIV ADD ADD SWAP6 SWAP5 POP POP POP POP POP JUMP JUMPDEST PUSH1 0x0 DUP1 PUSH1 0x1 PUSH1 0x80 SHL DUP5 GT ISZERO DUP1 ISZERO PUSH2 0x2F99 JUMPI POP PUSH1 0x1 PUSH1 0x80 SHL DUP4 GT ISZERO JUMPDEST ISZERO PUSH2 0x2FA8 JUMPI POP DUP3 SWAP1 POP DUP2 PUSH2 0x113D JUMP JUMPDEST PUSH1 0x1 PUSH1 0x80 SHL DUP5 LT ISZERO PUSH2 0x2FD2 JUMPI DUP3 PUSH1 0x1 PUSH1 0x80 SHL DUP6 MUL DUP2 PUSH2 0x2FC3 JUMPI INVALID JUMPDEST DIV PUSH1 0x1 PUSH1 0x80 SHL SWAP2 POP SWAP2 POP PUSH2 0x113D JUMP JUMPDEST PUSH1 0x1 PUSH1 0x80 SHL DUP4 LT ISZERO PUSH2 0x2FFC JUMPI PUSH1 0x1 PUSH1 0x80 SHL DUP5 PUSH1 0x1 PUSH1 0x80 SHL DUP6 MUL DUP2 PUSH2 0x2FF2 JUMPI INVALID JUMPDEST DIV SWAP2 POP SWAP2 POP PUSH2 0x113D JUMP JUMPDEST PUSH1 0x0 DUP4 DUP6 GT PUSH2 0x300B JUMPI DUP4 PUSH2 0x300D JUMP JUMPDEST DUP5 JUMPDEST SWAP1 POP PUSH1 0x0 PUSH2 0x301F PUSH1 0x1 PUSH1 0x7F SHL DUP4 PUSH2 0x271F JUMP JUMPDEST PUSH1 0xFF AND SWAP6 DUP7 SHR SWAP7 SWAP5 SWAP1 SWAP6 SHR SWAP5 POP POP POP POP JUMP JUMPDEST PUSH1 0x0 PUSH16 0x2F16AC6C59DE6F8D5D6F63C1482A7C86 DUP3 GT PUSH2 0x305A JUMPI PUSH2 0x3053 DUP3 PUSH2 0x31C5 JUMP JUMPDEST SWAP1 POP PUSH2 0x2700 JUMP JUMPDEST DUP2 PUSH1 0x1 PUSH1 0xFE SHL DUP2 PUSH2 0x3067 JUMPI INVALID JUMPDEST DIV SWAP3 SWAP2 POP POP JUMP JUMPDEST PUSH1 0x0 PUSH16 0x2F16AC6C59DE6F8D5D6F63C1482A7C86 DUP3 GT PUSH2 0x3090 JUMPI PUSH2 0x3053 DUP3 PUSH2 0x3607 JUMP JUMPDEST PUSH17 0x1AF16AC6C59DE6F8D5D6F63C1482A7C80 DUP3 GT PUSH2 0x30B1 JUMPI PUSH2 0x3053 DUP3 PUSH2 0x3A67 JUMP JUMPDEST PUSH17 0x6B22D43E72C326539CCEEEF8BB48F255FF DUP3 GT PUSH2 0x116 JUMPI PUSH2 0x3053 DUP3 PUSH2 0x3AE7 JUMP JUMPDEST PUSH1 0x0 DUP1 PUSH30 0x10C6F7A0B5ED8D36B4C7F34938583621FAFC8B0079A2834D26FA3FCC9EA9 DUP5 GT ISZERO PUSH2 0x3139 JUMPI PUSH1 0x1 PUSH30 0x10C6F7A0B5ED8D36B4C7F34938583621FAFC8B0079A2834D26FA3FCC9EAA DUP6 DIV ADD DUP1 DUP6 DUP2 PUSH2 0x3128 JUMPI INVALID JUMPDEST DIV SWAP5 POP DUP1 DUP5 DUP2 PUSH2 0x3134 JUMPI INVALID JUMPDEST DIV SWAP4 POP POP JUMPDEST PUSH1 0x0 PUSH2 0x3153 PUSH3 0xF4240 DUP7 MUL PUSH2 0x314E DUP8 DUP8 PUSH2 0xF28 JUMP JUMPDEST PUSH2 0x3B70 JUMP JUMPDEST SWAP6 PUSH3 0xF4240 DUP8 SWAP1 SUB SWAP6 POP SWAP4 POP POP POP POP JUMP JUMPDEST PUSH1 0x0 DUP1 PUSH2 0x100 DUP4 LT ISZERO PUSH2 0x318C JUMPI JUMPDEST PUSH1 0x1 DUP4 GT ISZERO PUSH2 0x3187 JUMPI PUSH1 0x1 SWAP3 DUP4 SHR SWAP3 ADD PUSH2 0x3172 JUMP JUMPDEST PUSH2 0xF22 JUMP JUMPDEST PUSH1 0x80 JUMPDEST PUSH1 0xFF DUP2 AND ISZERO PUSH2 0x31BE JUMPI PUSH1 0x1 PUSH1 0xFF DUP3 AND SHL DUP5 LT PUSH2 0x31B3 JUMPI PUSH1 0xFF DUP2 AND SWAP4 SWAP1 SWAP4 SHR SWAP3 SWAP1 DUP2 OR SWAP1 JUMPDEST PUSH1 0x1 SHR PUSH1 0x7F AND PUSH2 0x318F JUMP JUMPDEST POP SWAP3 SWAP2 POP POP JUMP JUMPDEST PUSH1 0x0 DUP2 DUP2 PUSH1 0x1 PUSH1 0x7F SHL DUP3 DUP1 MUL DIV SWAP2 POP PUSH17 0x14D29A73A6E7B02C3668C7B0880000000 DUP3 MUL ADD PUSH1 0x1 PUSH1 0x7F SHL DUP5 DUP4 MUL DIV SWAP2 POP PUSH17 0x2504A0CD9A7F7215B60F9BE4800000000 DUP3 MUL ADD PUSH1 0x1 PUSH1 0x7F SHL DUP5 DUP4 MUL DIV SWAP2 POP PUSH17 0x484D0A1191C0EAD267967C7A4A0000000 DUP3 MUL ADD PUSH1 0x1 PUSH1 0x7F SHL DUP5 DUP4 MUL DIV SWAP2 POP PUSH17 0x95EC580D7E8427A4BAF26A90A00000000 DUP3 MUL ADD PUSH1 0x1 PUSH1 0x7F SHL DUP5 DUP4 MUL DIV SWAP2 POP PUSH17 0x1440B0BE1615A47DBA6E5B3B1F10000000 DUP3 MUL ADD PUSH1 0x1 PUSH1 0x7F SHL DUP5 DUP4 MUL DIV SWAP2 POP PUSH17 0x2D207601F46A99B4112418400000000000 DUP3 MUL ADD PUSH1 0x1 PUSH1 0x7F SHL DUP5 DUP4 MUL DIV SWAP2 POP PUSH17 0x66EBAAC4C37C622DD8288A7EB1B2000000 DUP3 MUL ADD PUSH1 0x1 PUSH1 0x7F SHL DUP5 DUP4 MUL DIV SWAP2 POP PUSH17 0xEF17240135F7DBD43A1BA10CF200000000 DUP3 MUL ADD PUSH1 0x1 PUSH1 0x7F SHL DUP5 DUP4 MUL DIV SWAP2 POP PUSH18 0x233C33C676A5EB2416094A87B3657000000 DUP3 MUL ADD PUSH1 0x1 PUSH1 0x7F SHL DUP5 DUP4 MUL DIV SWAP2 POP PUSH18 0x541CDE48BC0254BED49A9F8700000000000 DUP3 MUL ADD PUSH1 0x1 PUSH1 0x7F SHL DUP5 DUP4 MUL DIV SWAP2 POP PUSH18 0xCAE1FAD2CDD4D4CB8D73ABCA0D19A400000 DUP3 MUL ADD PUSH1 0x1 PUSH1 0x7F SHL DUP5 DUP4 MUL DIV SWAP2 POP PUSH18 0x1EDB2AA2F760D15C41CEEDBA956400000000 DUP3 MUL ADD PUSH1 0x1 PUSH1 0x7F SHL DUP5 DUP4 MUL DIV SWAP2 POP PUSH18 0x4BA8D20D2DABD386C9529659841A2E200000 DUP3 MUL ADD PUSH1 0x1 PUSH1 0x7F SHL DUP5 DUP4 MUL DIV SWAP2 POP PUSH9 0x5D6042A35C33E6D51 PUSH1 0x4D SHL DUP3 MUL ADD PUSH1 0x1 PUSH1 0x7F SHL DUP5 DUP4 MUL DIV SWAP2 POP PUSH19 0x1CFA8E70C03625B9DB76C8EBF5BBF24820000 DUP3 MUL ADD PUSH1 0x1 PUSH1 0x7F SHL DUP5 DUP4 MUL DIV SWAP2 POP PUSH19 0x4851D99F82060DF265F3309B26F8200000000 DUP3 MUL ADD PUSH1 0x1 PUSH1 0x7F SHL DUP5 DUP4 MUL DIV SWAP2 POP PUSH19 0xB550D19B129D270C44F6F55F027723CBB0000 DUP3 MUL ADD PUSH1 0x1 PUSH1 0x7F SHL DUP5 DUP4 MUL DIV SWAP2 POP PUSH19 0x1C877DADC761DC272DEB65D4B0000000000000 DUP3 MUL ADD PUSH1 0x1 PUSH1 0x7F SHL DUP5 DUP4 MUL DIV SWAP2 POP PUSH19 0x48178ECE97479F33A77F2AD22A81B64406C000 DUP3 MUL ADD PUSH1 0x1 PUSH1 0x7F SHL DUP5 DUP4 MUL DIV SWAP2 POP PUSH19 0xB6CA8268B9D810FEDF6695EF2F8A6C00000000 DUP3 MUL ADD PUSH1 0x1 PUSH1 0x7F SHL DUP5 DUP4 MUL DIV SWAP2 POP PUSH20 0x1D0E76631A5B05D007B8CB72A7C7F11EC36E000 DUP3 MUL ADD PUSH1 0x1 PUSH1 0x7F SHL DUP5 DUP4 MUL DIV SWAP2 POP PUSH10 0x94386F7B3F0BFB38D8F PUSH1 0x4F SHL DUP3 MUL ADD PUSH1 0x1 PUSH1 0x7F SHL DUP5 DUP4 MUL DIV SWAP2 POP PUSH20 0xBD8369F1B702BF491E2EBFCEE08250313B65400 DUP3 MUL ADD PUSH1 0x1 PUSH1 0x7F SHL DUP5 DUP4 MUL DIV SWAP2 POP PUSH20 0x1E5C7C32A9F6C70AB2CB59D9225764D400000000 DUP3 MUL ADD PUSH1 0x1 PUSH1 0x7F SHL DUP5 DUP4 MUL DIV SWAP2 POP PUSH20 0x4DFF5820E165E910F95120A708E742496221E600 DUP3 MUL ADD PUSH1 0x1 PUSH1 0x7F SHL DUP5 DUP4 MUL DIV SWAP2 POP PUSH13 0x64647B36D8FE769BC7728729B PUSH1 0x3D SHL DUP3 MUL ADD PUSH1 0x1 PUSH1 0x7F SHL DUP5 DUP4 MUL DIV SWAP2 POP PUSH21 0x205DB8DFFFF45BFA2938F128F599DBF16EB11D880 DUP3 MUL ADD PUSH1 0x1 PUSH1 0x7F SHL DUP5 DUP4 MUL DIV SWAP2 POP PUSH21 0x53A044EBD984351493E1786AF38D39A0800000000 DUP3 MUL ADD PUSH1 0x1 PUSH1 0x7F SHL DUP5 DUP4 MUL DIV SWAP2 POP PUSH21 0xD86DAE2A4CC0F47633A544479735869B487B59C40 DUP3 MUL ADD PUSH1 0x1 PUSH1 0x7F SHL DUP5 DUP4 MUL DIV SWAP2 POP PUSH2 0x231 PUSH1 0x9C SHL DUP3 MUL ADD PUSH1 0x1 PUSH1 0x7F SHL DUP5 DUP4 MUL DIV SWAP2 POP PUSH21 0x5B0485A76F6646C2039DB1507CDD51B08649680822 DUP3 MUL ADD PUSH1 0x1 PUSH1 0x7F SHL DUP5 DUP4 MUL DIV SWAP2 POP PUSH21 0xEC983C46C49545BC17EFA6B5B0055E242200000000 DUP3 MUL ADD PUSH1 0x1 PUSH1 0x7F SHL DUP5 PUSH16 0xDE1BC4D19EFCAC82445DA75B00000000 DUP4 DIV ADD ADD SWAP5 SWAP4 POP POP POP POP JUMP JUMPDEST PUSH1 0x0 DUP2 PUSH1 0x1 PUSH1 0x7F SHL DUP2 DUP2 SUB PUSH16 0xDE1BC4D19EFCAC82445DA75B00000000 MUL SWAP1 DUP3 DUP1 MUL DIV SWAP2 POP PUSH17 0x14D29A73A6E7B02C3668C7B0880000000 DUP3 MUL ADD PUSH1 0x1 PUSH1 0x7F SHL DUP5 DUP4 MUL DIV SWAP2 POP PUSH17 0x2504A0CD9A7F7215B60F9BE4800000000 DUP3 MUL SWAP1 SUB PUSH1 0x1 PUSH1 0x7F SHL DUP5 DUP4 MUL DIV SWAP2 POP PUSH17 0x484D0A1191C0EAD267967C7A4A0000000 DUP3 MUL ADD PUSH1 0x1 PUSH1 0x7F SHL DUP5 DUP4 MUL DIV SWAP2 POP PUSH17 0x95EC580D7E8427A4BAF26A90A00000000 DUP3 MUL SWAP1 SUB PUSH1 0x1 PUSH1 0x7F SHL DUP5 DUP4 MUL DIV SWAP2 POP PUSH17 0x1440B0BE1615A47DBA6E5B3B1F10000000 DUP3 MUL ADD PUSH1 0x1 PUSH1 0x7F SHL DUP5 DUP4 MUL DIV SWAP2 POP PUSH17 0x2D207601F46A99B4112418400000000000 DUP3 MUL SWAP1 SUB PUSH1 0x1 PUSH1 0x7F SHL DUP5 DUP4 MUL DIV SWAP2 POP PUSH17 0x66EBAAC4C37C622DD8288A7EB1B2000000 DUP3 MUL ADD PUSH1 0x1 PUSH1 0x7F SHL DUP5 DUP4 MUL DIV SWAP2 POP PUSH17 0xEF17240135F7DBD43A1BA10CF200000000 DUP3 MUL SWAP1 SUB PUSH1 0x1 PUSH1 0x7F SHL DUP5 DUP4 MUL DIV SWAP2 POP PUSH18 0x233C33C676A5EB2416094A87B3657000000 DUP3 MUL ADD PUSH1 0x1 PUSH1 0x7F SHL DUP5 DUP4 MUL DIV SWAP2 POP PUSH18 0x541CDE48BC0254BED49A9F8700000000000 DUP3 MUL SWAP1 SUB PUSH1 0x1 PUSH1 0x7F SHL DUP5 DUP4 MUL DIV SWAP2 POP PUSH18 0xCAE1FAD2CDD4D4CB8D73ABCA0D19A400000 DUP3 MUL ADD PUSH1 0x1 PUSH1 0x7F SHL DUP5 DUP4 MUL DIV SWAP2 POP PUSH18 0x1EDB2AA2F760D15C41CEEDBA956400000000 DUP3 MUL SWAP1 SUB PUSH1 0x1 PUSH1 0x7F SHL DUP5 DUP4 MUL DIV SWAP2 POP PUSH18 0x4BA8D20D2DABD386C9529659841A2E200000 DUP3 MUL ADD PUSH1 0x1 PUSH1 0x7F SHL DUP5 DUP4 MUL DIV SWAP2 POP PUSH9 0x5D6042A35C33E6D51 PUSH1 0x4D SHL DUP3 MUL SWAP1 SUB PUSH1 0x1 PUSH1 0x7F SHL DUP5 DUP4 MUL DIV SWAP2 POP PUSH19 0x1CFA8E70C03625B9DB76C8EBF5BBF24820000 DUP3 MUL ADD PUSH1 0x1 PUSH1 0x7F SHL DUP5 DUP4 MUL DIV SWAP2 POP PUSH19 0x4851D99F82060DF265F3309B26F8200000000 DUP3 MUL SWAP1 SUB PUSH1 0x1 PUSH1 0x7F SHL DUP5 DUP4 MUL DIV SWAP2 POP PUSH19 0xB550D19B129D270C44F6F55F027723CBB0000 DUP3 MUL ADD PUSH1 0x1 PUSH1 0x7F SHL DUP5 DUP4 MUL DIV SWAP2 POP PUSH19 0x1C877DADC761DC272DEB65D4B0000000000000 DUP3 MUL SWAP1 SUB PUSH1 0x1 PUSH1 0x7F SHL DUP5 DUP4 MUL DIV SWAP2 POP PUSH19 0x48178ECE97479F33A77F2AD22A81B64406C000 DUP3 MUL ADD PUSH1 0x1 PUSH1 0x7F SHL DUP5 DUP4 MUL DIV SWAP2 POP PUSH19 0xB6CA8268B9D810FEDF6695EF2F8A6C00000000 DUP3 MUL SWAP1 SUB PUSH1 0x1 PUSH1 0x7F SHL DUP5 DUP4 MUL DIV SWAP2 POP PUSH20 0x1D0E76631A5B05D007B8CB72A7C7F11EC36E000 DUP3 MUL ADD PUSH1 0x1 PUSH1 0x7F SHL DUP5 DUP4 MUL DIV SWAP2 POP PUSH10 0x94386F7B3F0BFB38D8F PUSH1 0x4F SHL DUP3 MUL SWAP1 SUB PUSH1 0x1 PUSH1 0x7F SHL DUP5 DUP4 MUL DIV SWAP2 POP PUSH20 0xBD8369F1B702BF491E2EBFCEE08250313B65400 DUP3 MUL ADD PUSH1 0x1 PUSH1 0x7F SHL DUP5 DUP4 MUL DIV SWAP2 POP PUSH20 0x1E5C7C32A9F6C70AB2CB59D9225764D400000000 DUP3 MUL SWAP1 SUB PUSH1 0x1 PUSH1 0x7F SHL DUP5 DUP4 MUL DIV SWAP2 POP PUSH20 0x4DFF5820E165E910F95120A708E742496221E600 DUP3 MUL ADD PUSH1 0x1 PUSH1 0x7F SHL DUP5 DUP4 MUL DIV SWAP2 POP PUSH13 0x64647B36D8FE769BC7728729B PUSH1 0x3D SHL DUP3 MUL SWAP1 SUB PUSH1 0x1 PUSH1 0x7F SHL DUP5 DUP4 MUL DIV SWAP2 POP PUSH21 0x205DB8DFFFF45BFA2938F128F599DBF16EB11D880 DUP3 MUL ADD PUSH1 0x1 PUSH1 0x7F SHL DUP5 DUP4 MUL DIV SWAP2 POP PUSH21 0x53A044EBD984351493E1786AF38D39A0800000000 DUP3 MUL SWAP1 SUB PUSH1 0x1 PUSH1 0x7F SHL DUP5 DUP4 MUL DIV SWAP2 POP PUSH21 0xD86DAE2A4CC0F47633A544479735869B487B59C40 DUP3 MUL ADD PUSH1 0x1 PUSH1 0x7F SHL DUP5 DUP4 MUL DIV SWAP2 POP PUSH2 0x231 PUSH1 0x9C SHL DUP3 MUL SWAP1 SUB PUSH1 0x1 PUSH1 0x7F SHL DUP5 DUP4 MUL DIV SWAP2 POP PUSH21 0x5B0485A76F6646C2039DB1507CDD51B08649680822 DUP3 MUL ADD PUSH1 0x1 PUSH1 0x7F SHL DUP5 DUP4 MUL DIV SWAP2 POP PUSH21 0xEC983C46C49545BC17EFA6B5B0055E242200000000 DUP3 MUL SWAP1 SUB PUSH16 0xDE1BC4D19EFCAC82445DA75B00000000 DUP2 JUMPDEST DIV SWAP5 SWAP4 POP POP POP POP JUMP JUMPDEST PUSH1 0x0 PUSH16 0x2F16AC6C59DE6F8D5D6F63C1482A7C86 NOT DUP3 ADD PUSH16 0x3060C183060C183060C183060C18306 DUP1 DUP3 DIV SWAP1 DUP2 DUP2 MUL SWAP1 PUSH1 0x1 DUP4 ADD MUL DUP5 PUSH1 0x80 DUP5 DUP2 DUP2 LT PUSH2 0x3AA8 JUMPI INVALID JUMPDEST ADD SLOAD SWAP1 POP PUSH1 0x0 PUSH1 0x80 DUP6 PUSH1 0x1 ADD PUSH1 0x80 DUP2 LT PUSH2 0x3ABE JUMPI INVALID JUMPDEST ADD SLOAD PUSH16 0x3060C183060C183060C183060C18306 SWAP5 DUP8 SUB MUL SWAP6 SWAP1 SWAP3 SUB MUL SWAP4 SWAP1 SWAP4 ADD DIV SWAP5 SWAP4 POP POP POP POP JUMP JUMPDEST PUSH1 0x0 DUP1 PUSH17 0x15BF0A8B1457695355FB8AC404E7A79E3 DUP4 LT PUSH2 0x3B10 JUMPI PUSH2 0x3B0B DUP4 PUSH2 0x2705 JUMP JUMPDEST PUSH2 0x3B19 JUMP JUMPDEST PUSH2 0x3B19 DUP4 PUSH2 0x2321 JUMP JUMPDEST SWAP1 POP PUSH1 0x0 PUSH17 0x15BF0A8B1457695355FB8AC404E7A79E3 DUP3 LT PUSH2 0x3B43 JUMPI PUSH2 0x3B3E DUP3 PUSH2 0x2705 JUMP JUMPDEST PUSH2 0x3B4C JUMP JUMPDEST PUSH2 0x3B4C DUP3 PUSH2 0x2321 JUMP JUMPDEST SWAP1 POP DUP4 PUSH1 0x1 PUSH1 0x7F SHL DUP4 PUSH1 0x1 PUSH1 0x7F SHL DUP5 MUL DUP2 PUSH2 0x3B63 JUMPI INVALID JUMPDEST DIV DUP4 DUP6 SUB ADD MUL DUP2 PUSH2 0x3A5E JUMPI INVALID JUMPDEST PUSH1 0x0 PUSH1 0x2 DUP3 DIV DUP3 SUB DUP3 DUP5 DUP2 PUSH2 0x3B81 JUMPI INVALID JUMPDEST MOD DUP2 PUSH2 0x3B89 JUMPI INVALID JUMPDEST DIV DUP3 DUP5 DUP2 PUSH2 0x3B93 JUMPI INVALID JUMPDEST DIV ADD SWAP4 SWAP3 POP POP POP JUMP INVALID GASLIMIT MSTORE MSTORE 0x5F 0x49 0x4E JUMP COINBASE 0x4C 0x49 DIFFICULTY 0x5F MSTORE GASLIMIT MSTORE8 GASLIMIT MSTORE JUMP GASLIMIT 0x5F TIMESTAMP COINBASE 0x4C COINBASE 0x4E NUMBER GASLIMIT STOP STOP STOP STOP STOP LOG2 PUSH5 0x6970667358 0x22 SLT KECCAK256 0x49 SWAP8 0xC8 SWAP4 ADDMOD LOG0 0x29 0xBA BYTE CALLCODE 0xD0 LOG3 0xB3 0xE1 0xAC ADD 0xB1 MSTORE8 SLOAD 0x4C 0x2E LOG2 0xE6 DUP12 0xE3 PUSH20 0xE5D7B39DBAD564736F6C634300060C0033000000 "
		},
		"gasEstimates": {
			"creation": {
				"codeDepositCost": "3069200",
				"executionCost": "3381",
				"totalCost": "3072581"
			},
			"external": {
				"balancedWeights(uint256,uint256,uint256,uint256,uint256)": "infinite",
				"calculateCrossConnectorReturn(uint256,uint32,uint256,uint32,uint256)": "infinite",
				"calculateCrossReserveReturn(uint256,uint32,uint256,uint32,uint256)": "infinite",
				"calculateFundCost(uint256,uint256,uint32,uint256)": "infinite",
				"calculateLiquidateReturn(uint256,uint256,uint32,uint256)": "infinite",
				"calculatePurchaseReturn(uint256,uint256,uint32,uint256)": "infinite",
				"calculateSaleReturn(uint256,uint256,uint32,uint256)": "infinite",
				"crossReserveRate(uint256,uint32,uint256,uint32,uint256)": "infinite",
				"crossReserveTargetAmount(uint256,uint32,uint256,uint32,uint256)": "infinite",
				"fundCost(uint256,uint256,uint32,uint256)": "infinite",
				"fundSupplyAmount(uint256,uint256,uint32,uint256)": "infinite",
				"init()": "infinite",
				"liquidateRate(uint256,uint256,uint32,uint256)": "infinite",
				"liquidateReserveAmount(uint256,uint256,uint32,uint256)": "infinite",
				"purchaseRate(uint256,uint256,uint32,uint256)": "infinite",
				"purchaseTargetAmount(uint256,uint256,uint32,uint256)": "infinite",
				"saleRate(uint256,uint256,uint32,uint256)": "infinite",
				"saleTargetAmount(uint256,uint256,uint32,uint256)": "infinite"
			},
			"internal": {
				"accurateWeights(uint256,uint256)": "infinite",
				"balancedWeightsByStake(uint256,uint256,uint256,uint256,bool)": "infinite",
				"findPositionInMaxExpArray(uint256)": "infinite",
				"floorLog2(uint256)": "infinite",
				"generalExp(uint256,uint8)": "1793",
				"generalLog(uint256)": "infinite",
				"higherStake(uint256)": "1570",
				"initLambertArray()": "2560801",
				"initMaxExpArray()": "1920592",
				"lambertNeg1(uint256)": "1493",
				"lambertPos1(uint256)": "1541",
				"lambertPos2(uint256)": "1815",
				"lambertPos3(uint256)": "infinite",
				"lowerStake(uint256)": "infinite",
				"normalizedWeights(uint256,uint256)": "infinite",
				"optimalExp(uint256)": "1665",
				"optimalLog(uint256)": "1604",
				"power(uint256,uint256,uint32,uint32)": "infinite",
				"roundDiv(uint256,uint256)": "122",
				"safeFactors(uint256,uint256)": "infinite"
			}
		},
		"methodIdentifiers": {
			"balancedWeights(uint256,uint256,uint256,uint256,uint256)": "a11aa1b4",
			"calculateCrossConnectorReturn(uint256,uint32,uint256,uint32,uint256)": "65098bb3",
			"calculateCrossReserveReturn(uint256,uint32,uint256,uint32,uint256)": "79c1b450",
			"calculateFundCost(uint256,uint256,uint32,uint256)": "1da6bbfb",
			"calculateLiquidateReturn(uint256,uint256,uint32,uint256)": "abfd231d",
			"calculatePurchaseReturn(uint256,uint256,uint32,uint256)": "29a00e7c",
			"calculateSaleReturn(uint256,uint256,uint32,uint256)": "49f9b0f7",
			"crossReserveRate(uint256,uint32,uint256,uint32,uint256)": "9d114108",
			"crossReserveTargetAmount(uint256,uint32,uint256,uint32,uint256)": "94491fab",
			"fundCost(uint256,uint256,uint32,uint256)": "ebbb2158",
			"fundSupplyAmount(uint256,uint256,uint32,uint256)": "2f55bdb5",
			"init()": "e1c7392a",
			"liquidateRate(uint256,uint256,uint32,uint256)": "35b49af4",
			"liquidateReserveAmount(uint256,uint256,uint32,uint256)": "8074590a",
			"purchaseRate(uint256,uint256,uint32,uint256)": "48d73fed",
			"purchaseTargetAmount(uint256,uint256,uint32,uint256)": "f3250fe2",
			"saleRate(uint256,uint256,uint32,uint256)": "f732f1c9",
			"saleTargetAmount(uint256,uint256,uint32,uint256)": "76cf0b56"
		}
	},
	"abi": [
		{
			"inputs": [
				{
					"internalType": "uint256",
					"name": "_primaryReserveStakedBalance",
					"type": "uint256"
				},
				{
					"internalType": "uint256",
					"name": "_primaryReserveBalance",
					"type": "uint256"
				},
				{
					"internalType": "uint256",
					"name": "_secondaryReserveBalance",
					"type": "uint256"
				},
				{
					"internalType": "uint256",
					"name": "_reserveRateNumerator",
					"type": "uint256"
				},
				{
					"internalType": "uint256",
					"name": "_reserveRateDenominator",
					"type": "uint256"
				}
			],
			"name": "balancedWeights",
			"outputs": [
				{
					"internalType": "uint32",
					"name": "",
					"type": "uint32"
				},
				{
					"internalType": "uint32",
					"name": "",
					"type": "uint32"
				}
			],
			"stateMutability": "view",
			"type": "function"
		},
		{
			"inputs": [
				{
					"internalType": "uint256",
					"name": "_sourceReserveBalance",
					"type": "uint256"
				},
				{
					"internalType": "uint32",
					"name": "_sourceReserveWeight",
					"type": "uint32"
				},
				{
					"internalType": "uint256",
					"name": "_targetReserveBalance",
					"type": "uint256"
				},
				{
					"internalType": "uint32",
					"name": "_targetReserveWeight",
					"type": "uint32"
				},
				{
					"internalType": "uint256",
					"name": "_amount",
					"type": "uint256"
				}
			],
			"name": "calculateCrossConnectorReturn",
			"outputs": [
				{
					"internalType": "uint256",
					"name": "",
					"type": "uint256"
				}
			],
			"stateMutability": "view",
			"type": "function"
		},
		{
			"inputs": [
				{
					"internalType": "uint256",
					"name": "_sourceReserveBalance",
					"type": "uint256"
				},
				{
					"internalType": "uint32",
					"name": "_sourceReserveWeight",
					"type": "uint32"
				},
				{
					"internalType": "uint256",
					"name": "_targetReserveBalance",
					"type": "uint256"
				},
				{
					"internalType": "uint32",
					"name": "_targetReserveWeight",
					"type": "uint32"
				},
				{
					"internalType": "uint256",
					"name": "_amount",
					"type": "uint256"
				}
			],
			"name": "calculateCrossReserveReturn",
			"outputs": [
				{
					"internalType": "uint256",
					"name": "",
					"type": "uint256"
				}
			],
			"stateMutability": "view",
			"type": "function"
		},
		{
			"inputs": [
				{
					"internalType": "uint256",
					"name": "_supply",
					"type": "uint256"
				},
				{
					"internalType": "uint256",
					"name": "_reserveBalance",
					"type": "uint256"
				},
				{
					"internalType": "uint32",
					"name": "_reserveRatio",
					"type": "uint32"
				},
				{
					"internalType": "uint256",
					"name": "_amount",
					"type": "uint256"
				}
			],
			"name": "calculateFundCost",
			"outputs": [
				{
					"internalType": "uint256",
					"name": "",
					"type": "uint256"
				}
			],
			"stateMutability": "view",
			"type": "function"
		},
		{
			"inputs": [
				{
					"internalType": "uint256",
					"name": "_supply",
					"type": "uint256"
				},
				{
					"internalType": "uint256",
					"name": "_reserveBalance",
					"type": "uint256"
				},
				{
					"internalType": "uint32",
					"name": "_reserveRatio",
					"type": "uint32"
				},
				{
					"internalType": "uint256",
					"name": "_amount",
					"type": "uint256"
				}
			],
			"name": "calculateLiquidateReturn",
			"outputs": [
				{
					"internalType": "uint256",
					"name": "",
					"type": "uint256"
				}
			],
			"stateMutability": "view",
			"type": "function"
		},
		{
			"inputs": [
				{
					"internalType": "uint256",
					"name": "_supply",
					"type": "uint256"
				},
				{
					"internalType": "uint256",
					"name": "_reserveBalance",
					"type": "uint256"
				},
				{
					"internalType": "uint32",
					"name": "_reserveWeight",
					"type": "uint32"
				},
				{
					"internalType": "uint256",
					"name": "_amount",
					"type": "uint256"
				}
			],
			"name": "calculatePurchaseReturn",
			"outputs": [
				{
					"internalType": "uint256",
					"name": "",
					"type": "uint256"
				}
			],
			"stateMutability": "view",
			"type": "function"
		},
		{
			"inputs": [
				{
					"internalType": "uint256",
					"name": "_supply",
					"type": "uint256"
				},
				{
					"internalType": "uint256",
					"name": "_reserveBalance",
					"type": "uint256"
				},
				{
					"internalType": "uint32",
					"name": "_reserveWeight",
					"type": "uint32"
				},
				{
					"internalType": "uint256",
					"name": "_amount",
					"type": "uint256"
				}
			],
			"name": "calculateSaleReturn",
			"outputs": [
				{
					"internalType": "uint256",
					"name": "",
					"type": "uint256"
				}
			],
			"stateMutability": "view",
			"type": "function"
		},
		{
			"inputs": [
				{
					"internalType": "uint256",
					"name": "_sourceReserveBalance",
					"type": "uint256"
				},
				{
					"internalType": "uint32",
					"name": "_sourceReserveWeight",
					"type": "uint32"
				},
				{
					"internalType": "uint256",
					"name": "_targetReserveBalance",
					"type": "uint256"
				},
				{
					"internalType": "uint32",
					"name": "_targetReserveWeight",
					"type": "uint32"
				},
				{
					"internalType": "uint256",
					"name": "_amount",
					"type": "uint256"
				}
			],
			"name": "crossReserveRate",
			"outputs": [
				{
					"internalType": "uint256",
					"name": "",
					"type": "uint256"
				}
			],
			"stateMutability": "view",
			"type": "function"
		},
		{
			"inputs": [
				{
					"internalType": "uint256",
					"name": "_sourceReserveBalance",
					"type": "uint256"
				},
				{
					"internalType": "uint32",
					"name": "_sourceReserveWeight",
					"type": "uint32"
				},
				{
					"internalType": "uint256",
					"name": "_targetReserveBalance",
					"type": "uint256"
				},
				{
					"internalType": "uint32",
					"name": "_targetReserveWeight",
					"type": "uint32"
				},
				{
					"internalType": "uint256",
					"name": "_amount",
					"type": "uint256"
				}
			],
			"name": "crossReserveTargetAmount",
			"outputs": [
				{
					"internalType": "uint256",
					"name": "",
					"type": "uint256"
				}
			],
			"stateMutability": "view",
			"type": "function"
		},
		{
			"inputs": [
				{
					"internalType": "uint256",
					"name": "_supply",
					"type": "uint256"
				},
				{
					"internalType": "uint256",
					"name": "_reserveBalance",
					"type": "uint256"
				},
				{
					"internalType": "uint32",
					"name": "_reserveRatio",
					"type": "uint32"
				},
				{
					"internalType": "uint256",
					"name": "_amount",
					"type": "uint256"
				}
			],
			"name": "fundCost",
			"outputs": [
				{
					"internalType": "uint256",
					"name": "",
					"type": "uint256"
				}
			],
			"stateMutability": "view",
			"type": "function"
		},
		{
			"inputs": [
				{
					"internalType": "uint256",
					"name": "_supply",
					"type": "uint256"
				},
				{
					"internalType": "uint256",
					"name": "_reserveBalance",
					"type": "uint256"
				},
				{
					"internalType": "uint32",
					"name": "_reserveRatio",
					"type": "uint32"
				},
				{
					"internalType": "uint256",
					"name": "_amount",
					"type": "uint256"
				}
			],
			"name": "fundSupplyAmount",
			"outputs": [
				{
					"internalType": "uint256",
					"name": "",
					"type": "uint256"
				}
			],
			"stateMutability": "view",
			"type": "function"
		},
		{
			"inputs": [],
			"name": "init",
			"outputs": [],
			"stateMutability": "nonpayable",
			"type": "function"
		},
		{
			"inputs": [
				{
					"internalType": "uint256",
					"name": "_supply",
					"type": "uint256"
				},
				{
					"internalType": "uint256",
					"name": "_reserveBalance",
					"type": "uint256"
				},
				{
					"internalType": "uint32",
					"name": "_reserveRatio",
					"type": "uint32"
				},
				{
					"internalType": "uint256",
					"name": "_amount",
					"type": "uint256"
				}
			],
			"name": "liquidateRate",
			"outputs": [
				{
					"internalType": "uint256",
					"name": "",
					"type": "uint256"
				}
			],
			"stateMutability": "view",
			"type": "function"
		},
		{
			"inputs": [
				{
					"internalType": "uint256",
					"name": "_supply",
					"type": "uint256"
				},
				{
					"internalType": "uint256",
					"name": "_reserveBalance",
					"type": "uint256"
				},
				{
					"internalType": "uint32",
					"name": "_reserveRatio",
					"type": "uint32"
				},
				{
					"internalType": "uint256",
					"name": "_amount",
					"type": "uint256"
				}
			],
			"name": "liquidateReserveAmount",
			"outputs": [
				{
					"internalType": "uint256",
					"name": "",
					"type": "uint256"
				}
			],
			"stateMutability": "view",
			"type": "function"
		},
		{
			"inputs": [
				{
					"internalType": "uint256",
					"name": "_supply",
					"type": "uint256"
				},
				{
					"internalType": "uint256",
					"name": "_reserveBalance",
					"type": "uint256"
				},
				{
					"internalType": "uint32",
					"name": "_reserveWeight",
					"type": "uint32"
				},
				{
					"internalType": "uint256",
					"name": "_amount",
					"type": "uint256"
				}
			],
			"name": "purchaseRate",
			"outputs": [
				{
					"internalType": "uint256",
					"name": "",
					"type": "uint256"
				}
			],
			"stateMutability": "view",
			"type": "function"
		},
		{
			"inputs": [
				{
					"internalType": "uint256",
					"name": "_supply",
					"type": "uint256"
				},
				{
					"internalType": "uint256",
					"name": "_reserveBalance",
					"type": "uint256"
				},
				{
					"internalType": "uint32",
					"name": "_reserveWeight",
					"type": "uint32"
				},
				{
					"internalType": "uint256",
					"name": "_amount",
					"type": "uint256"
				}
			],
			"name": "purchaseTargetAmount",
			"outputs": [
				{
					"internalType": "uint256",
					"name": "",
					"type": "uint256"
				}
			],
			"stateMutability": "view",
			"type": "function"
		},
		{
			"inputs": [
				{
					"internalType": "uint256",
					"name": "_supply",
					"type": "uint256"
				},
				{
					"internalType": "uint256",
					"name": "_reserveBalance",
					"type": "uint256"
				},
				{
					"internalType": "uint32",
					"name": "_reserveWeight",
					"type": "uint32"
				},
				{
					"internalType": "uint256",
					"name": "_amount",
					"type": "uint256"
				}
			],
			"name": "saleRate",
			"outputs": [
				{
					"internalType": "uint256",
					"name": "",
					"type": "uint256"
				}
			],
			"stateMutability": "view",
			"type": "function"
		},
		{
			"inputs": [
				{
					"internalType": "uint256",
					"name": "_supply",
					"type": "uint256"
				},
				{
					"internalType": "uint256",
					"name": "_reserveBalance",
					"type": "uint256"
				},
				{
					"internalType": "uint32",
					"name": "_reserveWeight",
					"type": "uint32"
				},
				{
					"internalType": "uint256",
					"name": "_amount",
					"type": "uint256"
				}
			],
			"name": "saleTargetAmount",
			"outputs": [
				{
					"internalType": "uint256",
					"name": "",
					"type": "uint256"
				}
			],
			"stateMutability": "view",
			"type": "function"
		}
	]
}