{
	"data": {
		"bytecode": {
			"linkReferences": {},
			"object": "60806040526001805460ff60a01b191690556006805463ffffffff60c01b1916905534801561002d57600080fd5b50600080546001600160a01b03191633179055610ac58061004f6000396000f3fe608060405234801561001057600080fd5b50600436106101735760003560e01c80639bbe15d6116100de578063d8dbe4c911610097578063f4325d6711610071578063f4325d67146103d8578063f856f336146103e0578063f90bb740146103e8578063feef143f146103f057610173565b8063d8dbe4c914610369578063ecbca55d1461038f578063f2fde38b146103b257610173565b80639bbe15d6146102d1578063a89ae4ba14610323578063b39e12cf1461032b578063ca40146914610333578063d4ee1d901461033b578063d8a218471461034357610173565b806379ba50971161013057806379ba50971461025457806380f80a421461025c5780638129fc1c1461027f5780638da5cb5b1461029b5780638e72b23f146102a35780639100b5dd146102c957610173565b80630774c128146101785780632538576f1461019d5780634c69c00f146101be5780634eef3f31146101e4578063579cd3ca14610208578063653300d714610210575b600080fd5b61019b6004803603602081101561018e57600080fd5b503563ffffffff166103f8565b005b6101a561048c565b6040805163ffffffff9092168252519081900360200190f35b61019b600480360360208110156101d457600080fd5b50356001600160a01b0316610498565b6101ec6104cd565b604080516001600160a01b039092168252519081900360200190f35b6101a56104dc565b6102426004803603604081101561022657600080fd5b50803563ffffffff1690602001356001600160a01b03166104ef565b60408051918252519081900360200190f35b61019b61050c565b61019b6004803603602081101561027257600080fd5b503563ffffffff166105c3565b6102876106ad565b604080519115158252519081900360200190f35b6101ec6106bd565b61019b600480360360208110156102b957600080fd5b50356001600160a01b03166106cc565b6101a5610701565b6102f4600480360360208110156102e757600080fd5b503563ffffffff16610719565b604080519586526020860194909452848401929092521515606084015215156080830152519081900360a00190f35b6101ec61074c565b6101ec61075b565b6101ec61076a565b6101ec610779565b61019b6004803603602081101561035957600080fd5b50356001600160a01b0316610788565b61019b6004803603602081101561037f57600080fd5b50356001600160a01b03166107bd565b61019b600480360360208110156103a557600080fd5b503563ffffffff166107f2565b61019b600480360360208110156103c857600080fd5b50356001600160a01b03166108d9565b6101ec610957565b6101a5610966565b6101a5610979565b6101a561098c565b6003546001600160a01b03163314610453576040805162461bcd60e51b81526020600482015260196024820152784552525f4143434553535f44454e4945445f4f4e4c595f434d60381b604482015290519081900360640190fd5b8063ffffffff16610463816109a0565b506007805463ffffffff9092166401000000000267ffffffff0000000019909216919091179055565b60075463ffffffff1681565b6104a06109e9565b806104aa81610a3e565b50600280546001600160a01b0319166001600160a01b0392909216919091179055565b6004546001600160a01b031681565b600654600160c01b900463ffffffff1681565b600960209081526000928352604080842090915290825290205481565b6001546001600160a01b0316331461055f576040805162461bcd60e51b815260206004820152601160248201527011549497d050d0d154d4d7d11153925151607a1b604482015290519081900360640190fd5b600154600080546040516001600160a01b0393841693909116917f343765429aea5a34b3ff6a3785a98a5abb2597aca87bfbb58632c173d585373a91a360018054600080546001600160a01b03199081166001600160a01b03841617909155169055565b6003546001600160a01b0316331461061e576040805162461bcd60e51b81526020600482015260196024820152784552525f4143434553535f44454e4945445f4f4e4c595f434d60381b604482015290519081900360640190fd5b60018163ffffffff161015801561063e5750620f42408163ffffffff1611155b610687576040805162461bcd60e51b815260206004820152601560248201527411549497d0d3d395915494d253d397d5d15251d215605a1b604482015290519081900360640190fd5b6006805463ffffffff909216600160a01b0263ffffffff60a01b19909216919091179055565b600154600160a01b900460ff1681565b6000546001600160a01b031681565b6106d46109e9565b806106de81610a3e565b50600580546001600160a01b0319166001600160a01b0392909216919091179055565b60075468010000000000000000900463ffffffff1681565b60086020526000908152604090208054600182015460028301546003909301549192909160ff8082169161010090041685565b6002546001600160a01b031681565b6003546001600160a01b031681565b6005546001600160a01b031681565b6001546001600160a01b031681565b6107906109e9565b8061079a81610a3e565b50600480546001600160a01b0319166001600160a01b0392909216919091179055565b6107c56109e9565b806107cf81610a3e565b50600380546001600160a01b0319166001600160a01b0392909216919091179055565b6003546001600160a01b0316331461084d576040805162461bcd60e51b81526020600482015260196024820152784552525f4143434553535f44454e4945445f4f4e4c595f434d60381b604482015290519081900360640190fd5b60018163ffffffff161015801561086d5750620f42408163ffffffff1611155b6108b3576040805162461bcd60e51b81526020600482015260126024820152714552525f434f4e56455253494f4e5f46454560701b604482015290519081900360640190fd5b6006805463ffffffff909216600160c01b0263ffffffff60c01b19909216919091179055565b6108e16109e9565b6000546001600160a01b0382811691161415610935576040805162461bcd60e51b815260206004820152600e60248201526d22a9292fa9a0a6a2afa7aba722a960911b604482015290519081900360640190fd5b600180546001600160a01b0319166001600160a01b0392909216919091179055565b6006546001600160a01b031681565b600654600160e01b900463ffffffff1681565b600654600160a01b900463ffffffff1681565b600754640100000000900463ffffffff1681565b600081116109e6576040805162461bcd60e51b815260206004820152600e60248201526d4552525f5a45524f5f56414c554560901b604482015290519081900360640190fd5b50565b6000546001600160a01b03163314610a3c576040805162461bcd60e51b815260206004820152601160248201527011549497d050d0d154d4d7d11153925151607a1b604482015290519081900360640190fd5b565b6001600160a01b0381166109e6576040805162461bcd60e51b81526020600482015260136024820152724552525f494e56414c49445f4144445245535360681b604482015290519081900360640190fdfea2646970667358221220ecc853050690253fb4c9067697014b3e39f4de4345760109a2e62b3b3fb76fbf64736f6c634300060c0033",
			"opcodes": "PUSH1 0x80 PUSH1 0x40 MSTORE PUSH1 0x1 DUP1 SLOAD PUSH1 0xFF PUSH1 0xA0 SHL NOT AND SWAP1 SSTORE PUSH1 0x6 DUP1 SLOAD PUSH4 0xFFFFFFFF PUSH1 0xC0 SHL NOT AND SWAP1 SSTORE CALLVALUE DUP1 ISZERO PUSH2 0x2D JUMPI PUSH1 0x0 DUP1 REVERT JUMPDEST POP PUSH1 0x0 DUP1 SLOAD PUSH1 0x1 PUSH1 0x1 PUSH1 0xA0 SHL SUB NOT AND CALLER OR SWAP1 SSTORE PUSH2 0xAC5 DUP1 PUSH2 0x4F PUSH1 0x0 CODECOPY PUSH1 0x0 RETURN INVALID PUSH1 0x80 PUSH1 0x40 MSTORE CALLVALUE DUP1 ISZERO PUSH2 0x10 JUMPI PUSH1 0x0 DUP1 REVERT JUMPDEST POP PUSH1 0x4 CALLDATASIZE LT PUSH2 0x173 JUMPI PUSH1 0x0 CALLDATALOAD PUSH1 0xE0 SHR DUP1 PUSH4 0x9BBE15D6 GT PUSH2 0xDE JUMPI DUP1 PUSH4 0xD8DBE4C9 GT PUSH2 0x97 JUMPI DUP1 PUSH4 0xF4325D67 GT PUSH2 0x71 JUMPI DUP1 PUSH4 0xF4325D67 EQ PUSH2 0x3D8 JUMPI DUP1 PUSH4 0xF856F336 EQ PUSH2 0x3E0 JUMPI DUP1 PUSH4 0xF90BB740 EQ PUSH2 0x3E8 JUMPI DUP1 PUSH4 0xFEEF143F EQ PUSH2 0x3F0 JUMPI PUSH2 0x173 JUMP JUMPDEST DUP1 PUSH4 0xD8DBE4C9 EQ PUSH2 0x369 JUMPI DUP1 PUSH4 0xECBCA55D EQ PUSH2 0x38F JUMPI DUP1 PUSH4 0xF2FDE38B EQ PUSH2 0x3B2 JUMPI PUSH2 0x173 JUMP JUMPDEST DUP1 PUSH4 0x9BBE15D6 EQ PUSH2 0x2D1 JUMPI DUP1 PUSH4 0xA89AE4BA EQ PUSH2 0x323 JUMPI DUP1 PUSH4 0xB39E12CF EQ PUSH2 0x32B JUMPI DUP1 PUSH4 0xCA401469 EQ PUSH2 0x333 JUMPI DUP1 PUSH4 0xD4EE1D90 EQ PUSH2 0x33B JUMPI DUP1 PUSH4 0xD8A21847 EQ PUSH2 0x343 JUMPI PUSH2 0x173 JUMP JUMPDEST DUP1 PUSH4 0x79BA5097 GT PUSH2 0x130 JUMPI DUP1 PUSH4 0x79BA5097 EQ PUSH2 0x254 JUMPI DUP1 PUSH4 0x80F80A42 EQ PUSH2 0x25C JUMPI DUP1 PUSH4 0x8129FC1C EQ PUSH2 0x27F JUMPI DUP1 PUSH4 0x8DA5CB5B EQ PUSH2 0x29B JUMPI DUP1 PUSH4 0x8E72B23F EQ PUSH2 0x2A3 JUMPI DUP1 PUSH4 0x9100B5DD EQ PUSH2 0x2C9 JUMPI PUSH2 0x173 JUMP JUMPDEST DUP1 PUSH4 0x774C128 EQ PUSH2 0x178 JUMPI DUP1 PUSH4 0x2538576F EQ PUSH2 0x19D JUMPI DUP1 PUSH4 0x4C69C00F EQ PUSH2 0x1BE JUMPI DUP1 PUSH4 0x4EEF3F31 EQ PUSH2 0x1E4 JUMPI DUP1 PUSH4 0x579CD3CA EQ PUSH2 0x208 JUMPI DUP1 PUSH4 0x653300D7 EQ PUSH2 0x210 JUMPI JUMPDEST PUSH1 0x0 DUP1 REVERT JUMPDEST PUSH2 0x19B PUSH1 0x4 DUP1 CALLDATASIZE SUB PUSH1 0x20 DUP2 LT ISZERO PUSH2 0x18E JUMPI PUSH1 0x0 DUP1 REVERT JUMPDEST POP CALLDATALOAD PUSH4 0xFFFFFFFF AND PUSH2 0x3F8 JUMP JUMPDEST STOP JUMPDEST PUSH2 0x1A5 PUSH2 0x48C JUMP JUMPDEST PUSH1 0x40 DUP1 MLOAD PUSH4 0xFFFFFFFF SWAP1 SWAP3 AND DUP3 MSTORE MLOAD SWAP1 DUP2 SWAP1 SUB PUSH1 0x20 ADD SWAP1 RETURN JUMPDEST PUSH2 0x19B PUSH1 0x4 DUP1 CALLDATASIZE SUB PUSH1 0x20 DUP2 LT ISZERO PUSH2 0x1D4 JUMPI PUSH1 0x0 DUP1 REVERT JUMPDEST POP CALLDATALOAD PUSH1 0x1 PUSH1 0x1 PUSH1 0xA0 SHL SUB AND PUSH2 0x498 JUMP JUMPDEST PUSH2 0x1EC PUSH2 0x4CD JUMP JUMPDEST PUSH1 0x40 DUP1 MLOAD PUSH1 0x1 PUSH1 0x1 PUSH1 0xA0 SHL SUB SWAP1 SWAP3 AND DUP3 MSTORE MLOAD SWAP1 DUP2 SWAP1 SUB PUSH1 0x20 ADD SWAP1 RETURN JUMPDEST PUSH2 0x1A5 PUSH2 0x4DC JUMP JUMPDEST PUSH2 0x242 PUSH1 0x4 DUP1 CALLDATASIZE SUB PUSH1 0x40 DUP2 LT ISZERO PUSH2 0x226 JUMPI PUSH1 0x0 DUP1 REVERT JUMPDEST POP DUP1 CALLDATALOAD PUSH4 0xFFFFFFFF AND SWAP1 PUSH1 0x20 ADD CALLDATALOAD PUSH1 0x1 PUSH1 0x1 PUSH1 0xA0 SHL SUB AND PUSH2 0x4EF JUMP JUMPDEST PUSH1 0x40 DUP1 MLOAD SWAP2 DUP3 MSTORE MLOAD SWAP1 DUP2 SWAP1 SUB PUSH1 0x20 ADD SWAP1 RETURN JUMPDEST PUSH2 0x19B PUSH2 0x50C JUMP JUMPDEST PUSH2 0x19B PUSH1 0x4 DUP1 CALLDATASIZE SUB PUSH1 0x20 DUP2 LT ISZERO PUSH2 0x272 JUMPI PUSH1 0x0 DUP1 REVERT JUMPDEST POP CALLDATALOAD PUSH4 0xFFFFFFFF AND PUSH2 0x5C3 JUMP JUMPDEST PUSH2 0x287 PUSH2 0x6AD JUMP JUMPDEST PUSH1 0x40 DUP1 MLOAD SWAP2 ISZERO ISZERO DUP3 MSTORE MLOAD SWAP1 DUP2 SWAP1 SUB PUSH1 0x20 ADD SWAP1 RETURN JUMPDEST PUSH2 0x1EC PUSH2 0x6BD JUMP JUMPDEST PUSH2 0x19B PUSH1 0x4 DUP1 CALLDATASIZE SUB PUSH1 0x20 DUP2 LT ISZERO PUSH2 0x2B9 JUMPI PUSH1 0x0 DUP1 REVERT JUMPDEST POP CALLDATALOAD PUSH1 0x1 PUSH1 0x1 PUSH1 0xA0 SHL SUB AND PUSH2 0x6CC JUMP JUMPDEST PUSH2 0x1A5 PUSH2 0x701 JUMP JUMPDEST PUSH2 0x2F4 PUSH1 0x4 DUP1 CALLDATASIZE SUB PUSH1 0x20 DUP2 LT ISZERO PUSH2 0x2E7 JUMPI PUSH1 0x0 DUP1 REVERT JUMPDEST POP CALLDATALOAD PUSH4 0xFFFFFFFF AND PUSH2 0x719 JUMP JUMPDEST PUSH1 0x40 DUP1 MLOAD SWAP6 DUP7 MSTORE PUSH1 0x20 DUP7 ADD SWAP5 SWAP1 SWAP5 MSTORE DUP5 DUP5 ADD SWAP3 SWAP1 SWAP3 MSTORE ISZERO ISZERO PUSH1 0x60 DUP5 ADD MSTORE ISZERO ISZERO PUSH1 0x80 DUP4 ADD MSTORE MLOAD SWAP1 DUP2 SWAP1 SUB PUSH1 0xA0 ADD SWAP1 RETURN JUMPDEST PUSH2 0x1EC PUSH2 0x74C JUMP JUMPDEST PUSH2 0x1EC PUSH2 0x75B JUMP JUMPDEST PUSH2 0x1EC PUSH2 0x76A JUMP JUMPDEST PUSH2 0x1EC PUSH2 0x779 JUMP JUMPDEST PUSH2 0x19B PUSH1 0x4 DUP1 CALLDATASIZE SUB PUSH1 0x20 DUP2 LT ISZERO PUSH2 0x359 JUMPI PUSH1 0x0 DUP1 REVERT JUMPDEST POP CALLDATALOAD PUSH1 0x1 PUSH1 0x1 PUSH1 0xA0 SHL SUB AND PUSH2 0x788 JUMP JUMPDEST PUSH2 0x19B PUSH1 0x4 DUP1 CALLDATASIZE SUB PUSH1 0x20 DUP2 LT ISZERO PUSH2 0x37F JUMPI PUSH1 0x0 DUP1 REVERT JUMPDEST POP CALLDATALOAD PUSH1 0x1 PUSH1 0x1 PUSH1 0xA0 SHL SUB AND PUSH2 0x7BD JUMP JUMPDEST PUSH2 0x19B PUSH1 0x4 DUP1 CALLDATASIZE SUB PUSH1 0x20 DUP2 LT ISZERO PUSH2 0x3A5 JUMPI PUSH1 0x0 DUP1 REVERT JUMPDEST POP CALLDATALOAD PUSH4 0xFFFFFFFF AND PUSH2 0x7F2 JUMP JUMPDEST PUSH2 0x19B PUSH1 0x4 DUP1 CALLDATASIZE SUB PUSH1 0x20 DUP2 LT ISZERO PUSH2 0x3C8 JUMPI PUSH1 0x0 DUP1 REVERT JUMPDEST POP CALLDATALOAD PUSH1 0x1 PUSH1 0x1 PUSH1 0xA0 SHL SUB AND PUSH2 0x8D9 JUMP JUMPDEST PUSH2 0x1EC PUSH2 0x957 JUMP JUMPDEST PUSH2 0x1A5 PUSH2 0x966 JUMP JUMPDEST PUSH2 0x1A5 PUSH2 0x979 JUMP JUMPDEST PUSH2 0x1A5 PUSH2 0x98C JUMP JUMPDEST PUSH1 0x3 SLOAD PUSH1 0x1 PUSH1 0x1 PUSH1 0xA0 SHL SUB AND CALLER EQ PUSH2 0x453 JUMPI PUSH1 0x40 DUP1 MLOAD PUSH3 0x461BCD PUSH1 0xE5 SHL DUP2 MSTORE PUSH1 0x20 PUSH1 0x4 DUP3 ADD MSTORE PUSH1 0x19 PUSH1 0x24 DUP3 ADD MSTORE PUSH25 0x4552525F4143434553535F44454E4945445F4F4E4C595F434D PUSH1 0x38 SHL PUSH1 0x44 DUP3 ADD MSTORE SWAP1 MLOAD SWAP1 DUP2 SWAP1 SUB PUSH1 0x64 ADD SWAP1 REVERT JUMPDEST DUP1 PUSH4 0xFFFFFFFF AND PUSH2 0x463 DUP2 PUSH2 0x9A0 JUMP JUMPDEST POP PUSH1 0x7 DUP1 SLOAD PUSH4 0xFFFFFFFF SWAP1 SWAP3 AND PUSH5 0x100000000 MUL PUSH8 0xFFFFFFFF00000000 NOT SWAP1 SWAP3 AND SWAP2 SWAP1 SWAP2 OR SWAP1 SSTORE JUMP JUMPDEST PUSH1 0x7 SLOAD PUSH4 0xFFFFFFFF AND DUP2 JUMP JUMPDEST PUSH2 0x4A0 PUSH2 0x9E9 JUMP JUMPDEST DUP1 PUSH2 0x4AA DUP2 PUSH2 0xA3E JUMP JUMPDEST POP PUSH1 0x2 DUP1 SLOAD PUSH1 0x1 PUSH1 0x1 PUSH1 0xA0 SHL SUB NOT AND PUSH1 0x1 PUSH1 0x1 PUSH1 0xA0 SHL SUB SWAP3 SWAP1 SWAP3 AND SWAP2 SWAP1 SWAP2 OR SWAP1 SSTORE JUMP JUMPDEST PUSH1 0x4 SLOAD PUSH1 0x1 PUSH1 0x1 PUSH1 0xA0 SHL SUB AND DUP2 JUMP JUMPDEST PUSH1 0x6 SLOAD PUSH1 0x1 PUSH1 0xC0 SHL SWAP1 DIV PUSH4 0xFFFFFFFF AND DUP2 JUMP JUMPDEST PUSH1 0x9 PUSH1 0x20 SWAP1 DUP2 MSTORE PUSH1 0x0 SWAP3 DUP4 MSTORE PUSH1 0x40 DUP1 DUP5 KECCAK256 SWAP1 SWAP2 MSTORE SWAP1 DUP3 MSTORE SWAP1 KECCAK256 SLOAD DUP2 JUMP JUMPDEST PUSH1 0x1 SLOAD PUSH1 0x1 PUSH1 0x1 PUSH1 0xA0 SHL SUB AND CALLER EQ PUSH2 0x55F JUMPI PUSH1 0x40 DUP1 MLOAD PUSH3 0x461BCD PUSH1 0xE5 SHL DUP2 MSTORE PUSH1 0x20 PUSH1 0x4 DUP3 ADD MSTORE PUSH1 0x11 PUSH1 0x24 DUP3 ADD MSTORE PUSH17 0x11549497D050D0D154D4D7D11153925151 PUSH1 0x7A SHL PUSH1 0x44 DUP3 ADD MSTORE SWAP1 MLOAD SWAP1 DUP2 SWAP1 SUB PUSH1 0x64 ADD SWAP1 REVERT JUMPDEST PUSH1 0x1 SLOAD PUSH1 0x0 DUP1 SLOAD PUSH1 0x40 MLOAD PUSH1 0x1 PUSH1 0x1 PUSH1 0xA0 SHL SUB SWAP4 DUP5 AND SWAP4 SWAP1 SWAP2 AND SWAP2 PUSH32 0x343765429AEA5A34B3FF6A3785A98A5ABB2597ACA87BFBB58632C173D585373A SWAP2 LOG3 PUSH1 0x1 DUP1 SLOAD PUSH1 0x0 DUP1 SLOAD PUSH1 0x1 PUSH1 0x1 PUSH1 0xA0 SHL SUB NOT SWAP1 DUP2 AND PUSH1 0x1 PUSH1 0x1 PUSH1 0xA0 SHL SUB DUP5 AND OR SWAP1 SWAP2 SSTORE AND SWAP1 SSTORE JUMP JUMPDEST PUSH1 0x3 SLOAD PUSH1 0x1 PUSH1 0x1 PUSH1 0xA0 SHL SUB AND CALLER EQ PUSH2 0x61E JUMPI PUSH1 0x40 DUP1 MLOAD PUSH3 0x461BCD PUSH1 0xE5 SHL DUP2 MSTORE PUSH1 0x20 PUSH1 0x4 DUP3 ADD MSTORE PUSH1 0x19 PUSH1 0x24 DUP3 ADD MSTORE PUSH25 0x4552525F4143434553535F44454E4945445F4F4E4C595F434D PUSH1 0x38 SHL PUSH1 0x44 DUP3 ADD MSTORE SWAP1 MLOAD SWAP1 DUP2 SWAP1 SUB PUSH1 0x64 ADD SWAP1 REVERT JUMPDEST PUSH1 0x1 DUP2 PUSH4 0xFFFFFFFF AND LT ISZERO DUP1 ISZERO PUSH2 0x63E JUMPI POP PUSH3 0xF4240 DUP2 PUSH4 0xFFFFFFFF AND GT ISZERO JUMPDEST PUSH2 0x687 JUMPI PUSH1 0x40 DUP1 MLOAD PUSH3 0x461BCD PUSH1 0xE5 SHL DUP2 MSTORE PUSH1 0x20 PUSH1 0x4 DUP3 ADD MSTORE PUSH1 0x15 PUSH1 0x24 DUP3 ADD MSTORE PUSH21 0x11549497D0D3D395915494D253D397D5D15251D215 PUSH1 0x5A SHL PUSH1 0x44 DUP3 ADD MSTORE SWAP1 MLOAD SWAP1 DUP2 SWAP1 SUB PUSH1 0x64 ADD SWAP1 REVERT JUMPDEST PUSH1 0x6 DUP1 SLOAD PUSH4 0xFFFFFFFF SWAP1 SWAP3 AND PUSH1 0x1 PUSH1 0xA0 SHL MUL PUSH4 0xFFFFFFFF PUSH1 0xA0 SHL NOT SWAP1 SWAP3 AND SWAP2 SWAP1 SWAP2 OR SWAP1 SSTORE JUMP JUMPDEST PUSH1 0x1 SLOAD PUSH1 0x1 PUSH1 0xA0 SHL SWAP1 DIV PUSH1 0xFF AND DUP2 JUMP JUMPDEST PUSH1 0x0 SLOAD PUSH1 0x1 PUSH1 0x1 PUSH1 0xA0 SHL SUB AND DUP2 JUMP JUMPDEST PUSH2 0x6D4 PUSH2 0x9E9 JUMP JUMPDEST DUP1 PUSH2 0x6DE DUP2 PUSH2 0xA3E JUMP JUMPDEST POP PUSH1 0x5 DUP1 SLOAD PUSH1 0x1 PUSH1 0x1 PUSH1 0xA0 SHL SUB NOT AND PUSH1 0x1 PUSH1 0x1 PUSH1 0xA0 SHL SUB SWAP3 SWAP1 SWAP3 AND SWAP2 SWAP1 SWAP2 OR SWAP1 SSTORE JUMP JUMPDEST PUSH1 0x7 SLOAD PUSH9 0x10000000000000000 SWAP1 DIV PUSH4 0xFFFFFFFF AND DUP2 JUMP JUMPDEST PUSH1 0x8 PUSH1 0x20 MSTORE PUSH1 0x0 SWAP1 DUP2 MSTORE PUSH1 0x40 SWAP1 KECCAK256 DUP1 SLOAD PUSH1 0x1 DUP3 ADD SLOAD PUSH1 0x2 DUP4 ADD SLOAD PUSH1 0x3 SWAP1 SWAP4 ADD SLOAD SWAP2 SWAP3 SWAP1 SWAP2 PUSH1 0xFF DUP1 DUP3 AND SWAP2 PUSH2 0x100 SWAP1 DIV AND DUP6 JUMP JUMPDEST PUSH1 0x2 SLOAD PUSH1 0x1 PUSH1 0x1 PUSH1 0xA0 SHL SUB AND DUP2 JUMP JUMPDEST PUSH1 0x3 SLOAD PUSH1 0x1 PUSH1 0x1 PUSH1 0xA0 SHL SUB AND DUP2 JUMP JUMPDEST PUSH1 0x5 SLOAD PUSH1 0x1 PUSH1 0x1 PUSH1 0xA0 SHL SUB AND DUP2 JUMP JUMPDEST PUSH1 0x1 SLOAD PUSH1 0x1 PUSH1 0x1 PUSH1 0xA0 SHL SUB AND DUP2 JUMP JUMPDEST PUSH2 0x790 PUSH2 0x9E9 JUMP JUMPDEST DUP1 PUSH2 0x79A DUP2 PUSH2 0xA3E JUMP JUMPDEST POP PUSH1 0x4 DUP1 SLOAD PUSH1 0x1 PUSH1 0x1 PUSH1 0xA0 SHL SUB NOT AND PUSH1 0x1 PUSH1 0x1 PUSH1 0xA0 SHL SUB SWAP3 SWAP1 SWAP3 AND SWAP2 SWAP1 SWAP2 OR SWAP1 SSTORE JUMP JUMPDEST PUSH2 0x7C5 PUSH2 0x9E9 JUMP JUMPDEST DUP1 PUSH2 0x7CF DUP2 PUSH2 0xA3E JUMP JUMPDEST POP PUSH1 0x3 DUP1 SLOAD PUSH1 0x1 PUSH1 0x1 PUSH1 0xA0 SHL SUB NOT AND PUSH1 0x1 PUSH1 0x1 PUSH1 0xA0 SHL SUB SWAP3 SWAP1 SWAP3 AND SWAP2 SWAP1 SWAP2 OR SWAP1 SSTORE JUMP JUMPDEST PUSH1 0x3 SLOAD PUSH1 0x1 PUSH1 0x1 PUSH1 0xA0 SHL SUB AND CALLER EQ PUSH2 0x84D JUMPI PUSH1 0x40 DUP1 MLOAD PUSH3 0x461BCD PUSH1 0xE5 SHL DUP2 MSTORE PUSH1 0x20 PUSH1 0x4 DUP3 ADD MSTORE PUSH1 0x19 PUSH1 0x24 DUP3 ADD MSTORE PUSH25 0x4552525F4143434553535F44454E4945445F4F4E4C595F434D PUSH1 0x38 SHL PUSH1 0x44 DUP3 ADD MSTORE SWAP1 MLOAD SWAP1 DUP2 SWAP1 SUB PUSH1 0x64 ADD SWAP1 REVERT JUMPDEST PUSH1 0x1 DUP2 PUSH4 0xFFFFFFFF AND LT ISZERO DUP1 ISZERO PUSH2 0x86D JUMPI POP PUSH3 0xF4240 DUP2 PUSH4 0xFFFFFFFF AND GT ISZERO JUMPDEST PUSH2 0x8B3 JUMPI PUSH1 0x40 DUP1 MLOAD PUSH3 0x461BCD PUSH1 0xE5 SHL DUP2 MSTORE PUSH1 0x20 PUSH1 0x4 DUP3 ADD MSTORE PUSH1 0x12 PUSH1 0x24 DUP3 ADD MSTORE PUSH18 0x4552525F434F4E56455253494F4E5F464545 PUSH1 0x70 SHL PUSH1 0x44 DUP3 ADD MSTORE SWAP1 MLOAD SWAP1 DUP2 SWAP1 SUB PUSH1 0x64 ADD SWAP1 REVERT JUMPDEST PUSH1 0x6 DUP1 SLOAD PUSH4 0xFFFFFFFF SWAP1 SWAP3 AND PUSH1 0x1 PUSH1 0xC0 SHL MUL PUSH4 0xFFFFFFFF PUSH1 0xC0 SHL NOT SWAP1 SWAP3 AND SWAP2 SWAP1 SWAP2 OR SWAP1 SSTORE JUMP JUMPDEST PUSH2 0x8E1 PUSH2 0x9E9 JUMP JUMPDEST PUSH1 0x0 SLOAD PUSH1 0x1 PUSH1 0x1 PUSH1 0xA0 SHL SUB DUP3 DUP2 AND SWAP2 AND EQ ISZERO PUSH2 0x935 JUMPI PUSH1 0x40 DUP1 MLOAD PUSH3 0x461BCD PUSH1 0xE5 SHL DUP2 MSTORE PUSH1 0x20 PUSH1 0x4 DUP3 ADD MSTORE PUSH1 0xE PUSH1 0x24 DUP3 ADD MSTORE PUSH14 0x22A9292FA9A0A6A2AFA7ABA722A9 PUSH1 0x91 SHL PUSH1 0x44 DUP3 ADD MSTORE SWAP1 MLOAD SWAP1 DUP2 SWAP1 SUB PUSH1 0x64 ADD SWAP1 REVERT JUMPDEST PUSH1 0x1 DUP1 SLOAD PUSH1 0x1 PUSH1 0x1 PUSH1 0xA0 SHL SUB NOT AND PUSH1 0x1 PUSH1 0x1 PUSH1 0xA0 SHL SUB SWAP3 SWAP1 SWAP3 AND SWAP2 SWAP1 SWAP2 OR SWAP1 SSTORE JUMP JUMPDEST PUSH1 0x6 SLOAD PUSH1 0x1 PUSH1 0x1 PUSH1 0xA0 SHL SUB AND DUP2 JUMP JUMPDEST PUSH1 0x6 SLOAD PUSH1 0x1 PUSH1 0xE0 SHL SWAP1 DIV PUSH4 0xFFFFFFFF AND DUP2 JUMP JUMPDEST PUSH1 0x6 SLOAD PUSH1 0x1 PUSH1 0xA0 SHL SWAP1 DIV PUSH4 0xFFFFFFFF AND DUP2 JUMP JUMPDEST PUSH1 0x7 SLOAD PUSH5 0x100000000 SWAP1 DIV PUSH4 0xFFFFFFFF AND DUP2 JUMP JUMPDEST PUSH1 0x0 DUP2 GT PUSH2 0x9E6 JUMPI PUSH1 0x40 DUP1 MLOAD PUSH3 0x461BCD PUSH1 0xE5 SHL DUP2 MSTORE PUSH1 0x20 PUSH1 0x4 DUP3 ADD MSTORE PUSH1 0xE PUSH1 0x24 DUP3 ADD MSTORE PUSH14 0x4552525F5A45524F5F56414C5545 PUSH1 0x90 SHL PUSH1 0x44 DUP3 ADD MSTORE SWAP1 MLOAD SWAP1 DUP2 SWAP1 SUB PUSH1 0x64 ADD SWAP1 REVERT JUMPDEST POP JUMP JUMPDEST PUSH1 0x0 SLOAD PUSH1 0x1 PUSH1 0x1 PUSH1 0xA0 SHL SUB AND CALLER EQ PUSH2 0xA3C JUMPI PUSH1 0x40 DUP1 MLOAD PUSH3 0x461BCD PUSH1 0xE5 SHL DUP2 MSTORE PUSH1 0x20 PUSH1 0x4 DUP3 ADD MSTORE PUSH1 0x11 PUSH1 0x24 DUP3 ADD MSTORE PUSH17 0x11549497D050D0D154D4D7D11153925151 PUSH1 0x7A SHL PUSH1 0x44 DUP3 ADD MSTORE SWAP1 MLOAD SWAP1 DUP2 SWAP1 SUB PUSH1 0x64 ADD SWAP1 REVERT JUMPDEST JUMP JUMPDEST PUSH1 0x1 PUSH1 0x1 PUSH1 0xA0 SHL SUB DUP2 AND PUSH2 0x9E6 JUMPI PUSH1 0x40 DUP1 MLOAD PUSH3 0x461BCD PUSH1 0xE5 SHL DUP2 MSTORE PUSH1 0x20 PUSH1 0x4 DUP3 ADD MSTORE PUSH1 0x13 PUSH1 0x24 DUP3 ADD MSTORE PUSH19 0x4552525F494E56414C49445F41444452455353 PUSH1 0x68 SHL PUSH1 0x44 DUP3 ADD MSTORE SWAP1 MLOAD SWAP1 DUP2 SWAP1 SUB PUSH1 0x64 ADD SWAP1 REVERT INVALID LOG2 PUSH5 0x6970667358 0x22 SLT KECCAK256 0xEC 0xC8 MSTORE8 SDIV MOD SWAP1 0x25 EXTCODEHASH 0xB4 0xC9 MOD PUSH23 0x97014B3E39F4DE4345760109A2E62B3B3FB76FBF64736F PUSH13 0x634300060C0033000000000000 "
		},
		"gasEstimates": {
			"creation": {
				"codeDepositCost": "551400",
				"executionCost": "63070",
				"totalCost": "614470"
			},
			"external": {
				"acceptOwnership()": "45842",
				"bancorFormula()": "1126",
				"contractManager()": "1104",
				"conversionFee()": "1142",
				"conversionWeight()": "1118",
				"currentVoteId()": "1157",
				"expectPrivateReserveToken()": "1134",
				"financialManager()": "1127",
				"initialize()": "1094",
				"newOwner()": "1148",
				"oracleAddress()": "1082",
				"owner()": "1126",
				"reserveToken()": "1081",
				"setBancorFormula(address)": "22117",
				"setContractManager(address)": "22051",
				"setConversionFee(uint32)": "22039",
				"setConversionWeight(uint32)": "22017",
				"setExpectPrivateReserveToken(uint32)": "21975",
				"setFinancialManager(address)": "22139",
				"setOracleAddress(address)": "22074",
				"transferOwnership(address)": "22879",
				"voteDetail(uint32)": "3699",
				"voteList(uint32,address)": "1351",
				"voteOpposeRate()": "1059",
				"votePeriodBlock()": "1096"
			}
		},
		"methodIdentifiers": {
			"acceptOwnership()": "79ba5097",
			"bancorFormula()": "ca401469",
			"contractManager()": "b39e12cf",
			"conversionFee()": "579cd3ca",
			"conversionWeight()": "f90bb740",
			"currentVoteId()": "9100b5dd",
			"expectPrivateReserveToken()": "feef143f",
			"financialManager()": "4eef3f31",
			"initialize()": "8129fc1c",
			"newOwner()": "d4ee1d90",
			"oracleAddress()": "a89ae4ba",
			"owner()": "8da5cb5b",
			"reserveToken()": "f4325d67",
			"setBancorFormula(address)": "8e72b23f",
			"setContractManager(address)": "d8dbe4c9",
			"setConversionFee(uint32)": "ecbca55d",
			"setConversionWeight(uint32)": "80f80a42",
			"setExpectPrivateReserveToken(uint32)": "0774c128",
			"setFinancialManager(address)": "d8a21847",
			"setOracleAddress(address)": "4c69c00f",
			"transferOwnership(address)": "f2fde38b",
			"voteDetail(uint32)": "9bbe15d6",
			"voteList(uint32,address)": "653300d7",
			"voteOpposeRate()": "2538576f",
			"votePeriodBlock()": "f856f336"
		}
	},
	"abi": [
		{
			"anonymous": false,
			"inputs": [
				{
					"indexed": true,
					"internalType": "address",
					"name": "_prevOwner",
					"type": "address"
				},
				{
					"indexed": true,
					"internalType": "address",
					"name": "_newOwner",
					"type": "address"
				}
			],
			"name": "OwnerUpdate",
			"type": "event"
		},
		{
			"inputs": [],
			"name": "acceptOwnership",
			"outputs": [],
			"stateMutability": "nonpayable",
			"type": "function"
		},
		{
			"inputs": [],
			"name": "bancorFormula",
			"outputs": [
				{
					"internalType": "address",
					"name": "",
					"type": "address"
				}
			],
			"stateMutability": "view",
			"type": "function"
		},
		{
			"inputs": [],
			"name": "contractManager",
			"outputs": [
				{
					"internalType": "address",
					"name": "",
					"type": "address"
				}
			],
			"stateMutability": "view",
			"type": "function"
		},
		{
			"inputs": [],
			"name": "conversionFee",
			"outputs": [
				{
					"internalType": "uint32",
					"name": "",
					"type": "uint32"
				}
			],
			"stateMutability": "view",
			"type": "function"
		},
		{
			"inputs": [],
			"name": "conversionWeight",
			"outputs": [
				{
					"internalType": "uint32",
					"name": "",
					"type": "uint32"
				}
			],
			"stateMutability": "view",
			"type": "function"
		},
		{
			"inputs": [],
			"name": "currentVoteId",
			"outputs": [
				{
					"internalType": "uint32",
					"name": "",
					"type": "uint32"
				}
			],
			"stateMutability": "view",
			"type": "function"
		},
		{
			"inputs": [],
			"name": "expectPrivateReserveToken",
			"outputs": [
				{
					"internalType": "uint32",
					"name": "",
					"type": "uint32"
				}
			],
			"stateMutability": "view",
			"type": "function"
		},
		{
			"inputs": [],
			"name": "financialManager",
			"outputs": [
				{
					"internalType": "address",
					"name": "",
					"type": "address"
				}
			],
			"stateMutability": "view",
			"type": "function"
		},
		{
			"inputs": [],
			"name": "initialize",
			"outputs": [
				{
					"internalType": "bool",
					"name": "",
					"type": "bool"
				}
			],
			"stateMutability": "view",
			"type": "function"
		},
		{
			"inputs": [],
			"name": "newOwner",
			"outputs": [
				{
					"internalType": "address",
					"name": "",
					"type": "address"
				}
			],
			"stateMutability": "view",
			"type": "function"
		},
		{
			"inputs": [],
			"name": "oracleAddress",
			"outputs": [
				{
					"internalType": "address",
					"name": "",
					"type": "address"
				}
			],
			"stateMutability": "view",
			"type": "function"
		},
		{
			"inputs": [],
			"name": "owner",
			"outputs": [
				{
					"internalType": "address",
					"name": "",
					"type": "address"
				}
			],
			"stateMutability": "view",
			"type": "function"
		},
		{
			"inputs": [],
			"name": "reserveToken",
			"outputs": [
				{
					"internalType": "address",
					"name": "",
					"type": "address"
				}
			],
			"stateMutability": "view",
			"type": "function"
		},
		{
			"inputs": [
				{
					"internalType": "address",
					"name": "_bancorFormula",
					"type": "address"
				}
			],
			"name": "setBancorFormula",
			"outputs": [],
			"stateMutability": "nonpayable",
			"type": "function"
		},
		{
			"inputs": [
				{
					"internalType": "address",
					"name": "_contractManager",
					"type": "address"
				}
			],
			"name": "setContractManager",
			"outputs": [],
			"stateMutability": "nonpayable",
			"type": "function"
		},
		{
			"inputs": [
				{
					"internalType": "uint32",
					"name": "_conversionFee",
					"type": "uint32"
				}
			],
			"name": "setConversionFee",
			"outputs": [],
			"stateMutability": "nonpayable",
			"type": "function"
		},
		{
			"inputs": [
				{
					"internalType": "uint32",
					"name": "_conversionWeight",
					"type": "uint32"
				}
			],
			"name": "setConversionWeight",
			"outputs": [],
			"stateMutability": "nonpayable",
			"type": "function"
		},
		{
			"inputs": [
				{
					"internalType": "uint32",
					"name": "_expectPrivateReserveToken",
					"type": "uint32"
				}
			],
			"name": "setExpectPrivateReserveToken",
			"outputs": [],
			"stateMutability": "nonpayable",
			"type": "function"
		},
		{
			"inputs": [
				{
					"internalType": "address",
					"name": "_financialManager",
					"type": "address"
				}
			],
			"name": "setFinancialManager",
			"outputs": [],
			"stateMutability": "nonpayable",
			"type": "function"
		},
		{
			"inputs": [
				{
					"internalType": "address",
					"name": "_oracleAddress",
					"type": "address"
				}
			],
			"name": "setOracleAddress",
			"outputs": [],
			"stateMutability": "nonpayable",
			"type": "function"
		},
		{
			"inputs": [
				{
					"internalType": "address",
					"name": "_newOwner",
					"type": "address"
				}
			],
			"name": "transferOwnership",
			"outputs": [],
			"stateMutability": "nonpayable",
			"type": "function"
		},
		{
			"inputs": [
				{
					"internalType": "uint32",
					"name": "",
					"type": "uint32"
				}
			],
			"name": "voteDetail",
			"outputs": [
				{
					"internalType": "uint256",
					"name": "beginBlock",
					"type": "uint256"
				},
				{
					"internalType": "uint256",
					"name": "endBlock",
					"type": "uint256"
				},
				{
					"internalType": "uint256",
					"name": "totalOppose",
					"type": "uint256"
				},
				{
					"internalType": "bool",
					"name": "publicity",
					"type": "bool"
				},
				{
					"internalType": "bool",
					"name": "pass",
					"type": "bool"
				}
			],
			"stateMutability": "view",
			"type": "function"
		},
		{
			"inputs": [
				{
					"internalType": "uint32",
					"name": "",
					"type": "uint32"
				},
				{
					"internalType": "address",
					"name": "",
					"type": "address"
				}
			],
			"name": "voteList",
			"outputs": [
				{
					"internalType": "uint256",
					"name": "",
					"type": "uint256"
				}
			],
			"stateMutability": "view",
			"type": "function"
		},
		{
			"inputs": [],
			"name": "voteOpposeRate",
			"outputs": [
				{
					"internalType": "uint32",
					"name": "",
					"type": "uint32"
				}
			],
			"stateMutability": "view",
			"type": "function"
		},
		{
			"inputs": [],
			"name": "votePeriodBlock",
			"outputs": [
				{
					"internalType": "uint32",
					"name": "",
					"type": "uint32"
				}
			],
			"stateMutability": "view",
			"type": "function"
		}
	]
}